:020000040000FA
:0400000080310E2815
:100008007E14803196314026803199312B21803100
:100018007E1009008031102809308400A030850046
:10002800A0308600023087000030FF001130AF3169
:1000380036278031F230840024308500FE30FE00FF
:100048000230FF00AF312A278031FA01FB01EF01AE
:10005800C7308400003085002530FE000030FF00E6
:10006800AF312A27803120308400013085004A30A2
:10007800FE000030FF00AF312A278031A030840015
:10008800013085004830FE000030FF00AF312A27DC
:10009800803120308400023085004B30FE00003073
:1000A800FF00AF312A2780317E1040019E319A2E01
:1000B800410154186028612862287F2A08304301CA
:1000C800E80068084001ED004101D41E6C286D2845
:1000D800702801304001ED024101541E7428752832
:1000E8007B2801304301E80068084001ED079C3196
:1000F8002024803184319F2480314101541F852878
:100108008628A3286030F600B030F700A3319B237F
:1001180080314D3086000130870032308400003055
:10012800850009304301E80016001A00E80B9828FA
:10013800A1318E2180310930A4313324803141012D
:10014800D41FA728A828CC28AA30F600B030F7007A
:10015800A3319B238031A0308600013087004230D4
:1001680084000030850009304301E80016001A00B9
:10017800E80BBA2840016D084301E900690840010D
:10018800CB009B315C2380310930A431332480318A
:100198004101D51CD028D128F2285530F600B030BE
:1001A800F700A3319B238031BB30860001308700E4
:1001B800423084000030850009304301E800160011
:1001C8001A00E80BE32840016D084301E9006908BB
:1001D8004001CB009B315C23803112298C30F60022
:1001E800B030F700A3319B238031443086000130C2
:1001F8008700423084000030850009304301E80060
:1002080016001A00E80B042940016D084301E900B3
:1002180069084001CB009B315C2380310930A4314F
:10022800332480314101D51D1A291B293F2900306B
:10023800AE31EF26803144308600013087004230ED
:1002480084000030850009304301E80016001A00D8
:10025800E80B2A2940016D084301E90069084001BB
:10026800CB009A319B228031E230F600B030F700A3
:10027800A1312F21803141015F084301E800E901E4
:100288006808F2006908F3000930F4000030F5004E
:10029800A231762280318D304301EA002730EB000D
:1002A80072086A07860073086B3D87004D3084002A
:1002B800013085000930EC0016001A00EC0B6029AB
:1002C80041015E084301E800E9016808F200690895
:1002D800F3000930F4000030F500A23176228031B5
:1002E8008D304301EA002730EB0072086A07860068
:1002F80073086B3D8700203084000030850009308A
:10030800EC0016001A00EC0B85294D3086000130F0
:10031800870029308400003085000930ED00160080
:100328001A00ED0B93299831D320803140012030F9
:100338008600003087004D30840001308500093088
:100348004301EE0016001A00EE0BA62941015108E0
:100358009F310B27803141015F084301E800E90123
:100368006808F2006908F3000930F4000030F5006D
:10037800A231762280312A304301EA002730EB008F
:1003880072086A07860073086B3D8700DF308400B7
:10039800013085000930EC0016001A00EC0BD0295A
:1003A80041015E084301E800E9016808F2006908B4
:1003B800F3000930F4000030F500A23176228031D4
:1003C8002A304301EA002730EB0072086A078600EA
:1003D80073086B3D870020308400003085000930A9
:1003E800EC0016001A00EC0BF529DF30860001300E
:1003F800870029308400003085000930ED001600A0
:100408001A00ED0B032A9831D320803140012030A7
:10041800860000308700DF30840001308500093015
:100428004301EE0016001A00EE0B162A84319F24B1
:1004380080314101551C212A222A472A8C30F60096
:10044800B030F700A3319B2380314430860001305F
:100458008700423084000030850009304301E800FD
:1004680016001A00E80B342A40016D08013E4301CA
:10047800E90069084001CB009B315C2380310930D9
:10048800A431332480314101D51D4B2A4C2A7F2ABF
:100498002830AE31EF26803141015C080319552A16
:1004A800562A5E2A3D30F600B030F700A1312F21E0
:1004B80080317F2A44308600013087004230840032
:1004C8000030850009304301E80016001A00E80BE7
:1004D800692A40016D08013E4301E90069084001AD
:1004E800CB009A319B228031E230F600B030F70021
:1004F800A1312F21803108004101D418842A852A8E
:10050800862A9E2C08304301E80068084001ED0067
:100518004101D41E902A912A942A01304001ED020B
:100528004101541E982A992A9F2A01304301E80064
:1005380068084001ED079C318424823184319F246E
:1005480082314101541FA92AAA2AC72A8130F600FC
:10055800B030F700A3319B2382314D308600013043
:100568008700323084000030850009304301E800FC
:1005780016001A00E80BBC2AA1318E2182310930FD
:10058800A431332482314101D41FCB2ACC2AF02A4A
:10059800B330F600B030F700A3319B238231A0308E
:1005A8008600013087004230840000308500093021
:1005B8004301E80016001A00E80BDE2A40016D0826
:1005C8004301E90069084001CB009B315C2382317B
:1005D8000930A431332482314101D51CF42AF52A8B
:1005E800162B7630F600B030F700A3319B2382310A
:1005F800BB3086000130870042308400003085001F
:1006080009304301E80016001A00E80B072B4001E7
:100618006D084301E90069084001CB009B315C2368
:100628008231362B9630F600B030F700A3319B2389
:100638008231443086000130870042308400003027
:10064800850009304301E80016001A00E80B282B42
:1006580040016D084301E90069084001CB009B3166
:100668005C2382310930A4313324823141015F088F
:100678004301E800E9016808F2006908F30009305D
:10068800F4000030F500A23176228231C7304301F0
:10069800EA002630EB0072086A07860073086B3D93
:1006A80087004D308400013085000930EC001600C9
:1006B8001A00EC0B5B2B41015E084301E800E901DD
:1006C8006808F2006908F3000930F4000030F5000A
:1006D800A23176228231C7304301EA002630EB008E
:1006E80072086A07860073086B3D87002030840013
:1006F800003085000930EC0016001A00EC0B802B46
:100708004D30860001308700293084000030850094
:100718000930ED0016001A00ED0B8E2B9831D3200E
:100728008231400120308600003087004D3084003F
:100738000130850009304301EE0016001A00EE0B67
:10074800A12B410152089F310B27823141015F08DB
:100758004301E800E9016808F2006908F30009307C
:10076800F4000030F500A231762282316430430172
:10077800EA002630EB0072086A07860073086B3DB2
:100788008700DF308400013085000930EC00160056
:100798001A00EC0BCB2B41015E084301E800E9018C
:1007A8006808F2006908F3000930F4000030F50029
:1007B800A2317622823164304301EA002630EB0010
:1007C80072086A07860073086B3D87002030840032
:1007D800003085000930EC0016001A00EC0BF02BF5
:1007E800DF30860001308700293084000030850022
:1007F8000930ED0016001A00ED0BFE2B9831D320BE
:10080800823140012030860000308700DF308400CC
:100818000130850009304301EE0016001A00EE0B86
:10082800112C84319F2482314101551C1C2C1D2C14
:10083800422C9630F600B030F700A3319B2382316A
:100848004430860001308700423084000030850043
:1008580009304301E80016001A00E80B2F2C40016C
:100868006D08013E4301E90069084001CB009B3156
:100878005C2382310930A431332482314101541C74
:10088800462C472C9E2C551D4A2C4B2C9E2CA930AF
:100898008600013087002030840000308500093050
:1008A8004301E80016001A00E80B562CB230860007
:1008B8000130870029308400003085000930E900C4
:1008C80016001A00E90B642C9831D32082314001BC
:1008D8002030860000308700DF308400013085003A
:1008E80009304301EA0016001A00EA0B772C84311C
:1008F8009F2482316B30F600B030F700A3319B2380
:100908008231A030860001308700423084000030F8
:10091800850009304301E80016001A00E80B902C06
:1009280040016D084301E90069084001CB009B3193
:100938005C23823108004D30860001308700293061
:1009480084000030850009304101BB0016001A0000
:10095800BB0BAA2C9C31E824843140012930860045
:1009680000308700203084000230850009304101C2
:10097800BC0016001A00BC0BBD2C541EC42CC52C80
:10098800DF2C08305306031DCA2CCB2CD52C420172
:10099800A001A1010930A2003D30A300A401A501D6
:1009A800F92C00304201A000A030A1002530A2009F
:1009B8002630A300D22C08305306031DE42CE52C66
:1009C800EF2C00304201A0001230A1007A30A200C2
:1009D8000030A300D22C40304201A0004B30A100CF
:1009E8004C30A2000030A300D22C20308600013009
:1009F8008700293084000030850009304101BB00A0
:100A080016001A00BB0B042D9C31E82484314001E8
:100A180029308600003087002030840001308500AE
:100A280009304101BC0016001A00BC0B172DDF303D
:100A380086000130870029308400003085000930A5
:100A4800BB0016001A00BB0B252D9C31E82484310D
:100A580040012930860000308700A0308400013032
:100A6800850009304101BC0016001A00BC0B382D66
:100A7800A0308600013087003630840000308500C1
:100A88000930BB0016001A00BB0B462D203086002B
:100A9800013087003F308400003085000930BC00F9
:100AA80016001A00BC0B542D8B31332384314001BE
:100AB8003630860000308700A03084000130850081
:100AC80009304101BD0016001A00BD0B672D8831A1
:100AD800002084314101B230860000308700BE30EA
:100AE8008400003085000930BB0016001A00BB0BDB
:100AF800792DA03086000130870036308400003020
:100B080085000930BB0016001A00BB0B872DBE30CC
:100B18008600003087003F308400003085000930AF
:100B2800BC0016001A00BC0B952D8B313323843181
:100B380040013630860000308700A0308400013044
:100B4800850009304101BD0016001A00BD0BA82D13
:100B58002030860002308700443084000130850050
:100B68000930BB0016001A00BB0BB62D44308600B6
:100B78000130870036308400003085000930BB0022
:100B880016001A00BB0BC42DA03086000130870068
:100B98003F308400003085000930BC0016001A0080
:100BA800BC0BD22D8B313323843140013630860083
:100BB800003087004430840001308500093041014D
:100BC800BD0016001A00BD0BE52D42014D084E046C
:100BD800031DEF2DF02DF82D5208510450044F0439
:100BE8000319F72DF82D512E0130A0000030A10077
:100BF800A201A301A401A5012030860001308700CD
:100C0800293084000030850009304101BB001600FE
:100C18001A00BB0B0B2E9C31E8248431400129308B
:100C280086000030870020308400013085000930BC
:100C38004101BC0016001A00BC0B1E2E2030860095
:100C48000130870036308400003085000930BB0051
:100C580016001A00BB0B2C2E44308600013087008A
:100C68003F308400003085000930BC0016001A00AF
:100C7800BC0B3A2E8B313323843140013630860049
:100C880000308700BB308400013085000930410105
:100C9800BD0016001A00BD0B4D2E08004001C10012
:100CA8003808BC003C08C000B8013330860000306A
:100CB800870029308400003085000930BC00160008
:100CC8001A00BC0B632E410892317922863140010B
:100CD8003208BC003C08F20041089F317F2786316A
:100CE80040014108BC003C08BE000E30BC003C0876
:100CF800BF003E0886000230870030300106031925
:100D0800862E872E882E972E0130BC003C08BE0701
:100D1800FF30BC003C08BF073F08803A7F3E0318FD
:100D2800962E972E7D2E3F08BC003C08C007043045
:100D3800BC003C08BF003E0886000230870001085E
:100D4800BC0041088600023087003C088100013061
:100D5800BC003C08BE070130BC003C08C10703309A
:100D6800F2000030F3004008F400F501F41BF5032D
:100D780098312C20863172087304031DC42EC52EA9
:100D8800D32E2E304001BC00410886000230870077
:100D98003C0881000130BC003C08C107F52EFF303B
:100DA8004001BC003C08C007FF30BC003C08BF073E
:100DB8003F08803A7F3E0318E22EE32E9F2EF52E41
:100DC8003E088600023087000108BC004108860002
:100DD800023087003C0881000130BC003C08BE0797
:100DE800CE2E3E088600023087000108031DFD2E26
:100DF800FE2EE42E4101660C890C0339013A031DCD
:100E0800062F072F822F20304001BC0041088600A2
:100E1800023087003C0881000130BC003C08C10753
:100E2800442F6630BC003C08C000702F7030BC00F6
:100E38003C08C000702F6E30BC003C08C000702F0A
:100E48007530BC003C08C000702F6D30BC003C08F9
:100E5800C000702F6B30BC003C08C000702F4D30B4
:100E6800BC003C08C000702F4730BC003C08C000E4
:100E7800702F5430BC003C08C000702FC001702F88
:100E88004008BC00BD01BC1BBD033D08003A031966
:100E9800512FFF3A03195F2F422F3C08033A0319D9
:100EA8002E2F053A0319332F0F3A0319382F053A15
:100EB80003193D2F422F3C08F13A0319152F053A23
:100EC80003191A2F033A03191F2F0D3A0319242F58
:100ED800073A0319292F422F40080319742F752F39
:100EE800DD2F4008BC0041088600023087003C081E
:100EF80081000130BC003C08C107DD2F45304001AE
:100F0800BC0041088600023087003C08810001309F
:100F1800BC003C08C107C01F922F932FA12FC00906
:100F2800C00A2D30BC0041088600023087003C080A
:100F380081000130BC003C08C1074008803A763E79
:100F4800031CA72FA82FD32F0A30F2000030F3007C
:100F58004008F400F501F41BF5039A313B22863171
:100F68007208303E4001BC0041088600023087000C
:100F78003C0881000130BC003C08C1070A30F2007F
:100F88000030F3004008F400F501F41BF503983134
:100F98002C20863172084001BC003C08C000400883
:100FA800303EBC0041088600023087003C088100C2
:100FB8007D2F4108860002308700810108004B011F
:100FC8001F081F3940389F001F127C309D009C016C
:100FD80000304201E5000030E4000030E30000305A
:100FE800E2004B011E129E171F08F03903389F00BC
:100FF8004E018C1296160800083041015306031D55
:10100800062807282A28420159084001D900420128
:1010180058084001D800420157084001D700420152
:1010280056084001D60097311F27883140015630B5
:101038008600003087006430840000308500093065
:10104800F80016001A00F80B25284A280430563EE6
:10105800860001308700403F4001D600413FD7005D
:10106800423FD800433FD90097311F2788314001BC
:1010780056308600003087006430840000308500D8
:101088000930F80016001A00F80B4628643086006C
:1010980000308700B2308400003085000930F80045
:1010A80016001A00F80B54280800AE31F6268831CD
:1010B8009931DF218831D430F200B030F300983113
:1010C8007F208831003A03196A286B28902841014B
:1010D800540E890C890C0139A331C0238831400191
:1010E800A400A40EA40DA40D410154084001240637
:1010F800BF3924064101D400AF30F600A930F7000B
:10110800A3319B2388314101540E890C890C013984
:10111800A031EC20883144291530F200B130F300B9
:1011280098317F208831003A03199B289C28BE28D3
:101138004101540D540D0139A331C02388314001B8
:10114800A400A40CA40C41015408400124067F39D2
:1011580024064101D4002030F600B030F700A33156
:101168009B2388314101540D540D0139A031EC20E5
:1011780088314429BC30F200B030F30098317F2028
:101188008831003A0319C928CA28E82841015508B6
:101198000139A331C02388314001A4004101550819
:1011A80040012406FE3924064101D500A330F6008B
:1011B800A830F700A3319B23883141015508013934
:1011C800A031EC2088314429CD30F200B030F30052
:1011D80098317F208831003A0319F328F42813291D
:1011E8004101550C0139A331C02388314001A400C5
:1011F800A40D4101550840012406FD39240641018A
:10120800D5007C30F600A930F700A3319B23883144
:101218004101550C0139A031EC2088314429EE30C8
:10122800F200B030F30098317F208831003A03197A
:101238001E291F2941294101550C890C0139A33167
:10124800C02388314001A400A40DA40D4101550814
:1012580040012406FB3924064101D5001030F60070
:10126800B030F700A3319B2388314101550C890C1C
:101278000139A031EC2088314429A131022188317B
:1012880008004001C601C701C801C901CA01CB0154
:1012980037084007F6007608C400C001B7012830B7
:1012A800F6007608C500461C5A295B297B2946307A
:1012B8008600003087002030840000308500093027
:1012C800F60016001A00F60B6529A4316724893147
:1012D800400120308600003087004630840000300E
:1012E80085000930F70016001A00F70B77294630F9
:1012F80086000030870020308400003085000930E7
:10130800F60016001A00F60B8529A531BA25893191
:1013180040012030860000308700463084000030CD
:1013280085000930F70016001A00F70B97293B1CB7
:101338009E299F29CD29463086000030870020301D
:101348008400003085000930F60016001A00F60BFC
:10135800A929323086000030870029308400003007
:1013680085000930F70016001A00F70BB729A631D7
:1013780043268931400120308600003087004630FE
:101388008400003085000930F80016001A00F80BB8
:10139800C9293B30860000308700203084000030A7
:1013A80085000930F60016001A00F60BD729A5317A
:1013B800BA258931400120308600003087003B3053
:1013C8008400003085000930F70016001A00F70B7A
:1013D800E929FF30F6007608C5074508803A7F3EC0
:1013E8000318F729F82957291D2A463086000030A6
:1013F800870020308400003085000930F600160090
:101408001A00F60B032AA531BA258931400120308C
:10141800860000308700463084000030850009309F
:10142800F70016001A00F70B152A0130F6007608A7
:10143800C4074B08031D212A222AF9294B308600AC
:10144800003087004408810046308600003087005D
:1014580032308400003085000930F60016001A008A
:10146800F60B322A0800AE31F6268A319931DF218F
:101478008A311030F200B130F30098317F208A3180
:10148800003A0319482A492A842AE930F600BF306D
:10149800F700A3319B238A31A23138228A3175089B
:1014A8004001B5007408B4007308B3007208B200B4
:1014B800A731AF278A31E830F600B030F700A33102
:1014C8009B238A31BC30F600A830F700A3319B2358
:1014D8008A31983103208A3140012808B50027084D
:1014E800B4002608B3002508B200A731AF278A3117
:1014F800E830F600B030F700A3319B238A31322B55
:101508001A30F200B130F30098317F208A31003A66
:1015180003198F2A902AB12AA53108258A31BC30AF
:10152800F600A830F700A3319B238A3198310320B5
:101538008A3140012808B5002708B4002608B300FE
:101548002508B200A731AF278A31E830F600B0305D
:10155800F700A3319B238A31322BF430F200B030EC
:10156800F30098317F208A31003A0319BC2ABD2A3A
:10157800FA2AAE31F6268A319031BC208A313D30C4
:10158800F600A830F700A3319B238A31A231382214
:101598008A3175084001B5007408B4007308B300B7
:1015A8007208B200A731AF278A31A331E5238A3107
:1015B8005730F600A830F700A3319B238A31A231B7
:1015C80038228A3175084001B5007408B4007308E0
:1015D800B3007208B200A731AF278A311D30F60078
:1015E800A830F700A3319B238A31322B1F30F20039
:1015F800B130F30098317F208A31003A0319052B66
:10160800062B2F2B4101540C4001BB00BB0C3B0C9B
:101618000139A331C0238A314001BC00BC0DBC0D87
:10162800BC0D4101540840013C06F7393C06410114
:10163800D400D430F600A830F700A3319B238A31B8
:101648004101540C4001BB00BB0C3B0C0139A031DB
:10165800EC208A31322BA13102218A310800400165
:10166800CD01CE01CF01D001D101D20144083B0206
:10167800C8004808CB00C401BB01C31F442B452B3D
:10168800492BBA1B482B492B582B4D30860000306C
:10169800870036308400003085000930C800160005
:1016A8001A00C80B532B522C3630860000308700A6
:1016B80020308400003085000930C80016001A0068
:1016C800C80B622B3F308600003087002930840029
:1016D800003085000930C90016001A00C90B702BAC
:1016E800A63188268B31803A803E03187C2B7D2BCF
:1016F800A22B36308600003087002030840000306E
:10170800850009304001C80016001A00C80B882B54
:10171800A431D1248B31400120308600003087006D
:1017280036308400003085000930C90016001A00E0
:10173800C90B9A2BFF30C8004808CB072830400156
:10174800C8004808CC0036308600003087002030BA
:101758008400003085000930C80016001A00C80B44
:10176800B12B3F30860000308700293084000030DC
:1017780085000930C90016001A00C90BBF2BA63115
:1017880088268B31891BC92BCA2BFA2B3630860049
:101798000030870020308400003085000930400187
:1017A800C80016001A00C80BD52B3F308600003041
:1017B800870029308400003085000930C9001600F0
:1017C8001A00C90BE32B9831D3208B31400120300C
:1017D80086000030870036308400003085000930EC
:1017E800CA0016001A00CA0BF52B4D144001D11F70
:1017F800FE2BFF2B002C4B2C4D3086000030870031
:1018080020308400003085000930C80016001A0016
:10181800C80B0A2CA431D1248B314001203086001A
:10182800003087004D308400003085000930C90041
:1018380016001A00C90B1C2C3630860000308700B1
:1018480020308400003085000930C80016001A00D6
:10185800C80B2A2CA431D1248B31400120308600BA
:101868000030870036308400003085000930C90018
:1018780016001A00C90B3C2CFF30C8004808CC07DA
:101888004C08803A7F3E03184A2C4B2CA72B523029
:101898008600003087004B088100492B0800AE31D4
:1018A800F6268C319931DF218C313D30F200B13090
:1018B800F30098317F208C31003A0319642C652C91
:1018C800F42CAE31F6268C319931DF218C3142303F
:1018D800F200B130F30098317F208C31003A0319BF
:1018E800762C772C812C410154187B2C7C2C7E2C57
:1018F800EB01EB0A5414D410B22C3B30F200B13097
:10190800F30098317F208C31003A03198C2C8D2CF0
:10191800972C4101D418912C922C942CEB01EB0AB2
:101928005410D414B22C3A30F200B130F30098318C
:101938007F208C31003A0319A22CA32CB22C410130
:101948005418A72CA82CAA2CEB01EB0AD418AD2C00
:10195800AE2CB02CEB01EB0A5414D4146A30F60008
:10196800A930F700A3319B238C314101541CBD2CB5
:10197800BE2CC22C4130A43133248C314101D41CFB
:10198800C62CC72CCB2C4230A43133248C311D30CB
:10199800F600A830F700A3319B238C310030F60005
:1019A800B030F700A3319B238C3141015108303E00
:1019B800A43133248C310630F600B130F700A3315E
:1019C8009B238C3141015208303EA43133248C31A1
:1019D8001D30F600A830F700A3319B238C31842DED
:1019E8002430F200B130F30098317F208C31003A76
:1019F8000319FF2C002D252D4101540E890C0139A6
:101A0800A331C0238C314001A400A40EA40D4101D0
:101A1800540840012406DF3924064101D4009E30D1
:101A2800F600A930F700A3319B238C314101540EF5
:101A3800890C0139A031EC208C314101EB01EB0A12
:101A4800842D2930F200B130F30098317F208C3199
:101A5800003A0319302D312D502D4101540E013912
:101A6800A331C0238C314001A400A40E41015408C5
:101A780040012406EF3924064101D4008D30F600D8
:101A8800A930F700A3319B238C314101540E013951
:101A9800A031EC208C31212D2E30F200B130F30032
:101AA80098317F208C31003A03195B2D5C2D812DF4
:101AB8004101540C890C0139A331C0238C314001F8
:101AC800A400A40DA40D4101540840012406FB39CB
:101AD80024064101D400CA30F600BF30F700A33114
:101AE8009B238C314101540C890C0139A031EC2025
:101AF8008C31AF3142278C31842DA13102218C31B8
:101B0800080040013708D93EF6007608BD00B70145
:101B1800BB011E30F6007608BC003D08803A823EC4
:101B2800031C972D982D992D802EFD303D06031D01
:101B38009E2D9F2DA62DCC303602031CA42DA52D3D
:101B4800A62D802E32308600003087002030840099
:101B5800003085000930F60016001A00F60BB02D8B
:101B6800A43167248D314001203086000030870081
:101B780032308400003085000930F70016001A0062
:101B8800F70BC22D323086000030870020308400E9
:101B9800003085000930F60016001A00F60BD02D2B
:101BA800A531BA258D3140012030860000308700EC
:101BB800C7308400003085000930F70016001A008D
:101BC800F70BE22DC73086000030870020308400F4
:101BD800003085000930F60016001A00F60BF02DCB
:101BE800A531BA258D3140012030860000308700AC
:101BF800C7308400003085000930F70016001A004D
:101C0800F70B022E32308600003087002030840027
:101C1800003085000930F60016001A00F60B102E69
:101C2800C7308600003087002930840000308500E6
:101C38000930F70016001A00F70B1E2EA6314326AE
:101C48008D3140012030860000308700323084001A
:101C5800003085000930F80016001A00F80B302E05
:101C68000330F6007608BD07FF30F6007608BB079C
:101C7800371C3F2E402E752E3230860000308700EC
:101C880020308400003085000930F60016001A0064
:101C9800F60B4A2EA43167248D31C73086000030F8
:101CA800870020308400003085000930F6001600D7
:101CB8001A00F60B5B2EA531BA258D314001203074
:101CC80086000030870032308400003085000930FB
:101CD800F70016001A00F70B6D2E0130F600760893
:101CE800BD07FF30F6007608BC073C08803A7F3E07
:101CF80003187F2E802E912DBD1B832E842E852EBA
:101D0800BB2E32308600003087002030840000303F
:101D180085000930F60016001A00F60B8F2EA43144
:101D280067248D31C730860000308700203084005A
:101D3800003085000930F60016001A00F60BA02EB8
:101D4800A531BA258D31400120308600003087004A
:101D580032308400003085000930F70016001A0080
:101D6800F70BB22E0130F6007608BD07802E37300B
:101D78008600003087003B08810008004101D41923
:101D8800C62EC72EC82EFF2F4201520851045004F8
:101D98004F040319D02ED12ED22EFF2FDF3086000C
:101DA800013087004231403F4001D300413FD40019
:101DB800423FD500433FD6004101541EE42EE52E94
:101DC800EE2E07304001D000D637D50CD40CD30CFA
:101DD800D00BE82E0A3042014D064E04031DF52EA5
:101DE800F62E422F44304001A9009A30A8001D3039
:101DF800A7002030A6005608F5005508F40054083E
:101E0800F3005308F2000130933124238E31750812
:101E18004001AD007408AC007308AB007208AA005A
:101E2800903131208E3103181A2F1B2F1C2FFF2FB2
:101E380040015608F5005508F4005408F30053080B
:101E4800F2000130933124238E3175084001A90036
:101E58007408A8007308A7007208A6004430AD00F3
:101E68009730AC000F30AB00E030AA009031312041
:101E78008E310318402F412F952FFF2F14304D0618
:101E88004E04031D482F492FFF2F45304001A9005C
:101E98001A30A8001D30A7002030A6005608F5000B
:101EA8005508F4005408F3005308F2000130933148
:101EB80024238E3175084001AD007408AC00730806
:101EC800AB007208AA00903131208E3103186D2FB3
:101ED8006E2F6F2FFF2F40015608F5005508F400AC
:101EE8005408F3005308F2000130933124238E3153
:101EF80075084001A9007408A8007308A7007208B3
:101F0800A6004530AD001730AC000F30AB00E03014
:101F1800AA00903131208E310318932F942F952FDA
:101F2800FF2F00304001D700CA30D8009A30D900BE
:101F38003B30DA00DB01DC015730860000308700D7
:101F480029308400003085000930D00016001A00BE
:101F5800D00BAA2F9C31E8248E314001293086000D
:101F68000030870057308400003085000930D100E8
:101F780016001A00D10BBC2F4430860001308700B0
:101F880032308400003085000930D00016001A0075
:101F9800D00BCA2F57308600003087003B308400B2
:101FA800003085000930D10016001A00D10BD82F57
:101FB800893145218E31400132308600003087005A
:101FC80057308400003085000930D20016001A000E
:101FD800D20BEA2F57308600003087003B30840050
:101FE800003085000930D00016001A00D00BF82FF9
:081FF80091314C218E310800EB
:102006004101D41154165414D4105411D41254133B
:10201600D4135510D5105511D5158030F6003F3024
:10202600F700A531FE25903179084201D9007808DC
:10203600D8007708D7007608D6008430F6003F30FF
:10204600F700A531FE25903179084201DD007808B8
:10205600DC007708DB007608DA0008000030400173
:102066002605AE0000302705AF0080302805B000F9
:102076007F302905B100310830042F042E04031DDA
:10208600452846284E280030A9000030A800003018
:10209600A7000030A60000302A05AE0000302B0550
:1020A600AF0080302C05B0007F302D05B10031081F
:1020B60030042F042E04031D612862286A2800308C
:1020C600AD000030AC000030AB000030AA00A91F04
:1020D6006D286E2886280030AE000030AF00003034
:1020E600B0008030B1002608AE022708AF3B2808B2
:1020F600B03B2908B13B3108A9003008A8002F08D9
:10210600A7002E08A600AD1F89288A28A22800301D
:10211600AE000030AF000030B0008030B1002A08B9
:10212600AE022B08AF3B2C08B03B2D08B13B310863
:10213600AD003008AC002F08AB002E08AA00803096
:10214600A9068030AD062D082902031DB4282C08E7
:102156002802031DB4282B082702031DB4282A08C9
:1021660026020318B728B828BA280310BB28031478
:10217600080000304101DB000030DA000030D900F1
:102186000030D80068080319C928CA28CB284B296B
:102196004001A60141016908EC3E86008701253011
:1021A600873D01084001A4002408A7000130A400CF
:1021B60024084101E9072D3040012706031DE428C4
:1021C600E528FA28FF30A4002408A6004101690882
:1021D600EC3E860087012530873D01084001A400BA
:1021E6002408A7000130A40024084101E907303083
:1021F60040012702031C0029012937293A3027020A
:1022060003180629072937290030F5000030F400A5
:102216000030F3000A30F20041015B08F9005A0869
:10222600F8005908F7005808F600A4319B249031AD
:1022360075084101DB007408DA007308D9007208DA
:10224600D80040012708D03EA400FF300318003014
:10225600A50024084101D807400125084101D93DC0
:102266000030DA3DDB3DE928260A031D3B293C29DF
:1022760048294101D809D909DA09DB09D80A03191D
:10228600D90A0319DA0A0319DB0A01304101E90206
:1022960008003B308600003087002930840000307B
:1022A600850009304001C40016001A00C40B5729E6
:1022B6009B31BD23913140012930860000308700D3
:1022C6003B308400003085000930C50016001A0036
:1022D600C50B69293D08C4003E08C500C601C701F3
:1022E6001030C435C50DC60DC70D890B74293B08C2
:1022F600C8003C08C900CA01CB014808C407490800
:10230600C53D4A08C63D4B08C73D4708CF004608AD
:10231600CE004508CD004408CC000030CC0736304E
:10232600CD3D6530CE3DC430CF3D0830410153062A
:10233600031D9E299F29B02940014C084201D6025F
:1023460040014D084201D73B40014E084201D83BAF
:1023560040014F084201D93BC02940014C084201C7
:10236600DA0240014D084201DB3B40014E084201C2
:10237600DC3B40014F084201DD3BFC30F600A83053
:10238600F700A3319B239131A23138229131750890
:102396004001B5007408B4007308B3007208B200B7
:1023A600A731AF2791311D30F600A830F700A331D1
:1023B6009B23913108004101D41EE229E329182A02
:1023C60064304201DE070030DF3D0030E03D003082
:1023D600E13DA33132239131720842015E02400190
:1023E600BD00730842015F3B4001BE007408420114
:1023F600603B4001BF0075084201613B4001C000DF
:10240600C01F062A072A502AA331322391313230BF
:1024160072074201DE000030733DDF000030743D7C
:10242600E0000030753DE100502AE8304201DE0749
:102436000330DF3D0030E03D0030E13DA331322383
:102446009131720842015E024001BD0073084201EB
:102456005F3B4001BE0074084201603B4001BF0083
:1024660075084201613B4001C000C01F3B2A3C2A5F
:10247600502AA33132239131B63072074201DE0071
:102486000330733DDF000030743DE0000030753DE1
:10249600E100502A9A31FB229131A3313223913146
:1024A600720842015E024001BD00730842015F3BB3
:1024B6004001BE0074084201603B4001BF00750840
:1024C6004201613B4001C000C01B782A4008031D41
:1024D600772A3F08031D772A3E08031D772A013015
:1024E6003D020318772A782A4D2A0800F700770854
:1024F600F30073084101E5001030F3007308F8009B
:10250600650886000230870081010130F3007308F8
:10251600E5070130F802031D912A922A832A3030FA
:10252600F3007308F5000E30F3007308F6000E3062
:10253600F3007308F707E4014001AE1FA32AA42A9B
:10254600A62A410164142930860000308700203015
:102556008400003085000930F30016001A00F30BE2
:10256600B02AA431D12492314001203086000030B7
:10257600870029308400003085000930F4001600F9
:102586001A00F40BC22A7708F30073084101E5002C
:1025960076080F3CF3007308F800650886000230E1
:1025A600870001356407F3007308E4000A3064020B
:1025B600031CDE2ADF2AF82A6408F63EF3006508C3
:1025C600860002308700730881000130E502E401CD
:1025D600E40A7803031DF02AF12A032B0130F602E0
:1025E6000130F3007308F807032B6408F30065084D
:1025F600860002308700730881000130E502E4019D
:102606000130F802031D082B092BD02A0130F502F0
:10261600031D0E2B0F2B9E2A0F30F3007308F800B4
:102626003030F30077088600023087007308810790
:102636000130F7020130F802031D222B232B132B46
:1026460008004001A000200803192A2B2B2B3F2B42
:10265600F51F2E2B2F2B3F2B7209A2007309A30007
:102666007409A4007509A500A20A0319A30A03198F
:10267600A40A0319A50A472B7508A5007408A40027
:102686007308A3007208A200750874047304720428
:10269600031D4E2B4F2B582B0030F5000030F40055
:1026A6000030F3000030F200D02B9630F6007608AA
:1026B600A100682B0130F6007608A1070130A53687
:1026C600A40CA30CA20C890B622BFE302505031D5E
:1026D6006D2B6E2B5D2B822B0130F6007608A10741
:1026E6000130A2070030A33D0030A43D0030A53DD7
:1026F6000130A536A40CA30CA20C890B7C2BFF3051
:102706002505031D872B882B6F2B922B0130A102E9
:102716000130A235A30DA40DA50D890B8C2BA41B8E
:10272600952B962B9C2B0230210203189B2B9C2B5E
:10273600892B21189F2BA02BA82BFF30A205FF3039
:10274600A3057F30A405FF30A5050310A10C2108C1
:10275600F600F701F801F9011830F635F70DF80D16
:10276600F90D890BB02B7608A2047708A304780824
:10277600A4047908A50420080319C22BC32BC82B6F
:10278600F51FC62BC72BC82BA5172508F50024084F
:10279600F4002308F3002208F20008004101D419CE
:1027A600D52BD62BD72B942C44304001A900C03012
:1027B600A800A430A7006830A6004D30860001307E
:1027C60087004231403FF200413FF300423FF400B0
:1027D600433FF500003093312423933175084001BF
:1027E600AD007408AC007308AB007208AA00903103
:1027F600312093310318002C012C022C942C4D30DF
:102806008600013087004231403FF200413FF3002D
:10281600423FF400433FF5000030933124239331C7
:1028260075084001A9007408A8007308A70072087B
:10283600A6004430AD00BC30AC00D330AB00D8307D
:10284600AA0090313120933103182A2C2B2C2C2CE2
:10285600942C64304001D3000030D400D501D60159
:10286600D701D80153308600003087002930840014
:10287600003085000930D00016001A00D00B3F2C1E
:102886009C31E824933140012930860000308700CE
:1028960053308400003085000930D10016001A003C
:1028A600D10B512C44308600013087003230840031
:1028B600003085000930D00016001A00D00B5F2CBE
:1028C60053308600003087003B308400003085009E
:1028D6000930D10016001A00D10B6D2C8931452123
:1028E6009331400132308600003087005330840037
:1028F600003085000930D20016001A00D20B7F2C5A
:1029060053308600003087003B308400003085005D
:102916000930D00016001A00D00B8D2C91314C21B5
:1029260093310800D6308600013087004430840099
:102936000230850009304001A00016001A00A00BE5
:10294600A02CB2308600013087003B308400023074
:1029560085000930A00016001A00A00BAE2CCD3061
:10296600860001308700323084000230850009304D
:10297600A00016001A00A00BBC2CA930860001305E
:10298600870029308400023085000930A000160037
:102996001A00A00BCA2CA2311A229431D630860016
:1029A6000130870041015E084001A000A101200816
:1029B600F2002108F3000930F4000030F500A231DE
:1029C600762294318D304001A2002730A300720890
:1029D600220784007308233D85000930A4001600F1
:1029E6001A00A40BF22CB230860001308700410198
:1029F6005E084001A000A1012008F2002108F300B2
:102A06000930F4000030F500A231762294312A30E4
:102A16004001A2002730A300720822078400730831
:102A2600233D85000930A40016001A00A40B172DBB
:102A3600CD3086000130870041015E084001A000CC
:102A4600A1012008F2002108F3000930F40000304B
:102A5600F500A23176229431C7304001A20026301B
:102A6600A3007208220784007308233D85000930FD
:102A7600A40016001A00A40B3C2DA93086000130D4
:102A8600870041015E084001A000A1012008F20074
:102A96002108F3000930F4000030F500A231762257
:102AA600943164304001A2002630A3007208220748
:102AB60084007308233D85000930A40016001A001F
:102AC600A40B612D0800AF31842795314101E10146
:102AD6007C012511A514722D9A31FB2295314101F5
:102AE60061080319772D782D6F2D7C012515A5100A
:102AF600AF31BE27953173084001C1007208C0008E
:102B060042016708F3006608F20040014108F5003B
:102B16004008F400A2317622953173084001C100C5
:102B26007208C0000830C136C00C890B962D4101D1
:102B3600541E9E2D9F2D3F2E420140084001BD0090
:102B460025308600013087003D08810042013F089C
:102B56004001BD0040308600013087003D088100FD
:102B660042013E084001BD003F308600013087002B
:102B76003D08810042013D084001BD003E3086000F
:102B8600013087003D08810042013C084001BD003C
:102B96003D308600013087003D0881003C308600CC
:102BA6000130870042013B088100BB013B308600B3
:102BB6000130870020308400003085000930400154
:102BC600BD0016001A00BD0BE42DA531BA259531BE
:102BD600400120308600003087003B308400013001
:102BE60085000930BE0016001A00BE0BF62D420104
:102BF600C013251CFF2DC017223086000130870028
:102C06000030C03FC13FC23FC33F400141084201BF
:102C1600A100400140084201A0003B30860001307F
:102C26008700203084000030850009304001BD0057
:102C360016001A00BD0B1B2E2030860001308700BF
:102C460029308400003085000930BE0016001A00C5
:102C5600BE0B292E9831D3209531400120308600B5
:102C6600003087003B308400013085000930BF000A
:102C760016001A00BF0B3B2E08004E01121D442EF3
:102C8600452ED62E121141016308031D4B2E4C2EE4
:102C9600792E46010D084301D70046010C08430171
:102CA600D60032308600013087004231403FD800DE
:102CB600413FD900423FDA00433FDB004E01101C82
:102CC600652E662EA52E1330430157028830031950
:102CD600560203186F2E702EA52E0130D80700302D
:102CE600D93D0030DA3D0030DB3DA52E4601110806
:102CF6004301CE00460110084301CD00C4308600D2
:102D0600013087004231403FCF00413FD000423F73
:102D1600D100433FD2004E01101E922E932EA52EB7
:102D2600133043014E02883003194D0203189C2EBE
:102D36009D2EA52E0130CF070030D03D0030D13D6D
:102D46000030D23D460115084201BC004601140878
:102D56004201BB0029308600013087004231403FE6
:102D6600BD00413FBE00423FBF00433FC0004E0191
:102D7600101DBE2EBF2ED12E133042013C028830CC
:102D860003193B020318C82EC92ED12E0130BD07E8
:102D96000030BE3D0030BF3D0030C03D0130F00088
:102DA60070084101E1004E018C1EDA2EDB2EF12E59
:102DB6008C120130F00070084101E20753086202EC
:102DC600031CE62EE72EF12EE20101304201E20756
:102DD6000030E33D0030E43D0030E53D4E01101C7F
:102DE600F52EF62E002F101001304201B4070030E8
:102DF600B53D0030B63D0030B73D4E01101D042FE5
:102E0600052F0F2F101101304201AB070030AC3DEA
:102E16000030AD3D0030AE3D4E01101E132F142F75
:102E26001E2F101201304301C6070030C73D003087
:102E3600C83D0030C93D0800400157084101AA00BD
:102E4600400156084101A90040015608DF00570815
:102E5600E0005808E1005908E2001030E300E237CC
:102E6600E10CE00CDF0CE30B322F60084101AC00F3
:102E760040015F084101AB00AC1F422F432F482F92
:102E8600FF30AD00FF30AE004A2FAD01AE0100307D
:102E9600A000CA30A1009A30A2003B30A300A401D2
:102EA600A501A9308600003087002030840000305C
:102EB600850009304001DF0016001A00DF0B5F2F86
:102EC600A03086000030870029308400003085005D
:102ED6000930E00016001A00E00B6D2FA6314326DC
:102EE600973140012030860000308700A9308400E9
:102EF600003085000930E10016001A00E10B7F2F33
:102F0600A03086000030870029308400003085001C
:102F16000930DF0016001A00DF0B8D2F9C31E824E4
:102F2600973140012930860000308700A0308400A8
:102F3600003085000930E00016001A00E00B9F2FD4
:102F4600A9308600003087002930840000308500D3
:102F56000930DF0016001A00DF0BAD2F9C31E82484
:102F6600973140012930860000308700A93084005F
:102F7600003085000930E00016001A00E00BBF2F74
:102F8600A930860000308700363084000030850086
:102F96000930DF0016001A00DF0BCD2FA0308600A7
:102FA600003087003F308400003085000930E000A3
:102FB60016001A00E00BDB2F8B31332397314001CB
:102FC6003630860000308700A93084000030850046
:102FD6000930E10016001A00E10BED2FA93086003A
:102FE6000030870056308400003085000930DF004D
:0A2FF60016001A00DF0BFB2F080085
:10300600083041015306031D09280A281B28803071
:10301600F6003F30F700A531FE25983179084001CA
:10302600A8007808A7007708A6007608A5002B2830
:103036008830F6003F30F700A531FE259831790833
:103046004001A8007808A7007708A6007608A50022
:103056000800F801F51F302831283828F409F50949
:10306600F40A0319F50AF801F80AF31F3B283C286D
:103076004128F209F309F20A0319F30A72087304E4
:103086000319462847287028F701F70A5328013004
:10309600F235F30D890B4B280130F6007608F70759
:1030A600F31F562857284A2873087502031D5D2802
:1030B60072087402031C6028612865287208F402ED
:1030C6007308F53B0130F336F20C890B66280130A4
:1030D600F702031D6F2870285728780803197428EB
:1030E60075287A28F409F509F40A0319F50A75080A
:1030F600F3007408F200080041016708031D8428E4
:10310600852887280030D22825304001A100EC30E0
:10311600A0007308F5007208F400F20A0319F30A16
:1031260074088400750885000008F6002108F80078
:103136002008F700A00A0319A10A77088600780874
:103146008700010876060319A928AA28AB2885282E
:1031560020088600210887000108031DB328B4282B
:10316600BF2872088400730885001200031DBC285E
:10317600BD28BF280130D2282008860021088700F4
:1031860001080319C728C82885287208840073080F
:1031960085001200031DD028D1288C288528080018
:1031A60040012B082202B2002C08233BB3002D0855
:1031B600243BB4002E08253BB50035084101CC0060
:1031C600400134084101CB00400133084101CA00E7
:1031D600400132084101C90040012A082102031DAD
:1031E600F628290820020318F928FA28112901309F
:1031F600B2000030B3000030B4000030B500320831
:103206004101C902400133084101CA3B400134086B
:103216004101CB3B400135084101CC3B4001290827
:1032260020024101C70040012A08213B4101C80094
:10323600C7308600003087002030840000308500CB
:1032460009304001B20016001A00B20B2629080008
:103256004E018F1E2F2930295F298F12420119082E
:10326600F00070084101E00077307B02031C3C2926
:103276003D29482963308600263087000A308100C0
:103286000130F0007008EA075F297B08EC3EF00089
:10329600F1012530F13D700886007108870060084D
:1032A60081000130F0007008FB070A306006031D3C
:1032B6005D295E295F2943294E010F1E6329642972
:1032C60083290F127A0840016F0603196B296C29AE
:1032D60081297A08F23E860087012430873D01085D
:1032E60042019A000130F0007008FA07FA307A06B7
:1032F600031D7E297F298329FA0183294E0119128C
:103306000800A03150209931A03163209931A031B5
:1033160076209931A73118279931A131FC219931AD
:10332600A231B42299314101DF01DE01D630860097
:10333600013087008D308400273085000930400138
:10334600C30016001A00C30BA429CD308600013035
:103356008700C7308400263085000930C300160078
:103366001A00C30BB229B2308600013087002A301A
:103376008400273085000930C30016001A00C30BED
:10338600C029A930860001308700643084002630C9
:1033960085000930C30016001A00C30BCE29A331DD
:1033A6003223993175084201E1007408E000730880
:1033B600DF007208DE0008004101E7016808031912
:1033C600E529E629EB293A2A0130A5317C259931F0
:1033D600EC30860025308700203001060319F429D9
:1033E600F529E7294101E801E9016908EC3E860073
:1033F60087012530873D01084001A0002008F8001C
:103406000130A00020084101E907203078060319A1
:103416000D2A0E2A202A093078060319132A142A9F
:10342600202A0A3078060319192A1A2A202A0D306A
:103436007806031D1F2A202AF8290A307806031D5C
:10344600252A262A282AE801E80A69084001A00058
:10345600A101EB30A2002530A30020082207860038
:103466002108233D870081014101E701E70A0800A1
:103476004001A101F31F402A412A482AF209F30913
:10348600F20A0319F30AA101A10AF51F4B2A4C2AD5
:10349600552AF409F509F40A0319F50A0130F6006C
:1034A6007608A106A201A3017208730403195C2A17
:1034B6005D2A8C2AA001A00A692A0130F235F30D93
:1034C600890B612A0130F6007608A007F31F6C2AE3
:1034D6006D2A602A0130A235A30D890B6E2A730866
:1034E6007502031D782A72087402031C7B2A7C2A43
:1034F600812A7208F4027308F53B22140130F33670
:10350600F20C890B822A0130A002031D8B2A8C2A19
:103516006D2A21080319902A912A962AA209A3093D
:10352600A20A0319A30A2308F3002208F2000800DE
:1035360041016608F3390438E6004230860000305F
:103546008700323084000030850009304001CC000D
:1035560016001A00CC0BAB2A8D3185259A31400115
:10356600323086000030870042308400003085000B
:103576000930CD0016001A00CD0BBD2A4B08CC0031
:103586004C08B20042308600003087003330840099
:10359600003085000930CD0016001A00CD0BCF2A69
:1035A6004D30863152269A31363044014D02031C85
:1035B600DD2ADE2AF62A40014B08FF3ECC004C08E5
:1035C600B20042308600003087003330840000307D
:1035D60085000930CD0016001A00CD0BEE2A4D30BD
:1035E600863152269A314D30A1315D219A3108003B
:1035F60041016A08031D002B012B022B5B2B99311D
:10360600DF219A31C530F200B030F30098317F20C7
:103616009A31003A0319102B112B152BA4310C24C7
:103626009A31582B3630F200B130F30098317F20B2
:103636009A31003A0319202B212B252B8A31372268
:103646009A31582B0030F200B130F30098317F20C8
:103656009A31003A0319302B312B352B8C315324F8
:103666009A31582BDB30F200B030F30098317F20CE
:103676009A31003A0319402B412B452B88315920AA
:103686009A31582BFA30F200B030F30098317F208F
:103696009A31003A0319502B512B552BAE31E8269F
:1036A6009A31582BA13102219A31A131A8219A31A0
:1036B6000800F3304101E6054230860000308700FD
:1036C600323084000030850009304001CC001600FD
:1036D6001A00CC0B6A2B8D3185259B314001323087
:1036E60086000030870042308400003085000930B3
:1036F600CD0016001A00CD0B7C2B4B08CC004C08D5
:10370600B20042308600003087003330840000303B
:1037160085000930CD0016001A00CD0B8E2B4D30DA
:10372600863152269B31363044014D02031C9C2BB8
:103736009D2BB52B40014B08FF3ECC004C08B20038
:103746004230860000308700333084000030850028
:103756000930CD0016001A00CD0BAD2B4D30863149
:1037660052269B314D30F6000230F700A331762306
:103776009B31080040012E08D93EF6007608F80075
:10378600AE01F81BC72BC82BF32BE92B293086007B
:103796000030870020308400003085000930F600B4
:1037A60016001A00F60BD32BA431D1249B3140010D
:1037B60020308600003087002930840000308500E4
:1037C6000930F70016001A00F70BE52BFF30F6005C
:1037D6007608F807780A031DF12BF22BC92B1F2C4C
:1037E600F809F80A162C29308600003087002030A8
:1037F6008400003085000930F60016001A00F60B2A
:10380600002CA531BA259B314001203086000030BE
:10381600870029308400003085000930F700160043
:103826001A00F70B122CFF30F6007608F807780A14
:10383600031D1E2C1F2CF62B0800D63086000130E7
:103846008700203084000030850009304001B60032
:1038560016001A00B60B2B2C443086000230870067
:1038660029308400003085000930B70016001A00A0
:10387600B70B392C9831D3209C314001203086007B
:10388600003087004D308400013085000930B800D3
:1038960016001A00B80B4B2C410151089F310B271B
:1038A6009C31B23086000130870020308400003021
:1038B600850009304001B60016001A00B60B5F2CD1
:1038C6003B308600023087002930840000308500B6
:1038D6000930B70016001A00B70B6D2C9831D320AB
:1038E6009C3140012030860000308700DF308400A4
:1038F600013085000930B80016001A00B80B7F2C7D
:103906000800CD308600013087002030840000306A
:10391600850009304001B60016001A00B60B8F2C40
:10392600323086000230870029308400003085005E
:103936000930B70016001A00B70B9D2C9831D3201A
:103946009C31400120308600003087004D308400D5
:10395600013085000930B80016001A00B80BAF2CEC
:10396600410152089F310B279C31A9308600013056
:103976008700203084000030850009304001B60001
:1039860016001A00B60BC32C2930860002308700B9
:1039960029308400003085000930B70016001A006F
:1039A600B70BD12C9831D3209C31400120308600B2
:1039B60000308700DF308400013085000930B80010
:1039C60016001A00B80BE32C08002F30F30073081A
:1039D600F5002F30F3007308F6004001AE1FF42CFB
:1039E600F52CF62C252D2930860000308700203056
:1039F6008400003085000930F30016001A00F30B2E
:103A0600002DA431D1249C314001203086000030A5
:103A1600870029308400003085000930F400160044
:103A26001A00F40B122DFF30F3007308F507FF3070
:103A3600F3007308F6077608803A7F3E0318242DB4
:103A4600252DF02C2A08F3007308A9002B08F30093
:103A56002A30860000308700730881002C08F300A6
:103A66002B30860000308700730881002D08F30094
:103A76002C30860000308700730881002E08F30082
:103A86002D30860000308700730881002E308600B6
:103A96000030870075088100080040012108F50004
:103AA6002008F4002308F7002208F600A031AF2012
:103AB6009D3101304001A0070030A13D2108F500ED
:103AC6002008F4002208A6002308A7002408A8005E
:103AD6002508A9000830A936A80CA70CA60C890B46
:103AE6006E2D2708F7002608F600A031AF209D317D
:103AF60001304001A0070030A13D2108F500200853
:103B0600F4002208A6002308A7002408A800250818
:103B1600A9001030A936A80CA70CA60C890B8D2D70
:103B26002708F7002608F600A031AF209D310130A6
:103B36004001A0070030A13D2108F5002008F4004F
:103B46002208A6002308A7002408A8002508A90023
:103B56001830A936A80CA70CA60C890BAC2D270883
:103B6600F7002608F600A031AF209D310800450178
:103B76008E018F01FF308D0090010E088F3950386D
:103B86008E00AF31A0279D3115307D019C00AF31ED
:103B960092279D3145018C010B084001C400440861
:103BA600C5008B1345018E17A0300032890BD82D26
:103BB60045018E13400145088B00023045010C0279
:103BC6000318E62DE72DFB2D023041015106031D9A
:103BD600ED2DEE2DFB2DAF3116279D311030F60061
:103BE600A930F700A3319B239D31993184219D3162
:103BF6000B3045010C02031C012E022E152E41012D
:103C06005103031D072E082E152EA13118219D31B3
:103C16003430F600A930F700A3319B239D3199314A
:103C260084219D31303045010C02031C1B2E1C2EB5
:103C3600272E4101DC01DC0A7130F600A830F700BE
:103C4600A3319B239D31292E4101DC01080045014A
:103C56008E018F01FF308D0090010E088F3950388C
:103C66008E00AF31A0279E3114307D019C00AF310C
:103C760092279E3145018C010B084001C40044087F
:103C8600C5008B1345018E17A0300032890B482ED4
:103C960045018E13400145088B00023045010C0298
:103CA6000318562E572E6B2E023041015206031D65
:103CB6005D2E5E2E6B2EA03100209E312230F60046
:103CC600A930F700A3319B239E31993184219E317F
:103CD6000B3045010C02031C712E722E852E4101FC
:103CE6005203031D772E782E852EA031D7209E31C4
:103CF6004630F600A930F700A3319B239E31993157
:103D060084219E31303045010C02031C8B2E8C2EF3
:103D1600972E4201E801E80A8A30F600A830F7003B
:103D2600A3319B239E31992E4201E80108000830F9
:103D36004001EE006E084101D300A13175219E318C
:103D4600A031C3209E31A13146219E318731E32720
:103D56009E31A73162279E31A131DF219E31AF31DD
:103D66004F279E31AE31D9269E318B179131DE21F8
:103D76009E31A4310C249E31A030F600B030F700FD
:103D8600A1312F219E31AE31DD269E31AE31D526B1
:103D96009E31A03189209E319D31BA259E319E31BA
:103DA6002A269E319131DE219E31A631CF269E31C3
:103DB60041016B03031DE02EE12EED2EEB01583081
:103DC600F600A930F700A3319B239E319931842157
:103DD6009E31CF2E943195249E31A73118279E31DE
:103DE600A131FC219E31A231B4229E3180315C206A
:103DF6009E31823180229E31AF311F279E318E3116
:103E0600C2269E319331D1239E31CF2E80310E288A
:103E1600F50002307502031C112F122F322F4D3080
:103E2600860001308700203084000030850009308C
:103E3600F30016001A00F30B1C2FA431D1249F3176
:103E4600400120308600003087004D30840001306C
:103E560085000930F40016001A00F40B2E2F0430EA
:103E66007502031C372F382F582F4D30860001302E
:103E7600870020308400003085000930F3001600EA
:103E86001A00F30B422FA431D1249F314001203078
:103E96008600003087004D308400013085000930EF
:103EA600F40016001A00F40B542F08307506031D93
:103EB6005D2F5E2F7E2F4D3086000130870020302B
:103EC6008400003085000930F30016001A00F30B59
:103ED600682FA431D1249F31400120308600003064
:103EE60087004D308400013085000930F40016004B
:103EF6001A00F40B7A2F0800F4007408F300730814
:103F0600F600892F0130F3007308F607760886005D
:103F160002308700303001060319922F932F852F28
:103F26007208F3007308F5007508803A7F3E03189F
:103F36009D2F9E2F9F2FB82F760886000230870070
:103F46000108031DA72FA82FA92FB82F0130F300B2
:103F56007308F607FF30F3007308F5077508803A13
:103F66007F3E0318B72FB82F9F2F760886000230A2
:103F76008700353001020318C12FC22FC82F7608DB
:103F86008600023087008101FF2F76088600023006
:103F9600870081017208F3007308F500760874063D
:103FA600031DD62FD72FD82FFF2F0130F602FF3053
:103FB600F3007308F507760886000230870039306B
:103FC60001020318E72FE82FF62F76088600023045
:103FD60087000108013EF30076088600023087005C
:103FE60073088100FF2F3030F30076088600023018
:103FF600870073088100D12F08004101D201D20A3F
:1040060080307C019A0002309B0008003034313445
:10401600323433343434353436343734383439344E
:104026004134423443344434453446340034F31F77
:104036001D281E28212850011E17232850011E1353
:10404600FF30F2057F30F30573089B0072089A0073
:10405600080046010E08F03905388E0006308F003C
:1040660044011E08FC3901389E0046018E174E0198
:1040760012101C10080046011608F0390538960083
:104086000630970044011E08CF3920389E004601AD
:1040960096174E0112111C1508000D3044019100AF
:1040A6008E148D018C014201B201B301B401B50138
:1040B600B601B70144010E144E0110101A1408007F
:1040C6000130440197009414930192014201A90121
:1040D600AA01AB01AC01AD01AE01440114144E01BD
:1040E60010111A1508000E3044019D009A1499010A
:1040F60098014301C401C501C601C701C801C90130
:1041060044011A144E0110121A160800A0312C2070
:10411600A031A0313E20A031AF31AE27A031903181
:104126000320A031AF314F27A03199318421A0312E
:1041360008004001191200320032003200324001FC
:104146001916003200320032003240011912E030F6
:104156000032890BAB28080050011E151E139E164F
:104166007508F3007408F200A0311A20A031770810
:1041760050019D0076089C00AF31CE27A031080083
:10418600AF31A027A031AF316927A03115307D01AD
:10419600BC001430BD0004307E01A600400114139B
:1041A600AF319227A03108000230F20072084101B7
:1041B600D20086307C019A000A309B0002309C00B7
:1041C6009D019E019F010230A000A101A201A30151
:1041D6000800F9007908031DF128F228FA280B30A7
:1041E600F600B130F700A3319B23A03101298430BA
:1041F600F600BF30F700A3319B23A0310800E8305A
:10420600F600A830F700A3319B23A131EC30F6006D
:104216002530F700A3317623A1311D30F600A830F2
:10422600F700A3319B23A13108000230F200720887
:104236004101D10086307C0190000A309100AF31F7
:104246004227A1317C019301940195010230960029
:1042560097019801990108003C297608840077089F
:1042660085000008AF310E27A1310130F607003076
:10427600F73D76088400770885001200031D44295F
:10428600452930290800A131C321A13190304201CE
:104296009D0026309E00E901FB014101EA01FA0179
:1042A6004001EF0142019E144E010F1619128F12A2
:1042B60099160800F7006B297708860002308700F8
:1042C6000108AF310E27A1310130F6007608F70755
:1042D60077088600023087000108031D73297429B8
:1042E6005F2908008B0150010C107E01B801C30143
:1042F600CE014001980199019A01FF309200FF30EA
:104306009300FF3094007E01B901C401CF01B915B5
:104316000B178B13080032308600003087002930D7
:104326008400003085000930F90016001A00F90BE8
:1043360098294D3092317922A1314D30F600023064
:10434600F700A3317623A131080041016808031D57
:10435600AD29AE29BB296908E90AEC3E860087012A
:104366002530873D0A300106031DBA29BB29AE292F
:10437600AE31F626A1314101E8010130EA0208001A
:10438600083041015306031DC929CA29D029003026
:1043960042019C0045309B00DB2905305306031D76
:1043A600D529D629DB29003042019C002B309B0001
:1043B60042011E159F150800AF31DE27A1314201CB
:1043C6001108F3390438910011121F3098000F308C
:1043D60096051608F0390338960052018C178C1290
:1043E60003308C040C1FF829F929F529420191178D
:1043F600080041015418002A012A022A192AA2316A
:104406005722A1314101E30195316625A1313B30A7
:10441600860001308700B230840001308500093003
:104426004001C20016001A00C20B152A080001300E
:10443600F20072084101DE070B305E06031D242AD6
:10444600252A262ADE015F085E06031D2B2A2C2A52
:10445600302A0130F2007208DF070B305F06031DB9
:10446600352A362A372ADF0108000830410153066B
:10447600031D3E2A3F2A492A42015908F5005808D9
:10448600F4005708F3005608F200562A0430563E48
:10449600860001308700403FF200413FF300423F73
:1044A600F400433FF500080084307C01A400A50118
:1044B6002030A600A701A801A9010230AA00AB017D
:1044C600AC01AD018430AE000230AF002230B00046
:1044D6001430B100B201B3010230B400B5010830A6
:1044E600B600B7010800F601F701721C7B2A7C2A88
:1044F600802A7408F6077508F73D0130F435F50D86
:10450600890B812A0130F336F20C890B862A720850
:104516007304031D8F2A902A782A7708F3007608F9
:10452600F200080084307C01A400A5012130A60019
:10453600A701A801A9010230AA00AB01AC01AD0197
:104546008430AE000230AF002230B0001530B1002A
:10455600B201B3010230B400B5010830B600B701AC
:1045660008004101D418B82AB92ABA2AD22AA23197
:104576009522A2314101E301E30A95316625A23174
:104586003B30860001308700A93084000130850069
:1045960009304001C20016001A00C20BCE2A0800DC
:1045A600F4007B30F3007308400194050F30F300EC
:1045B600730893057408A3315323A2317408F300DA
:1045C6000330F335FF3E031DE42A7335A33153232D
:1045D600A2314001991219139A13991308000F304A
:1045E600AE31EF26A23141015D08031DFB2AFC2AEC
:1045F600072B4030F600B130F700A1312F21A23150
:104606004101DD01DD0A102BE630F600B030F7007F
:10461600A1312F21A2314101DD0108008030F600D1
:104626003F30F700A531FE25A33179084201D900B4
:104636007808D8007708D7007608D6008830F600C4
:104646003F30F700A531FE25A33179084201DD0090
:104656007808DC007708DB007608DA0008000B082B
:10466600F60076084001A4008B134201650840015C
:10467600A300420164084001A20042016308400110
:10468600A100420162084001A00024088B00230813
:10469600F5002208F4002108F3002008F2000800C3
:1046A600F200721E572B582B5B2B400199165D2B7F
:1046B60040019912F21E602B612B632B1917642B94
:1046C6001913721F672B682B6A2B9A176B2B9A1379
:1046D600F21F6E2B6F2B712B9917722B9913A0312A
:1046E6009C20A3310800912B760886007708870066
:1046F6000A300106031D802B812B852B0D30A4313A
:104706003324A33176088600770887000108A43190
:104716003324A3310130F6070030F73D76088600D2
:10472600770887000108031D992B9A2B772B080021
:10473600B62B760884007708850012000A3A031D16
:10474600A52BA62BAA2B0D30A4313324A331760832
:104756008400770885000008A4313324A331013092
:10476600F6070030F73D76088400770885001200CA
:10477600031DBE2BBF2B9C2B0800F900AE31F6267D
:10478600A3319931DF21A331CA30F200B030F300F2
:1047960098317F20A331003A0319D22BD32BD52B86
:1047A6000130E42B3230F200B130F30098317F2033
:1047B600A331003A0319E02BE12BE32B0030E42B65
:1047C60079080800083041015306031DEB2BEC2B3A
:1047D600FC2B5B084201D90041015A084201D8006E
:1047E600410159084201D700410158084201D6004B
:1047F6000B2C5B084201DD0041015A084201DC0036
:10480600410159084201DB00410158084201DA0022
:1048160008001F30F600A830F700A3319B23A4310F
:104826004930F600B030F700A3319B23A4312F3076
:10483600F600B030F700A3319B23A4318C30F6008C
:10484600BF30F700A3319B23A4310030F600A83017
:10485600F700A3319B23A431AE31FE26A431080014
:10486600F4000B08F2007208F5008B1340016F0884
:10487600F23EF200F3012430F33D7208860073081D
:104886008700740881000130F2007208EF07FA30E1
:104896006F06031D4F2C502C512CEF016F087A0622
:1048A600031D562C572C5B2C0130F2007208FA07B8
:1048B600FA307A06031D602C612C622CFA01750809
:1048C6008B004E011916080040012008013E4101E7
:1048D600C70000304001213D4101C800203086005C
:1048E600003087004231403FC900413FCA00423F85
:1048F600CB00433FCC0047084804031D832C842C7F
:104906008C2C0130C9070030CA3D0030CB3D003049
:10491600CC3DC73086000030870020308400003050
:1049260085000930F20016001A00F20B962C0800DA
:1049360000304001A3000030A2000030A10000308A
:10494600A000721CA72CA82CB12C76084001A00749
:104956007708A13D7808A23D7908A33D0130F635D8
:10496600F70DF80DF90D890BB22C0130F536F40C64
:10497600F30CF20C890BB92C7508740473047204D9
:10498600031DC62CC72CA42C40012308F5002208C1
:10499600F4002108F3002008F20008004101661027
:1049A6004001A51FD72CD82CDA2C410166144001F2
:1049B60022354101C9004001230D4101CA004001D1
:1049C600240D4101CB004001250D4101CC004001E1
:1049D600A11FEE2CEF2CF12C41014914400120358A
:1049E6004101C7004001210D4101C800C7308600C2
:1049F6000030870020308400003085000930F20046
:104A060016001A00F20B032D08008030F4003F3028
:104A1600F500AF31EF27A53180304001A0003F30CF
:104A2600A100420159084001A50042015808400171
:104A3600A400420157084001A30042015608400164
:104A4600A2009D315025A53188304001A0003F309D
:104A5600A1000430563E860001308700403FA20088
:104A6600413FA300423FA400433FA5009D3150258E
:104A7600A531AE31E226A5310800F701F80172082A
:104A860073040319472D482D772DF901F90A542D82
:104A96000130F235F30D890B4C2D0130F600760806
:104AA600F907F31F572D582D4B2D0130F735F80D0B
:104AB600890B592D73087502031D632D7208740244
:104AC600031C662D672D6C2D7208F4027308F53BE6
:104AD60077140130F336F20C890B6D2D0130F90293
:104AE600031D762D772D582D7808F3007708F200F0
:104AF6000800F5008B137B080319822D832D892D61
:104B06007B087502031C882D892D8C2DFB018B17C4
:104B1600B92DF6017508F2007208F700AE2D770878
:104B2600EC3E860087012530873D0108F2007608B5
:104B3600EC3EF300F4012530F43D7308860074085A
:104B46008700720881000130F2007208F707013011
:104B5600F2007208F6077B087702031CB32DB42D0A
:104B6600922D7608F2007208FB008B1708004101AF
:104B760066104001201CC02DC12DC32D41016614B5
:104B860040012108F3002008F200F336F20C720807
:104B96004101C7007308C8004001221CD32DD42D43
:104BA600D62D4101C81740012208F2002308F30060
:104BB6002408F4002508F5000130F536F40CF30C52
:104BC600F20C890BE02D75084101CC007408CB006E
:104BD6007308CA007208C900C73086000030870013
:104BE60020308400003085000930F20016001A00DB
:104BF600F20BF92D08007708F5007608F400AF31BE
:104C06007627A53174084001A0002008A1000130D4
:104C1600F6070030F73D7708F5007608F400AF3167
:104C26007627A53174084001A0002008A2000130B3
:104C3600F6070030F73D7708F5007608F400AF3147
:104C46007627A53174084001A0002008A300013092
:104C5600F6070030F73D7708F5007608F400AF3127
:104C66007627A53174084001A0002008A400240876
:104C7600F9002308F8002208F7002108F6000800CA
:104C8600400122082B07F20023082C3DF3002408DC
:104C96002D3DF40025082E3DF50075084101CC0098
:104CA6007408CB007308CA007208C90040012908BD
:104CB60020074101C70040012A08213D4101C800E3
:104CC6004001210841014802031D6D2E40012008C4
:104CD600410147020318702E712E792E0130C90743
:104CE6000030CA3D0030CB3D0030CC3DC730860099
:104CF6000030870020308400003085000930F20043
:104D060016001A00F20B832E0800400125082E0219
:104D1600031D8F2E24082D020318922E932E952EF6
:104D26000130CE2E2E082502031D9B2E2D082402AF
:104D360003189E2E9F2EA12EFF30CE2E23082C0266
:104D4600031DA72E22082B020318AA2EAB2EAC2E6B
:104D5600932E2C082302031DB22E2B0822020318C1
:104D6600B52EB62EB72E9F2E21082A02031DBD2E64
:104D7600200829020318C02EC12EC22E932E2A08FF
:104D86002102031DC82E290820020318CB2ECC2E83
:104D9600CD2E9F2E0030080045018E018F018C011B
:104DA600FF308D00053090008F308E050B08F20025
:104DB6007208F3008B138E17A0300032890BE02E99
:104DC60045018E1373088B0041300C020318EC2E3C
:104DD600ED2EFA2E053041015306031DF32EF42E57
:104DE600FA2E0830F2007208D300EB01EB0A4230CB
:104DF60045010C02031C002F012F0E2F0830410124
:104E06005306031D072F082F0E2F0530F2007208D8
:104E1600D300EB01EB0A41016B080319132F142F82
:104E2600172FA131C321A6310800AF31A027A73122
:104E360040011A137E01A601AF319227A731400126
:104E4600A101A201A301AF318427A73140011A179E
:104E56001A13AF31BE27A73172084001A1077308A4
:104E6600A23D0130A0002008A30704302302031C42
:104E76003D2F3E2F262F0230A1070030A23D0230E3
:104E8600A236A10C890B432FAF31A027A7310430DE
:104E96007E01A600AF319227A73140012208F30018
:104EA6002108F2000030F4008030F500A5314025DD
:104EB600A73173084201E7007208E60008004001C6
:104EC6001A111912991219139A1399137B30F700B4
:104ED600770894050F30F700770893050330F8003C
:104EE6000830F7007730890B762FF70B762FF80B03
:104EF600762F00003030A3315323A7312F30F7002F
:104F0600C030890B842FF70B842F3030A331532305
:104F1600A7312F30F700C030890B8F2FF70B8F2F5B
:104F26003030A3315323A731F0300032890B982F4C
:104F36002030A3315323A7312830AF310627A731BC
:104F46000C30AF310627A731AF315C27A7310630C9
:104F5600AF310627A73108004001B51FB32FB42F84
:104F6600C42F2D30A4313324A7314001B209B3092F
:104F7600B409B509B20A0319B30A0319B40A031925
:104F8600B50A33084101C800400132084101C70093
:104F960040013208B6003308B7003408B8003508B7
:104FA600B9001030BA00B937B80CB70CB60CBA0B4A
:104FB600D62F37084101CA00400136084101C90011
:104FC600CB01CC01C7308600003087002930840031
:104FD6000030850009304001B60016001A00B60BF5
:104FE600F02F4D3092317922A7315230F60002303F
:104FF600F700A3317623A731080023342034433445
:105006006F346E3474346134633474343A34203417
:10501600703469346334753469346E346F344034B3
:1050260067346D34613469346C342E3463346F34D0
:105036006D340A340A3400340A34233420345034AC
:1050460069346334753469346E346F3420344634CD
:10505600723465347134753465346E34633479343E
:10506600203443346F3475346E347434653472349A
:105076000A340034233420344F346C3464342034FE
:10508600433461346C346934623472346134743458
:1050960069346F346E3420342834523441344D34FC
:1050A60029343D34093400340A343E344E346534F0
:1050B60077342034433461346C3469346234723466
:1050C6006134743469346F346E3420342834523485
:1050D60041344D3429343D340934003423342034EA
:1050E6004F347634653472342034723461346E341D
:1050F60067346534203461347434203469346E3452
:10510600703475347434203441340A340034233412
:1051160020344F347634653472342034723461343A
:105126006E34673465342034613474342034693421
:105136006E34703475347434203442340A34003496
:10514600233420345034723469346E347434203449
:105156006C346F346E34673420346634723465349C
:105166007134753465346E34633479343D340934BE
:10517600003423342034433461346C34693462346B
:1051860072346134743469346F346E3420342834A4
:105196004534503452344F344D3429343D34093477
:1051A6000034233420344134753474346F3463341A
:1051B60061346C3469346234723461347434693401
:1051C6006F346E343D34093400342334203455347E
:1051D6006E346B346E346F3477346E34203463340B
:1051E6006F346D346D3461346E3464343A34203443
:1051F6000034233420344E34653477342034633419
:1052060061346C34693462347234613474346934B0
:105216006F346E343D340934003423342034503432
:10522600723465347334633461346C346534723487
:10523600203441343D34093431340A3400342334C3
:1052460020345034723465347334633461346C34CE
:1052560065347234203442343D34093431340A34EE
:105266000034233420345034723465347334633458
:1052760061346C3465347234203441343D3409343D
:1052860032340A34003423342034503472346534D2
:105296007334633461346C3465347234203442348C
:1052A6003D34093432340A34003423342034523441
:1052B6006534733465347434203463346F34753430
:1052C6006E3474346534723473340A3400342334DF
:1052D600203441346334743469347634653420348C
:1052E60049346E3470347534743473343D3409344F
:1052F6000034233420345034723469346E347434B8
:10530600203470346534723469346F3464343D3417
:105316000934003423342034433454344D34553462
:1053260020346D34653461347334753472346534C5
:105336003D34093400342334203446346134733424
:10534600743420346D346534613473347534723496
:1053560065343D34093400342334203450347234F7
:1053660069346E3474342034703475346C34733468
:0A537600653473343D34093400340B
:105DAA00A3311123AE31080052011F129F170800B8
:105DBA004101E901E801E701080050019E12AF31F3
:105DCA00CE27AE31080090310320AE314101EB01FC
:105DDA00EB0A0800F6007608803EAF310627AE319E
:105DEA00080041016908A5317C25AE314101E9016C
:105DFA0008007A0840016F06031D042F052FFE2EA6
:105E0A000800F50040011A117508A231D322AF31FA
:105E1A000800F50040011A157508A231D322AF31E6
:105E2A0008004101D101D10A80307C019000023082
:105E3A00910008001D30F600A830F700A3319B231B
:105E4A00AF31A231F222AF31080064008001013182
:105E5A000130FE020030FF3B7F087E04031D2B2F1A
:105E6A000034FE0012001E000130FE020030FF3B2B
:105E7A007F087E04031D372F00344101541D462F2D
:105E8A00472F4B2F1D307C0192004E2F01307C0191
:105E9A0092000800A1311821AF31A031D720AF31CB
:105EAA00AF311627AF31A0310020AF3108000130E1
:105EBA00AF310627AF311530F600C630890B632F94
:105ECA00F60B632F003208000F307E01A00040015C
:105EDA00141011307D01CB00400194147E01CF14BF
:105EEA0008007508F3007408F200A0311A20AF31D7
:105EFA0050011E141D08F5001C08F40008007E015C
:105F0A00CE11400194119A111A30890B8A2F00324E
:105F1A00400194157E01CE1508000B08F2007208A4
:105F2A00F3008B1355307D018F00AA308F000F14B8
:105F3A0073088B0008000B08F2007208F3008B1339
:105F4A0055307D018F00AA308F000F1073088B0027
:105F5A00080046011208F03905389200063093000D
:105F6A000C3044019E04460192174E0192109C1077
:105F7A0008001A30890BBF2F003242011114111880
:105F8A00C72FC82FC42F41011E08F3001D08F200B5
:105F9A0008000B08F2007208F3008B135530500109
:105FAA009F00AA309F009E140000000073088B0017
:105FBA000800400194157E01CE15133041019F005F
:105FCA0042011608F03903389600A0300032890BD6
:105FDA00EB2F08007508F3007408F200A0311A20AC
:105FEA00AF3150011E161E15AF31CE27AF31500109
:105FFA001E121E11080023342034503472346534C2
:10600A007334633461346C3465347234203441340B
:10601A003D34093400342334203450347234693422
:10602A006E347434203470346834613473346534B3
:10603A003D34093400342334203450347234693402
:10604A006E3474342034743469346D3465343D34B8
:10605A000934003432343034323430342D3461343B
:10606A007034723469346C342D343234343400343C
:10607A004F347634653472342034723461346E3479
:10608A00673465342134003423342034563465347B
:10609A007234733469346F346E343A3420340034D1
:1060AA0050346534723469346F3464342034413482
:1060BA003D3409340034503475346C3473346534E7
:1060CA007334203441343D3409340034543469344F
:1060DA006D346534203442342D3441343D3409342E
:1060EA00003450346534723469346F346434203483
:1060FA0042343D3409340034503475346C347334CA
:10610A0065347334203442343D340934003446341F
:10611A007234653471342E34203441343D340934B8
:10612A00003446347234653471342E3420344234A7
:10613A003D34093400345334793473347434653457
:10614A006D3420344F344B340034543469346D3454
:10615A006534203441343D340934003454346934CC
:10616A006D346534203442343D34093400346C349F
:10617A006F346E3467346634723465347134003483
:10618A00763465347234733469346F346E3400345F
:10619A0070346534723469346F3464340034703462
:1061AA0075346C3473346534733400346F34753435
:1061BA007434703475347434003448347A34203486
:1061CA0020342034003409345034503442340A34F0
:1061DA00003470346834613473346534003477348D
:1061EA007234693474346534003472346534733407
:1061FA0065347434003469346E34703475347434EC
:10620A000034093442343D34093400344F344634BE
:10621A0046340A34003472346534613464340034E8
:10622A00743469346D3465340034733461347634CB
:10623A00653400346134753474346F340034663430
:10624A006134733474340034633474346D347534A3
:10625A0000347A346334643400346F346634663418
:10626A000034633461346C340034413442340034D1
:0E627A006334683400342A3400344134003474
:107F000000340034003400344F344E340A3400342A
:107F100000340034003400340A3423342034503424
:107F200072346F346A3465346334743420346F349B
:107F30006E342034473469347434483475346234D0
:107F40003A342034683474347434703473343A34CA
:107F50002F342F34673469347434683475346234A0
:107F60002E3463346F346D342F3470346934633499
:107F7000753469346E346F342F346634723465343A
:107F8000713463346F3475346E34743465347234E0
:107F90000A3400342334203449346E347034753458
:107FA000743420345A34653472346F34203443349A
:107FB00072346F347334733420344434653474341D
:107FC00065346334743469346F346E343D34093449
:107FD000003423342034433461346C3469346234E3
:107FE00072346134743469346F346E34203428341C
:0E7FF000523441344D3429343D3409340034C8
:020000040001F9
:0A000E00AA1EFF379F3FEF1FFF3FC0
:00000001FF
