:020000040000FA
:0400000080310E2815
:100008007E1480319631402680319831FE2080312F
:100018007E10090080311028B9308400AF30850087
:10002800A0308600023087000030FF001130A03178
:1000380000208031F230840024308500FE30FE003C
:100048000230FF00AE31EF268031FA01FB01EF01EB
:10005800C7308400003085002530FE000030FF00E6
:10006800AE31EF26803120308400013085005030D9
:10007800FE000030FF00AE31EF268031A030840052
:10008800013085004830FE000030FF00AE31EF2619
:10009800803120308400023085004B30FE00003073
:1000A800FF00AE31EF2680317E1040019D31322DA8
:1000B800410154186028612862287F2A08304301CA
:1000C800E80068084001ED004101D41E6C286D2845
:1000D800702801304001ED024101541E7428752832
:1000E8007B2801304301E80068084001ED079B3197
:1000F8009823803184319F2480314101541F852801
:100108008628A328A430F600B030F700A3315B237B
:1001180080314D3086000130870032308400003055
:10012800850009304301E80016001A00E80B9828FA
:10013800A131492180310930A43123248031410182
:10014800D41FA728A828CC28EE30F600B030F70036
:10015800A3315B238031A93086000130870042300B
:1001680084000030850009304301E80016001A00B9
:10017800E80BBA2840016D084301E900690840010D
:10018800CB009A31D42280310930A4312324803124
:100198004101D51CD028D128F2289930F600B0307A
:1001A800F700A3315B238031D63086000130870009
:1001B800423084000030850009304301E800160011
:1001C8001A00E80BE32840016D084301E9006908BB
:1001D8004001CB009A31D42280311229DA30F6005E
:1001E800B030F700A3315B23803144308600013002
:1001F8008700423084000030850009304301E80060
:1002080016001A00E80B042940016D084301E900B3
:1002180069084001CB009A31D42280310930A431D9
:10022800232480314101D51D1A291B293F2900307B
:10023800AE31AB2680314430860001308700423031
:1002480084000030850009304301E80016001A00D8
:10025800E80B2A2940016D084301E90069084001BB
:10026800CB009A31132280312630F600B130F700E6
:10027800A13101218031410165084301E800E9010C
:100288006808F2006908F3000930F4000030F5004E
:10029800A2312F2280318D304301EA002730EB0054
:1002A80072086A07860073086B3D87004D3084002A
:1002B800013085000930EC0016001A00EC0B6029AB
:1002C80040016F084301E800E9016808F200690885
:1002D800F3000930F4000030F500A2312F228031FC
:1002E8008D304301EA002730EB0072086A07860068
:1002F80073086B3D8700203084000030850009308A
:10030800EC0016001A00EC0B85294D3086000130F0
:10031800870029308400003085000930ED00160080
:100328001A00ED0B932998314E208031400120307E
:100338008600003087004D30840001308500093088
:100348004301EE0016001A00EE0BA62941015108E0
:100358009E3180268031410165084301E800E901AA
:100368006808F2006908F3000930F4000030F5006D
:10037800A2312F2280312A304301EA002730EB00D6
:1003880072086A07860073086B3D8700DF308400B7
:10039800013085000930EC0016001A00EC0BD0295A
:1003A80040016F084301E800E9016808F2006908A4
:1003B800F3000930F4000030F500A2312F2280311B
:1003C8002A304301EA002730EB0072086A078600EA
:1003D80073086B3D870020308400003085000930A9
:1003E800EC0016001A00EC0BF529DF30860001300E
:1003F800870029308400003085000930ED001600A0
:100408001A00ED0B032A98314E208031400120302C
:10041800860000308700DF30840001308500093015
:100428004301EE0016001A00EE0B162A84319F24B1
:1004380080314101551C212A222A472ADA30F60048
:10044800B030F700A3315B2380314430860001309F
:100458008700423084000030850009304301E800FD
:1004680016001A00E80B342A40016D08013E4301CA
:10047800E90069084001CB009A31D4228031093063
:10048800A431232480314101D51D4B2A4C2A7F2ACF
:100498002830AE31AB268031410162080319552A54
:1004A800562A5E2A8130F600B030F700A1310121CA
:1004B80080317F2A44308600013087004230840032
:1004C8000030850009304301E80016001A00E80BE7
:1004D800692A40016D08013E4301E90069084001AD
:1004E800CB009A31132280312630F600B130F70064
:1004F800A1310121803108004101D418842A852ABC
:10050800862A9E2C08304301E80068084001ED0067
:100518004101D41E902A912A942A01304001ED020B
:100528004101541E982A992A9F2A01304301E80064
:1005380068084001ED079B31FC23823184319F24F8
:1005480082314101541FA92AAA2AC72AC530F600B8
:10055800B030F700A3315B2382314D308600013083
:100568008700323084000030850009304301E800FC
:1005780016001A00E80BBC2AA13149218231093042
:10058800A431232482314101D41FCB2ACC2AF02A5A
:10059800F730F600B030F700A3315B238231A93081
:1005A8008600013087004230840000308500093021
:1005B8004301E80016001A00E80BDE2A40016D0826
:1005C8004301E90069084001CB009A31D422823105
:1005D8000930A431232482314101D51CF42AF52A9B
:1005E800162BBA30F600B030F700A3315B23823106
:1005F800D630860001308700423084000030850004
:1006080009304301E80016001A00E80B072B4001E7
:100618006D084301E90069084001CB009A31D422F2
:100628008231362BE430F600B030F700A3315B237B
:100638008231443086000130870042308400003027
:10064800850009304301E80016001A00E80B282B42
:1006580040016D084301E90069084001CB009A3167
:10066800D42282310930A431232482314101650822
:100678004301E800E9016808F2006908F30009305D
:10068800F4000030F500A2312F228231C730430137
:10069800EA002630EB0072086A07860073086B3D93
:1006A80087004D308400013085000930EC001600C9
:1006B8001A00EC0B5B2B40016F084301E800E901CD
:1006C8006808F2006908F3000930F4000030F5000A
:1006D800A2312F228231C7304301EA002630EB00D5
:1006E80072086A07860073086B3D87002030840013
:1006F800003085000930EC0016001A00EC0B802B46
:100708004D30860001308700293084000030850094
:100718000930ED0016001A00ED0B8E2B98314E2093
:100728008231400120308600003087004D3084003F
:100738000130850009304301EE0016001A00EE0B67
:10074800A12B410152089E31802682314101650862
:100758004301E800E9016808F2006908F30009307C
:10076800F4000030F500A2312F22823164304301B9
:10077800EA002630EB0072086A07860073086B3DB2
:100788008700DF308400013085000930EC00160056
:100798001A00EC0BCB2B40016F084301E800E9017C
:1007A8006808F2006908F3000930F4000030F50029
:1007B800A2312F22823164304301EA002630EB0057
:1007C80072086A07860073086B3D87002030840032
:1007D800003085000930EC0016001A00EC0BF02BF5
:1007E800DF30860001308700293084000030850022
:1007F8000930ED0016001A00ED0BFE2B98314E2043
:10080800823140012030860000308700DF308400CC
:100818000130850009304301EE0016001A00EE0B86
:10082800112C84319F2482314101551C1C2C1D2C14
:10083800422CE430F600B030F700A3315B2382315C
:100848004430860001308700423084000030850043
:1008580009304301E80016001A00E80B2F2C40016C
:100868006D08013E4301E90069084001CB009A3157
:10087800D42282310930A431232482314101541C0D
:10088800462C472C9E2C551D4A2C4B2C9E2CB230A6
:100898008600013087002030840000308500093050
:1008A8004301E80016001A00E80B562CC4308600F5
:1008B8000130870029308400003085000930E900C4
:1008C80016001A00E90B642C98314E208231400141
:1008D8002030860000308700DF308400013085003A
:1008E80009304301EA0016001A00EA0B772C84311C
:1008F8009F248231AF30F600B030F700A3315B237C
:100908008231A930860001308700423084000030EF
:10091800850009304301E80016001A00E80B902C06
:1009280040016D084301E90069084001CB009A3194
:10093800D422823108004D308600013087002930EA
:1009480084000030850009304101BB0016001A0000
:10095800BB0BAA2C9C3160248431400129308600CD
:1009680000308700203084000230850009304101C2
:10097800BC0016001A00BC0BBD2C541EC42CC52C80
:10098800DF2C08305306031DCA2CCB2CD52C420172
:10099800BB01BC010930BD003D30BE00BF01C00134
:1009A800F92C00304201BB00A030BC002530BD004E
:1009B8002630BE00D22C08305306031DE42CE52C4B
:1009C800EF2C00304201BB001230BC007A30BD0071
:1009D8000030BE00D22C40304201BB004B30BC007E
:1009E8004C30BD000030BE00D22C3B3086000130B8
:1009F8008700293084000030850009304101BB00A0
:100A080016001A00BB0B042D9C3160248431400170
:100A180029308600003087003B3084000130850093
:100A280009304101BC0016001A00BC0B172DDF303D
:100A380086000130870029308400003085000930A5
:100A4800BB0016001A00BB0B252D9C316024843195
:100A580040012930860000308700A9308400013029
:100A6800850009304101BC0016001A00BC0B382D66
:100A7800A9308600013087003630840000308500B8
:100A88000930BB0016001A00BB0B462D3B30860010
:100A9800013087003F308400003085000930BC00F9
:100AA80016001A00BC0B542D8B31332384314001BE
:100AB8003630860000308700A93084000130850078
:100AC80009304101BD0016001A00BD0B672D8831A1
:100AD800002084314101B230860000308700BE30EA
:100AE8008400003085000930BB0016001A00BB0BDB
:100AF800792DA93086000130870036308400003017
:100B080085000930BB0016001A00BB0B872DBE30CC
:100B18008600003087003F308400003085000930AF
:100B2800BC0016001A00BC0B952D8B313323843181
:100B380040013630860000308700A930840001303B
:100B4800850009304101BD0016001A00BD0BA82D13
:100B58002030860002308700443084000130850050
:100B68000930BB0016001A00BB0BB62D44308600B6
:100B78000130870036308400003085000930BB0022
:100B880016001A00BB0BC42DA9308600013087005F
:100B98003F308400003085000930BC0016001A0080
:100BA800BC0BD22D8B313323843140013630860083
:100BB800003087004430840001308500093041014D
:100BC800BD0016001A00BD0BE52D42014D084E046C
:100BD800031DEF2DF02DF82D5208510450044F0439
:100BE8000319F72DF82D512E0130BB000030BC0041
:100BF800BD01BE01BF01C0013B3086000130870046
:100C0800293084000030850009304101BB001600FE
:100C18001A00BB0B0B2E9C31602484314001293013
:100C28008600003087003B308400013085000930A1
:100C38004101BC0016001A00BC0B1E2E3B3086007A
:100C48000130870036308400003085000930BB0051
:100C580016001A00BB0B2C2E44308600013087008A
:100C68003F308400003085000930BC0016001A00AF
:100C7800BC0B3A2E8B313323843140013630860049
:100C880000308700D63084000130850009304101EA
:100C9800BD0016001A00BD0B4D2E08004001C10012
:100CA8003808BC003C08C000B8013330860000306A
:100CB800870029308400003085000930BC00160008
:100CC8001A00BC0B632E41089231A22286314001E2
:100CD8003208BC003C08F20041089E31F4268631F7
:100CE80040014108BC003C08BE000E30BC003C0876
:100CF800BF003E0886000230870030300106031925
:100D0800862E872E882E972E0130BC003C08BE0701
:100D1800FF30BC003C08BF073F08803A7F3E0318FD
:100D2800962E972E7D2E3F08BC003C08C007043045
:100D3800BC003C08BF003E0886000230870001085E
:100D4800BC0041088600023087003C088100013061
:100D5800BC003C08BE070130BC003C08C10703309A
:100D6800F2000030F3004008F400F501F41BF5032D
:100D7800A7315927863172087304031DC42EC52E66
:100D8800D32E2E304001BC00410886000230870077
:100D98003C0881000130BC003C08C107F52EFF303B
:100DA8004001BC003C08C007FF30BC003C08BF073E
:100DB8003F08803A7F3E0318E22EE32E9F2EF52E41
:100DC8003E088600023087000108BC004108860002
:100DD800023087003C0881000130BC003C08BE0797
:100DE800CE2E3E088600023087000108031DFD2E26
:100DF800FE2EE42E4101600C890C0339013A031DD3
:100E0800062F072F822F20304001BC0041088600A2
:100E1800023087003C0881000130BC003C08C10753
:100E2800442F6630BC003C08C000702F7030BC00F6
:100E38003C08C000702F6E30BC003C08C000702F0A
:100E48007530BC003C08C000702F6D30BC003C08F9
:100E5800C000702F6B30BC003C08C000702F4D30B4
:100E6800BC003C08C000702F4730BC003C08C000E4
:100E7800702F5430BC003C08C000702FC001702F88
:100E88004008BC00BD01BC1BBD033D08003A031966
:100E9800512FFF3A03195F2F422F3C08033A0319D9
:100EA8002E2F053A0319332F0F3A0319382F053A15
:100EB80003193D2F422F3C08F13A0319152F053A23
:100EC80003191A2F033A03191F2F0D3A0319242F58
:100ED800073A0319292F422F40080319742F752F39
:100EE800DD2F4008BC0041088600023087003C081E
:100EF80081000130BC003C08C107DD2F45304001AE
:100F0800BC0041088600023087003C08810001309F
:100F1800BC003C08C107C01F922F932FA12FC00906
:100F2800C00A2D30BC0041088600023087003C080A
:100F380081000130BC003C08C1074008803A763E79
:100F4800031CA72FA82FD32F0A30F2000030F3007C
:100F58004008F400F501F41BF5039931B3218631FB
:100F68007208303E4001BC0041088600023087000C
:100F78003C0881000130BC003C08C1070A30F2007F
:100F88000030F3004008F400F501F41BF503A73125
:100F98005927863172084001BC003C08C00040084F
:100FA800303EBC0041088600023087003C088100C2
:100FB8007D2F4108860002308700810108004B011F
:100FC8001F081F3940389F001F127C309D009C016C
:100FD80000304201E1000030E0000030DF00003066
:100FE800DE004B011E129E171F08F03903389F00C0
:100FF8004E018C1296160800083041015306031D55
:10100800062807282A28420159084001D900420128
:1010180058084001D800420157084001D700420152
:1010280056084001D60097311F27883140015630B5
:101038008600003087006430840000308500093065
:10104800F80016001A00F80B25284A280430563EE6
:10105800860001308700403F4001D600413FD7005D
:10106800423FD800433FD90097311F2788314001BC
:1010780056308600003087006430840000308500D8
:101088000930F80016001A00F80B4628643086006C
:1010980000308700B2308400003085000930F80045
:1010A80016001A00F80B54280800AE31B226883111
:1010B8009931572188311830F200B130F300A73147
:1010C800AC278831003A03196A286B289028410117
:1010D800540E890C890C0139A331802388314001D1
:1010E800A400A40EA40DA40D410154084001240637
:1010F800BF3924064101D4003330F600B030F70080
:10110800A3315B2388314101540E890C890C0139C4
:10111800A031A820883144295930F200B130F300B9
:10112800A731AC278831003A03199B289C28BE2890
:101138004101540D540D0139A331802388314001F8
:10114800A400A40CA40C41015408400124067F39D2
:1011580024064101D4006430F600B030F700A33112
:101168005B2388314101540D540D0139A031A82069
:10117800883144290030F200B130F300A731AC27A0
:101188008831003A0319C928CA28E82841015508B6
:101198000139A331802388314001A4004101550859
:1011A80040012406FE3924064101D500A330F6008B
:1011B800A830F700A3315B23883141015508013974
:1011C800A031A820883144291130F200B130F30051
:1011D800A731AC278831003A0319F328F4281329DA
:1011E8004101550C0139A331802388314001A40005
:1011F800A40D4101550840012406FD39240641018A
:10120800D5000030F600B030F700A3315B238831F9
:101218004101550C0139A031A820883144293230C8
:10122800F200B130F300A731AC278831003A031936
:101238001E291F2941294101550C890C0139A33167
:10124800802388314001A400A40DA40D4101550854
:1012580040012406FB3924064101D5005430F6002C
:10126800B030F700A3315B2388314101550C890C5C
:101278000139A031A82088314429A031BE20883105
:1012880008004001C601C701C801C901CA01CB0154
:1012980037084007F6007608C400C001B7012830B7
:1012A800F6007608C500461C5A295B297B2946307A
:1012B8008600003087002030840000308500093027
:1012C800F60016001A00F60B6529A4315724893157
:1012D800400120308600003087004630840000300E
:1012E80085000930F70016001A00F70B77294630F9
:1012F80086000030870020308400003085000930E7
:10130800F60016001A00F60B8529A531AA258931A1
:1013180040012030860000308700463084000030CD
:1013280085000930F70016001A00F70B97293B1CB7
:101338009E299F29CD29463086000030870020301D
:101348008400003085000930F60016001A00F60BFC
:10135800A929323086000030870029308400003007
:1013680085000930F70016001A00F70BB729A631D7
:10137800332689314001203086000030870046300E
:101388008400003085000930F80016001A00F80BB8
:10139800C9293B30860000308700203084000030A7
:1013A80085000930F60016001A00F60BD729A5317A
:1013B800AA258931400120308600003087003B3063
:1013C8008400003085000930F70016001A00F70B7A
:1013D800E929FF30F6007608C5074508803A7F3EC0
:1013E8000318F729F82957291D2A463086000030A6
:1013F800870020308400003085000930F600160090
:101408001A00F60B032AA531AA258931400120309C
:10141800860000308700463084000030850009309F
:10142800F70016001A00F70B152A0130F6007608A7
:10143800C4074B08031D212A222AF9294B308600AC
:10144800003087004408810046308600003087005D
:1014580032308400003085000930F60016001A008A
:10146800F60B322A0800AE31B2268A31993157215B
:101478008A315430F200B130F300A731AC278A31F9
:10148800003A0319482A492A842AE930F600BF306D
:10149800F700A3315B238A31A131D2218A31750843
:1014A8004001B5007408B4007308B3007208B200B4
:1014B800A73108278A312C30F600B130F700A33164
:1014C8005B238A31BC30F600A830F700A3315B23D8
:1014D8008A31A331CC238A3140012808B500270876
:1014E800B4002608B3002508B200A73108278A31BE
:1014F8002C30F600B130F700A3315B238A31322B50
:101508005E30F200B130F300A731AC278A31003ADF
:1015180003198F2A902AB12AA431F8248A31BC30C1
:10152800F600A830F700A3315B238A31A331CC231E
:101538008A3140012808B5002708B4002608B300FE
:101548002508B200A73108278A312C30F600B130BF
:10155800F700A3315B238A31322B3830F200B130E7
:10156800F300A731AC278A31003A0319BC2ABD2AF7
:10157800FA2AAE31B2268A3190314D208A313D3077
:10158800F600A830F700A3315B238A31A131D221BC
:101598008A3175084001B5007408B4007308B300B7
:1015A8007208B200A73108278A31A13163218A3134
:1015B8005730F600A830F700A3315B238A31A131F8
:1015C800D2218A3175084001B5007408B400730847
:1015D800B3007208B200A73108278A311D30F6001F
:1015E800A830F700A3315B238A31322B6330F20035
:1015F800B130F300A731AC278A31003A0319052B23
:10160800062B2F2B4101540C4001BB00BB0C3B0C9B
:101618000139A33180238A314001BC00BC0DBC0DC7
:10162800BC0D4101540840013C06F7393C06410114
:10163800D400D430F600A830F700A3315B238A31F8
:101648004101540C4001BB00BB0C3B0C0139A031DB
:10165800A8208A31322BA031BE208A3108004001EF
:10166800CD01CE01CF01D001D101D20144083B0206
:10167800C8004808CB00C401BB01C31F442B452B3D
:10168800492BBA1B482B492B582B4D30860000306C
:10169800870036308400003085000930C800160005
:1016A8001A00C80B532B522C3630860000308700A6
:1016B80020308400003085000930C80016001A0068
:1016C800C80B622B3F308600003087002930840029
:1016D800003085000930C90016001A00C90B702BAC
:1016E800A63178268B31803A803E03187C2B7D2BDF
:1016F800A22B36308600003087002030840000306E
:10170800850009304001C80016001A00C80B882B54
:10171800A431C1248B31400120308600003087007D
:1017280036308400003085000930C90016001A00E0
:10173800C90B9A2BFF30C8004808CB072830400156
:10174800C8004808CC0036308600003087002030BA
:101758008400003085000930C80016001A00C80B44
:10176800B12B3F30860000308700293084000030DC
:1017780085000930C90016001A00C90BBF2BA63115
:1017880078268B31891BC92BCA2BFA2B3630860059
:101798000030870020308400003085000930400187
:1017A800C80016001A00C80BD52B3F308600003041
:1017B800870029308400003085000930C9001600F0
:1017C8001A00C90BE32B98314E208B314001203091
:1017D80086000030870036308400003085000930EC
:1017E800CA0016001A00CA0BF52B4D144001D11F70
:1017F800FE2BFF2B002C4B2C4D3086000030870031
:1018080020308400003085000930C80016001A0016
:10181800C80B0A2CA431C1248B314001203086002A
:10182800003087004D308400003085000930C90041
:1018380016001A00C90B1C2C3630860000308700B1
:1018480020308400003085000930C80016001A00D6
:10185800C80B2A2CA431C1248B31400120308600CA
:101868000030870036308400003085000930C90018
:1018780016001A00C90B3C2CFF30C8004808CC07DA
:101888004C08803A7F3E03184A2C4B2CA72B523029
:101898008600003087004B088100492B0800AE31D4
:1018A800B2268C31993157218C318130F200B13018
:1018B800F300A731AC278C31003A0319642C652C4E
:1018C800F42CAE31B2268C31993157218C318630C7
:1018D800F200B130F300A731AC278C31003A03197C
:1018E800762C772C812C410154187B2C7C2C7E2C57
:1018F800EB01EB0A5414D410B22C7F30F200B13053
:10190800F300A731AC278C31003A03198C2C8D2CAD
:10191800972C4101D418912C922C942CEB01EB0AB2
:101928005410D414B22C7E30F200B130F300A73139
:10193800AC278C31003A0319A22CA32CB22C4101FC
:101948005418A72CA82CAA2CEB01EB0AD418AD2C00
:10195800AE2CB02CEB01EB0A5414D4146A30F60008
:10196800A930F700A3315B238C314101541CBD2CF5
:10197800BE2CC22C4130A43123248C314101D41C0B
:10198800C62CC72CCB2C4230A43123248C311D30DB
:10199800F600A830F700A3315B238C314430F60001
:1019A800B030F700A3315B238C3141015108303E40
:1019B800A43123248C314A30F600B130F700A3312A
:1019C8005B238C3141015208303EA43123248C31F1
:1019D8001D30F600A830F700A3315B238C31842D2D
:1019E8006830F200B130F300A731AC278C31003AEF
:1019F8000319FF2C002D252D4101540E890C0139A6
:101A0800A33180238C314001A400A40EA40D410110
:101A1800540840012406DF3924064101D40022304D
:101A2800F600B030F700A3315B238C314101540E2E
:101A3800890C0139A031A8208C314101EB01EB0A56
:101A4800842D6D30F200B130F300A731AC278C3112
:101A5800003A0319302D312D502D4101540E013912
:101A6800A33180238C314001A400A40E4101540805
:101A780040012406EF3924064101D4001130F60054
:101A8800B030F700A3315B238C314101540E01398A
:101A9800A031A8208C31212D7230F200B130F30032
:101AA800A731AC278C31003A03195B2D5C2D812DB1
:101AB8004101540C890C0139A33180238C31400138
:101AC800A400A40DA40D4101540840012406FB39CB
:101AD80024064101D400CA30F600BF30F700A33114
:101AE8005B238C314101540C890C0139A031A820A9
:101AF8008C31AE31FB268C31842DA031BE208C3147
:101B0800080040013708D93EF6007608BD00B70145
:101B1800BB011E30F6007608BC003D08803A823EC4
:101B2800031C972D982D992D802EFD303D06031D01
:101B38009E2D9F2DA62DCC303602031CA42DA52D3D
:101B4800A62D802E32308600003087002030840099
:101B5800003085000930F60016001A00F60BB02D8B
:101B6800A43157248D314001203086000030870091
:101B780032308400003085000930F70016001A0062
:101B8800F70BC22D323086000030870020308400E9
:101B9800003085000930F60016001A00F60BD02D2B
:101BA800A531AA258D3140012030860000308700FC
:101BB800C7308400003085000930F70016001A008D
:101BC800F70BE22DC73086000030870020308400F4
:101BD800003085000930F60016001A00F60BF02DCB
:101BE800A531AA258D3140012030860000308700BC
:101BF800C7308400003085000930F70016001A004D
:101C0800F70B022E32308600003087002030840027
:101C1800003085000930F60016001A00F60B102E69
:101C2800C7308600003087002930840000308500E6
:101C38000930F70016001A00F70B1E2EA6313326BE
:101C48008D3140012030860000308700323084001A
:101C5800003085000930F80016001A00F80B302E05
:101C68000330F6007608BD07FF30F6007608BB079C
:101C7800371C3F2E402E752E3230860000308700EC
:101C880020308400003085000930F60016001A0064
:101C9800F60B4A2EA43157248D31C7308600003008
:101CA800870020308400003085000930F6001600D7
:101CB8001A00F60B5B2EA531AA258D314001203084
:101CC80086000030870032308400003085000930FB
:101CD800F70016001A00F70B6D2E0130F600760893
:101CE800BD07FF30F6007608BC073C08803A7F3E07
:101CF80003187F2E802E912DBD1B832E842E852EBA
:101D0800BB2E32308600003087002030840000303F
:101D180085000930F60016001A00F60B8F2EA43144
:101D280057248D31C730860000308700203084006A
:101D3800003085000930F60016001A00F60BA02EB8
:101D4800A531AA258D31400120308600003087005A
:101D580032308400003085000930F70016001A0080
:101D6800F70BB22E0130F6007608BD07802E37300B
:101D78008600003087003B08810008004101D41923
:101D8800C62EC72EC82EFF2F4201520851045004F8
:101D98004F040319D02ED12ED22EFF2FDF3086000C
:101DA800013087004231403F4001D300413FD40019
:101DB800423FD500433FD6004101541EE42EE52E94
:101DC800EE2E07304001D000D637D50CD40CD30CFA
:101DD800D00BE82E0A3042014D064E04031DF52EA5
:101DE800F62E422F44304001A9009A30A8001D3039
:101DF800A7002030A6005608F5005508F40054083E
:101E0800F3005308F200013093314D238E317508E9
:101E18004001AD007408AC007308AB007208AA005A
:101E28009F3175278E3103181A2F1B2F1C2FFF2F58
:101E380040015608F5005508F4005408F30053080B
:101E4800F200013093314D238E3175084001A9000D
:101E58007408A8007308A7007208A6004430AD00F3
:101E68009730AC000F30AB00E030AA009F317527E7
:101E78008E310318402F412F952FFF2F14304D0618
:101E88004E04031D482F492FFF2F45304001A9005C
:101E98001A30A8001D30A7002030A6005608F5000B
:101EA8005508F4005408F3005308F2000130933148
:101EB8004D238E3175084001AD007408AC007308DD
:101EC800AB007208AA009F3175278E3103186D2F59
:101ED8006E2F6F2FFF2F40015608F5005508F400AC
:101EE8005408F3005308F200013093314D238E312A
:101EF80075084001A9007408A8007308A7007208B3
:101F0800A6004530AD001730AC000F30AB00E03014
:101F1800AA009F3175278E310318932F942F952F80
:101F2800FF2F00304001D700CA30D8009A30D900BE
:101F38003B30DA00DB01DC015730860000308700D7
:101F480029308400003085000930D00016001A00BE
:101F5800D00BAA2F9C3160248E3140012930860095
:101F68000030870057308400003085000930D100E8
:101F780016001A00D10BBC2F4430860001308700B0
:101F880032308400003085000930D00016001A0075
:101F9800D00BCA2F57308600003087003B308400B2
:101FA800003085000930D10016001A00D10BD82F57
:101FB800893145218E31400132308600003087005A
:101FC80057308400003085000930D20016001A000E
:101FD800D20BEA2F57308600003087003B30840050
:101FE800003085000930D00016001A00D00BF82FF9
:101FF8009031DE208E31080040011A111912991211
:1020080019139A1399137B30F700770894050F304A
:10201800F700770893050330F8000830F7007730A9
:10202800890B1428F70B1428F80B142800003030FB
:10203800A331132390312F30F700C030890B2228A9
:10204800F70B22283030A331132390312F30F700BB
:10205800C030890B2D28F70B2D283030A3311323DE
:102068009031F0300032890B36282030A331132309
:1020780090312830AE31C22690310C30AE31C226B4
:102088009031AF31152790310630AE31C2269031EC
:10209800080000304201E9000030E8000030E700A5
:1020A8000030E6004101680803195B285C285D28B8
:1020B800DD284001A60141016908EC3E8600870140
:1020C8002530873D01084001A4002408A7000130FD
:1020D800A40024084101E9072D3040012706031D0B
:1020E800762877288C28FF30A4002408A600410110
:1020F8006908EC3E860087012530873D01084001CC
:10210800A4002408A7000130A40024084101E9071D
:10211800303040012702031C92289328C9283A30FE
:102128002702031898289928C9280030F50000309C
:10213800F4000030F3000A30F20042016908F900A7
:102148006808F8006708F7006608F600A4318B24D1
:10215800903175084201E9007408E8007308E70047
:102168007208E60040012708D03EA400FF3003189B
:102178000030A50024084201E60740012508420175
:10218800E73D0030E83DE93D7B28260A031DCD28C0
:10219800CE28DA284201E609E709E809E909E60A4A
:1021A8000319E70A0319E80A0319E90A013041018A
:1021B800E90208003B30860000308700293084009F
:1021C8000030850009304001C40016001A00C40B15
:1021D800E9289B31352390314001293086000030B1
:1021E80087003B308400003085000930C5001600A8
:1021F8001A00C50BFB283D08C4003E08C500C601EF
:10220800C7011030C435C50DC60DC70D890B062989
:102218003B08C8003C08C900CA01CB014808C407EC
:102228004908C53D4A08C63D4B08C73D4708CF0089
:102238004608CE004508CD004408CC000030CC0745
:102248003630CD3D6530CE3DC430CF3D08304101FC
:102258005306031D30293129422940014C08420107
:10226800D60240014D084201D73B40014E084201C9
:10227800D83B40014F084201D93B522940014C0844
:102288004201DA0240014D084201DB3B40014E08A1
:102298004201DC3B40014F084201DD3BFC30F600C7
:1022A800A830F700A3315B239031A131D2219031BE
:1022B80075084001B5007408B4007308B3007208CB
:1022C800B200A731082790311D30F600A830F7007A
:1022D800A3315B23903108004101541C74297529EE
:1022E8009429A131F12191314101E301A231F02278
:1022F8009131410159084201ED004101580842015C
:10230800EC003230860001308700C4308400013090
:10231800850009304001BD0016001A00BD0B902948
:102328004101D41C98299929B929A2311022913147
:102338004101E301E30AA231F02291314101590838
:102348004201EB00410158084201EA0032308600A0
:1023580001308700B2308400013085000930400127
:10236800BD0016001A00BD0BB5294101541EBD2938
:10237800BE29D429D41CC129C229D4299331FA23CE
:1023880091313230860001308700B230840001304C
:10239800850009304001BD0016001A00BD0BD02988
:1023A8004101541ED829D929062A541CDC29DD29C3
:1023B800062AC4308600013087003230840001309C
:1023C800850009304001BD0016001A00BD0BE82940
:1023D80042016D084101D90042016C084101D80051
:1023E8009331FA2391313230860001308700C430AE
:1023F80084000130850009304001BD0016001A0034
:10240800BD0B022A08004101D41E0B2A0C2A412ABE
:1024180064304201E2070030E33D0030E43D003023
:10242800E53DA231AD2292317208420162024001BB
:10243800BD0073084201633B4001BE0074084201BD
:10244800643B4001BF0075084201653B4001C00084
:10245800C01F2F2A302A792AA231AD229231323078
:1024680072074201E2000030733DE3000030743D22
:10247800E4000030753DE500792AE8304201E207C2
:102488000330E33D0030E43D0030E53DA231AD22AC
:1024980092317208420162024001BD007308420194
:1024A800633B4001BE0074084201643B4001BF0029
:1024B80075084201653B4001C000C01F642A652AB7
:1024C800792AA231AD229231B63072074201E20078
:1024D8000330733DE3000030743DE4000030753D87
:1024E800E500792A9A3173229231A231AD229231D4
:1024F8007208420162024001BD0073084201633B59
:102508004001BE0074084201643B4001BF007508E9
:102518004201653B4001C000C01BA12A4008031DC1
:10252800A02A3F08031DA02A3E08031DA02A013047
:102538003D020318A02AA12A762A0800F700770886
:10254800F30073084101DF001030F3007308F8004E
:102558005F0886000230870081010130F3007308AC
:10256800DF070130F802031DBA2ABB2AAC2A303033
:10257800F3007308F5000E30F3007308F6000E3010
:10258800F3007308F707DE014001AE1FCC2ACD2AFD
:10259800CF2A41015E1429308600003087002030A0
:1025A8008400003085000930F30016001A00F30B90
:1025B800D92AA431C124923140012030860000304C
:1025C800870029308400003085000930F4001600A7
:1025D8001A00F40BEB2A7708F30073084101DF00B7
:1025E80076080F3CF3007308F8005F088600023095
:1025F800870001355E07F3007308DE000A305E02CB
:10260800031C072B082B212B5E08F63EF3005F08FE
:10261800860002308700730881000130DF02DE0186
:10262800DE0A7803031D192B1A2B2C2B0130F60216
:102638000130F3007308F8072C2B5E08F3005F08DD
:10264800860002308700730881000130DF02DE0156
:102658000130F802031D312B322BF92A0130F50223
:10266800031D372B382BC72A0F30F3007308F800E7
:102678003030F3007708860002308700730881073E
:102688000130F7020130F802031D4B2B4C2B3C2B79
:1026980008004001A00020080319532B542B682B75
:1026A800F51F572B582B682B7209A2007309A3003A
:1026B8007409A4007509A500A20A0319A30A03193D
:1026C800A40A0319A50A702B7508A5007408A400AC
:1026D8007308A3007208A2007508740473047204D6
:1026E800031D772B782B812B0030F5000030F40088
:1026F8000030F3000030F200F92B9630F60076082F
:10270800A100912B0130F6007608A1070130A5360B
:10271800A40CA30CA20C890B8B2BFE302505031DE2
:10272800962B972B862BAB2B0130F6007608A1074A
:102738000130A2070030A33D0030A43D0030A53D84
:102748000130A536A40CA30CA20C890BA52BFF30D5
:102758002505031DB02BB12B982BBB2B0130A102F3
:102768000130A235A30DA40DA50D890BB52BA41B13
:10277800BE2BBF2BC52B023021020318C42BC52B3F
:10278800B22B2118C82BC92BD12BFF30A205FF3043
:10279800A3057F30A405FF30A5050310A10C21086F
:1027A800F600F701F801F9011830F635F70DF80DC4
:1027B800F90D890BD92B7608A2047708A3047808A9
:1027C800A4047908A50420080319EB2BEC2BF12BA2
:1027D800F51FEF2BF02BF12BA5172508F500240882
:1027E800F4002308F3002208F200080042016F08F1
:1027F800F3006E08F20041015908F5005808F4008A
:10280800A2312F22933173084101D9007208D800F0
:102818000830D936D80C890B0D2C420137084001F5
:10282800B60040308600013087003608810042013A
:1028380036084001B6003730860001308700360878
:102848008100420135084001B6003630860001306B
:10285800870036088100420134084001B60035304F
:1028680086000130870036088100420133084001A4
:10287800B6003430860001308700360881003330D6
:10288800860001308700420132088100B2013230EF
:102898008600013087002030840000308500093030
:1028A8004001B60016001A00B60B562CA531AA2511
:1028B8009331400120308600003087003230840098
:1028C800013085000930B70016001A00B70B682CD4
:1028D8004201B713401C712CB7173D3086000130F8
:1028E80087000030C03FC13FC23FC33F4101590884
:1028F8004201BC00410158084201BB003230860049
:102908000130870020308400003085000930400104
:10291800B60016001A00B60B8D2C3B30860001302D
:10292800870029308400003085000930B700160080
:102938001A00B70B9B2C98314E2093314001203060
:10294800860000308700323084000130850009306D
:10295800B80016001A00B80BAD2C08004101D419B4
:10296800B62CB72CB82C752D44304001A900C030C6
:10297800A800A430A7006830A6004D3086000130BA
:1029880087004231403FF200413FF300423FF400EC
:10299800433FF500003093314D23943175084001D1
:1029A800AD007408AC007308AB007208AA009F3130
:1029B800752794310318E12CE22CE32C752D4D304A
:1029C8008600013087004231403FF200413FF3006A
:1029D800423FF400433FF500003093314D239431DA
:1029E80075084001A9007408A8007308A7007208B8
:1029F800A6004430AD00BC30AC00D330AB00D830BA
:102A0800AA009F317527943103180B2D0C2D0D2D1D
:102A1800752D64304001D3000030D400D501D601B3
:102A2800D701D80153308600003087002930840050
:102A3800003085000930D00016001A00D00B202D78
:102A48009C31602494314001293086000030870091
:102A580053308400003085000930D10016001A0078
:102A6800D10B322D4430860001308700323084008B
:102A7800003085000930D00016001A00D00B402D18
:102A880053308600003087003B30840000308500DA
:102A98000930D10016001A00D10B4E2D893145217D
:102AA8009431400132308600003087005330840072
:102AB800003085000930D20016001A00D20B602DB4
:102AC80053308600003087003B308400003085009A
:102AD8000930D00016001A00D00B6E2D9031DE2080
:102AE80094310800CD3086000130870044308400DE
:102AF8000230850009304001A00016001A00A00B22
:102B0800812DC4308600013087003B3084000230BC
:102B180085000930A00016001A00A00B8F2DBB30CD
:102B28008600013087003230840002308500093089
:102B3800A00016001A00A00B9D2DB23086000130AF
:102B4800870029308400023085000930A000160073
:102B58001A00A00BAB2DA231CE229531CD308600C4
:102B68000130870040016F08A000A1012008F20091
:102B78002108F3000930F4000030F500A2312F22BB
:102B880095318D304001A2002730A300720822073A
:102B980084007308233D85000930A40016001A003C
:102BA800A40BD22DC4308600013087006F08A00026
:102BB800A1012008F2002108F3000930F4000030D8
:102BC800F500A2312F2295312A304001A20027308A
:102BD800A3007208220784007308233D850009308A
:102BE800A40016001A00A40BF52DBB308600013096
:102BF80087006F08A000A1012008F2002108F30057
:102C08000930F4000030F500A2312F229531C73089
:102C18004001A2002630A30072082207840073082E
:102C2800233D85000930A40016001A00A40B182EB5
:102C3800B2308600013087006F08A000A10120088B
:102C4800F2002108F3000930F4000030F500A23149
:102C58002F22953164304001A2002630A30072086B
:102C6800220784007308233D85000930A40016005C
:102C78001A00A40B3B2E08004E01121D442E452EAF
:102C8800D62E121141016308031D4B2E4C2E792EAE
:102C980046010D084301CE0046010C084301CD0052
:102CA80029308600013087004231403FCF00413F44
:102CB800D000423FD100433FD2004E01101C652E88
:102CC800662EA52E133043014E02883003194D029B
:102CD80003186F2E702EA52E0130CF070030D03D7F
:102CE8000030D13D0030D23DA52E460111084301E8
:102CF800BC00460110084301BB00A030860001302B
:102D080087004231403FBD00413FBE00423FBF0007
:102D1800433FC0004E01101E922E932EA52E133055
:102D280043013C02883003193B0203189C2E9D2E58
:102D3800A52E0130BD070030BE3D0030BF3D00303C
:102D4800C03D460115084201B3004601140842017E
:102D5800B20020308600013087004231403FB40085
:102D6800413FB500423FB600433FB7004E01101D3A
:102D7800BE2EBF2ED12E13304201330288300319E4
:102D880032020318C82EC92ED12E0130B4070030E4
:102D9800B53D0030B63D0030B73D0130F000700859
:102DA8004101E6004E018C1EDA2EDB2EF12E8C122C
:102DB8000130F00070084101DD0753085D02031C73
:102DC800E62EE72EF12EDD0101304201DE0700304C
:102DD800DF3D0030E03D0030E13D4E01101CF52E96
:102DE800F62E002F101001304201AB070030AC3D29
:102DF8000030AD3D0030AE3D4E01101D042F052FB3
:102E08000F2F101101304201A2070030A33D0030FE
:102E1800A43D0030A53D4E01101E132F142F1E2F68
:102E2800101201304301A2070030A33D0030A43D39
:102E38000030A53D0800400157084101AA004001A3
:102E480056084101A90040015608DF005708E00074
:102E58005808E1005908E2001030E300E237E10CBD
:102E6800E00CDF0CE30B322F60084101AC0040019D
:102E78005F084101AB00AC1F422F432F482FFF30A2
:102E8800AD00FF30AE004A2FAD01AE010030A0000A
:102E9800CA30A1009A30A2003B30A300A401A501CA
:102EA800A93086000030870020308400003085007B
:102EB80009304001DF0016001A00DF0B5F2FA03039
:102EC80086000030870029308400003085000930F2
:102ED800E00016001A00E00B6D2FA631332697315B
:102EE80040012030860000308700A930840000307F
:102EF80085000930E10016001A00E10B7F2FA03091
:102F080086000030870029308400003085000930B1
:102F1800DF0016001A00DF0B8D2F9C3160249731DB
:102F280040012930860000308700A030840000303E
:102F380085000930E00016001A00E00B9F2FA93029
:102F48008600003087002930840000308500093071
:102F5800DF0016001A00DF0BAD2F9C31602497317B
:102F680040012930860000308700A93084000030F5
:102F780085000930E00016001A00E00BBF2FA930C9
:102F88008600003087003630840000308500093024
:102F9800DF0016001A00DF0BCD2FA03086000030AE
:102FA80087003F308400003085000930E0001600BB
:102FB8001A00E00BDB2F8B31332397314001363079
:102FC800860000308700A930840000308500093071
:102FD800E10016001A00E10BED2FA9308600003041
:102FE800870056308400003085000930DF00160065
:102FF8001A00DF0BFB2F080052011F129F17080051
:10300800AF315927983140011A137E01A601AF311B
:103018004B2798314001A101A201A301AF313D27FF
:10302800983140011A171A13AF317727983172086F
:103038004001A1077308A23D0130A0002008A307A2
:1030480004302302031C29282A2812280230A10749
:103058000030A23D0230A236A10C890B2F28AF31D7
:103068005927983104307E01A600AF314B2798319B
:1030780040012208F3002108F2000030F4008030FB
:10308800F500A5313025983173084201EF00720828
:10309800EE00080040012B082202B2002C08233B56
:1030A800B3002D08243BB4002E08253BB500350895
:1030B8004101CC00400134084101CB0040013308F4
:1030C8004101CA00400132084101C90040012A08F3
:1030D8002102031D71282908200203187428752865
:1030E8008C280130B2000030B3000030B40000304A
:1030F800B50032084101C902400133084101CA3B09
:10310800400134084101CB3B400135084101CC3B2B
:103118004001290820024101C70040012A08213B3B
:103128004101C800C7308600003087002030840085
:103138000030850009304001B20016001A00B20BB9
:10314800A1280800A0310C209831A0311F20983107
:10315800A031322098319831042098319131702172
:1031680098314101E5014001EF01CD308600013081
:1031780087008D308400273085000930BE00160096
:103188001A00BE0BC328BB30860001308700C73049
:103198008400263085000930BE0016001A00BE0BD8
:1031A800D128C4308600013087002A3084002730B7
:1031B80085000930BE0016001A00BE0BDF28B230A9
:1031C800860001308700643084002630850009308D
:1031D800BE0016001A00BE0BED28A231AD229831B0
:1031E80075084201E5007408E4007308E3007208FA
:1031F800E20008004E018F1E0229032932298F128E
:1032080042011908F00070084101DA0077307B02AA
:10321800031C0F2910291B296330860026308700DC
:103228000A3081000130F0007008EA0732297B0873
:10323800EC3EF000F1012530F13D70088600710880
:1032480087005A0881000130F0007008FB070A3037
:103258005A06031D30293129322916294E010F1E1D
:103268003629372956290F127A0841015B060319B6
:103278003E293F2954297A08F23E860087012430E6
:10328800873D010842019A000130F0007008FA07F2
:10329800FA307A06031D512952295629FA0156296E
:1032A8004E01191208004101E701680803195D2958
:1032B8005E296329B2290130A5316C259931EC309A
:1032C8008600253087002030010603196C296D29F6
:1032D8005F294101E801E9016908EC3E86008701A0
:1032E8002530873D01084001A0002008F800013082
:1032F800A00020084101E907203078060319852934
:10330800862998290930780603198B298C29982948
:103318000A30780603199129922998290D307806E0
:10332800031D9729982970290A307806031D9D29BD
:103338009E29A029E801E80A69084001A000A10126
:10334800EB30A2002530A3002008220786002108C0
:10335800233D870081014101E701E70A0800400198
:10336800A101F31FB829B929C029F209F309F20A02
:103378000319F30AA101A10AF51FC329C429CD29FC
:10338800F409F509F40A0319F50A0130F60076087C
:10339800A106A201A301720873040319D429D5292F
:1033A800042AA001A00AE1290130F235F30D890BA6
:1033B800D9290130F6007608A007F31FE429E5298A
:1033C800D8290130A235A30D890BE62973087502A7
:1033D800031DF02972087402031CF329F429F92942
:1033E8007208F4027308F53B22140130F336F20C2C
:1033F800890BFA290130A002031D032A042AE529B2
:1034080021080319082A092A0E2AA209A309A20ACF
:103418000319A30A2308F3002208F2000800410157
:103428006008F3390438E000423086000030870035
:10343800323084000030850009304001CC0016008D
:103448001A00CC0B232A8D3185259A314001323060
:103458008600003087004230840000308500093043
:10346800CD0016001A00CD0B352A4B08CC004C08AD
:10347800B2004230860000308700333084000030CC
:1034880085000930CD0016001A00CD0B472A4D30B3
:10349800863152269A31363044014D02031C552A92
:1034A800562A6E2A40014B08FF3ECC004C08B20059
:1034B80042308600003087003330840000308500B9
:1034C8000930CD0016001A00CD0B662A4D30863122
:1034D80052269A314D30A13118219A310800410104
:1034E8006A08031D782A792A7A2AD32A993157211A
:1034F8009A310930F200B130F300A731AC279A3184
:10350800003A0319882A892A8D2AA331A5239A31DA
:10351800D02A7A30F200B130F300A731AC279A31C3
:10352800003A0319982A992A9D2A8A3137229A3112
:10353800D02A4430F200B130F300A731AC279A31D9
:10354800003A0319A82AA92AAD2A8C3153249A31A2
:10355800D02A1F30F200B130F300A731AC279A31DE
:10356800003A0319B82AB92ABD2A883159209A3154
:10357800D02A3E30F200B130F300A731AC279A319F
:10358800003A0319C82AC92ACD2AAE31A4269A318D
:10359800D02AA031BE209A31A1317E219A3108006B
:1035A800F3304101E00542308600003087003230B8
:1035B80084000030850009304001CC0016001A0054
:1035C800CC0BE22A8D3185259A31400132308600B4
:1035D8000030870042308400003085000930CD007B
:1035E80016001A00CD0BF42A4B08CC004C08B20088
:1035F8004230860000308700333084000030850078
:103608000930CD0016001A00CD0B062B4D3086313F
:1036180052269A31363044014D02031C142B152BC7
:103628002D2B40014B08FF3ECC004C08B200423025
:103638008600003087003330840000308500093070
:10364800CD0016001A00CD0B252B4D3086315226A1
:103658009A314D30F6000230F700A33136239A3103
:10366800080040012E08D93EF6007608F800AE01A1
:10367800F81B3F2B402B6B2B612B29308600003029
:10368800870020308400003085000930F6001600DD
:103698001A00F60B4B2BA431C1249B31400120307A
:1036A800860000308700293084000030850009300A
:1036B800F70016001A00F70B5D2BFF30F6007608AE
:1036C800F807780A031D692B6A2B412B972BF809F9
:1036D800F80A8E2B293086000030870020308400BD
:1036E800003085000930F60016001A00F60B782B1A
:1036F800A531AA259B314001203086000030870083
:1037080029308400003085000930F70016001A00BF
:10371800F70B8A2BFF30F6007608F807780A031DA6
:10372800962B972B6E2B0800CD3086000130870032
:10373800203084000030850009304001B6001600B2
:103748001A00B60BA32B44308600023087002930BC
:103758008400003085000930B70016001A00B70B46
:10376800B12B98314E209B3140012030860000302B
:1037780087004D308400013085000930B8001600FC
:103788001A00B80BC32B410151089E3180269B318A
:10379800C430860001308700203084000030850066
:1037A80009304001B60016001A00B60BD72B3B3083
:1037B80086000230870029308400003085000930F7
:1037C800B70016001A00B70BE52B98314E209B3135
:1037D80040012030860000308700DF30840001304F
:1037E80085000930B80016001A00B80BF72B08003E
:1037F800BB3086000130870020308400003085000F
:1038080009304001B60016001A00B60B072C3230FA
:103818008600023087002930840000308500093096
:10382800B70016001A00B70B152C98314E209B31A3
:10383800400120308600003087004D308400013080
:1038480085000930B80016001A00B80B272C410172
:1038580052089E3180269B31B230860001308700A5
:10386800203084000030850009304001B600160081
:103878001A00B60B3B2C293086000230870029300D
:103888008400003085000930B70016001A00B70B15
:10389800492C98314E209B31400120308600003061
:1038A8008700DF308400013085000930B800160039
:1038B8001A00B80B5B2C08002F30F3007308F500D2
:1038C8002F30F3007308F6004001AE1F6C2C6D2CEE
:1038D8006E2C9D2C29308600003087002030840013
:1038E800003085000930F30016001A00F30B782C1D
:1038F800A431C1249C31400120308600003087006B
:1039080029308400003085000930F40016001A00C0
:10391800F40B8A2CFF30F3007308F507FF30F3002F
:103928007308F6077608803A7F3E03189C2C9D2C76
:10393800682C2A08F3007308A9002B08F3002A3022
:10394800860000308700730881002C08F3002B30B4
:10395800860000308700730881002D08F3002C30A2
:10396800860000308700730881002E08F3002D3090
:10397800860000308700730881002E3086000030F2
:10398800870075088100080040012108F50020081B
:10399800F4002308F7002208F600A0316B209C31C0
:1039A80001304001A0070030A13D2108F5002008A2
:1039B800F4002208A6002308A7002408A800250868
:1039C800A9000830A936A80CA70CA60C890BE62C70
:1039D8002708F7002608F600A0316B209C3101303B
:1039E8004001A0070030A13D2108F5002008F4009F
:1039F8002208A6002308A7002408A8002508A90073
:103A08001030A936A80CA70CA60C890B052D270881
:103A1800F7002608F600A0316B209C3101304001E8
:103A2800A0070030A13D2108F5002008F400220875
:103A3800A6002308A7002408A8002508A900183014
:103A4800A936A80CA70CA60C890B242D2708F7006B
:103A58002608F600A0316B209C3108000830400190
:103A6800EE006E084101D300A13130219D31A03113
:103A78007F209D31A031D4209D318731E3279D31AE
:103A8800903100209D31A131B5219D31AF310827FA
:103A98009D31983100209D318B17923107229D313D
:103AA800A331A5239D31D030F600B030F700A13105
:103AB80001219D31AE3199269D31AE3195269D313A
:103AC800A03145209D319D31A0259D319E31102684
:103AD8009D31923107229D31A631BF269D3141018A
:103AE8006B03031D782D792D852DEB011030F60021
:103AF800A930F700A3315B239D319831A6209D3171
:103B0800672D953176259D31983104209D3191316D
:103B180070219D3180315C209D31823180229D3120
:103B2800AE31E4269D318E31C2269D319431B224C6
:103B38009D31672D80310E2845018E018F01FF30A0
:103B48008D0090010E088F3950388E00AF315927FB
:103B58009D3115307D019C00AF314B279D314501CA
:103B68008C010B084001BF003F08C0008B134501C2
:103B78008E17A0300032890BBE2D45018E134001EF
:103B880040088B00023045010C020318CC2DCD2DC6
:103B9800E12D023041015106031DD32DD42DE12D15
:103BA800AE31D2269D312230F600A930F700A3317C
:103BB8005B239D319831A6209D310B3045010C02C5
:103BC800031CE72DE82DFB2D41015103031DED2DAD
:103BD800EE2DFB2DA031EA209D314630F600A930AC
:103BE800F700A3315B239D319831A6209D313030F9
:103BF80045010C02031C012E022E0D2E4101E2018B
:103C0800E20A7130F600A830F700A3315B239D313A
:103C18000F2E4101E201080045018E018F01FF309E
:103C28008D0090010E088F3950388E00AF3159271A
:103C38009E3114307D019C00AF314B279E314501E8
:103C48008C010B084001BF003F08C0008B134501E1
:103C58008E17A0300032890B2E2E45018E1340019D
:103C680040088B00023045010C0203183C2E3D2E03
:103C7800512E023041015206031D432E442E512E6F
:103C8800AE31DB269E313430F600A930F700A3317F
:103C98005B239E319831A6209E310B3045010C02E2
:103CA800031C572E582E6B2E41015203031D5D2E07
:103CB8005E2E6B2EA03193209E315830F600A9302D
:103CC800F700A3315B239E319831A6209E31303016
:103CD80045010C02031C712E722E7D2E4101E1015B
:103CE800E10A8A30F600A830F700A3315B239E3141
:103CF8007F2E4101E1010800F50002307502031C26
:103D0800862E872EA72E4D30860001308700203062
:103D18008400003085000930F30016001A00F30B08
:103D2800912EA431C1249E314001203086000030FC
:103D380087004D308400013085000930F4001600FA
:103D48001A00F40BA32E04307502031CAC2EAD2E02
:103D5800CD2E4D30860001308700203084000030A1
:103D680085000930F30016001A00F30BB72EA431B2
:103D7800C1249E31400120308600003087004D303C
:103D88008400013085000930F40016001A00F40B95
:103D9800C92E08307506031DD22ED32EF32E4D30B2
:103DA800860001308700203084000030850009300B
:103DB800F30016001A00F30BDD2EA431C1249E3146
:103DC800400120308600003087004D3084000130EB
:103DD80085000930F40016001A00F40BEF2E0800D5
:103DE800F4007408F3007308F600FE2E0130F300A7
:103DF8007308F6077608860002308700303001061F
:103E08000319072F082FFA2E7208F3007308F5001C
:103E18007508803A7F3E0318122F132F142F2D2F69
:103E280076088600023087000108031D1C2F1D2F0D
:103E38001E2F2D2F0130F3007308F607FF30F30013
:103E48007308F5077508803A7F3E03182C2F2D2F2D
:103E5800142F7608860002308700353001020318D7
:103E6800362F372F3D2F76088600023087008101D4
:103E7800742F760886000230870081017208F300EB
:103E88007308F50076087406031D4B2F4C2F4D2F31
:103E9800742F0130F602FF30F3007308F507760837
:103EA8008600023087003930010203185C2F5D2F2D
:103EB8006B2F76088600023087000108013EF30068
:103EC800760886000230870073088100742F30302E
:103ED800F300760886000230870073088100462FB9
:103EE8000800003040012605AE0000302705AF006D
:103EF80080302805B0007F302905B1003108300432
:103F08002F042E04031D892F8A2F922F0030A90019
:103F18000030A8000030A7000030A60000302A05B5
:103F2800AE0000302B05AF0080302C05B0007F308C
:103F38002D05B100310830042F042E04031DA52FD0
:103F4800A62FAE2F0030AD000030AC000030AB0023
:103F58000030AA00A91FB12FB22FCA2F0030AE001F
:103F68000030AF000030B0008030B1002608AE024B
:103F78002708AF3B2808B03B2908B13B3108A90006
:103F88003008A8002F08A7002E08A600AD1FCD2FC7
:103F9800CE2FE62F0030AE000030AF000030B0006A
:103FA8008030B1002A08AE022B08AF3B2C08B03B8A
:103FB8002D08B13B3108AD003008AC002F08AB002C
:103FC8002E08AA008030A9068030AD062D082902E7
:103FD800031DF82F2C082802031DF82F2B08270291
:103FE800031DF82F2A0826020318FB2FFC2FFE2F8B
:103FF8000310FF2F03140800FE0012001E000130FA
:10400800FE020030FF3B7F087E04031D01280034B8
:104018000D30440191008E148D018C014201A901DB
:10402800AA01AB01AC01AD01AE0144010E144E0171
:1040380010101A14080001304401970094149301D9
:1040480092014201A001A101A201A301A401A501BD
:10405800440114144E0110111A1508000E304401C1
:104068009D009A14990198014301A001A101A201A0
:10407800A301A401A50144011A144E0110121A1635
:104088000800AF31DC27A031AF31EE27A031AF31C6
:104098006727A031A331F523A031AF310827A0311C
:1040A8009831A620A03108004001191200320032D0
:1040B800003200324001191600320032003200325C
:1040C80040011912E0300032890B672808005001BE
:1040D8001E151E139E167508F3007408F200AF3102
:1040E800CA27A031770850019D0076089C00AF319F
:1040F8008727A0310800AF315927A031AF312227D7
:10410800A03115307D01BC001430BD0004307E01A3
:10411800A60040011413AF314B27A031080002302C
:10412800F20072084101D20086307C019A000A3000
:104138009B0002309C009D019E019F010230A0005F
:10414800A101A201A3010800F9007908031DAD2807
:10415800AE28B6284F30F600B130F700A3315B2304
:10416800A031BD288430F600BF30F700A3315B23AF
:10417800A0310800E830F600A830F700A3315B232F
:10418800A031EC30F6002530F700A3313623A031FA
:104198001D30F600A830F700A3315B23A0310800DA
:1041A800A1319921A031903042019D0026309E0016
:1041B8004101DC01FB01EA01FA01DB0142019E1425
:1041C8004E010F1619128F12991608000230F200CC
:1041D80072084101D10086307C0190000A309100BC
:1041E800AE31FB26A0317C01930194019501023088
:1041F800960097019801990108000E297608840015
:10420800770885000008AE31CA26A1310130F607CB
:104218000030F73D76088400770885001200031DFA
:104228001629172902290800F70026297708860089
:10423800023087000108AE31CA26A1310130F600EC
:104248007608F70777088600023087000108031D03
:104258002E292F291A2908008B0150010C107E01E4
:10426800B801C301CE014001980199019A01FF30BC
:104278009200FF309300FF3094007E01B901C40121
:10428800CF01B9150B178B130800323086000030A8
:10429800870029308400003085000930F9001600B5
:1042A8001A00F90B53294D309231A222A1314D3019
:1042B800F6000230F700A3313623A1310800083098
:1042C80041015306031D69296A29742942016908B5
:1042D800D9006808D8006708D7006608D6007D2985
:1042E80042016908DD006808DC006708DB00660831
:1042F800DA00080041016808031D832984299129EF
:104308006908E90AEC3E860087012530873D0A30B6
:104318000106031D902991298429AE31B226A131C5
:104328004101E8010130EA02080008304101530662
:10433800031D9F29A029A629003042019C00453071
:104348009B00B12905305306031DAB29AC29B129BF
:10435800003042019C002B309B0042011E159F1526
:104368000800AF319727A13142011108F339043809
:10437800910011121F3098000F3096051608F03979
:104388000338960052018C178C1203308C040C1FD2
:10439800CE29CF29CB2942019117080008304101C5
:1043A8005306031DD829D929E32942015908F500E4
:1043B8005808F4005708F3005608F200F0290430B2
:1043C800563E860001308700403FF200413FF3002F
:1043D800423FF400433FF500080084307C01A4000C
:1043E800A5012030A600A701A801A9010230AA0052
:1043F800AB01AC01AD018430AE000230AF00223019
:10440800B0001430B100B201B3010230B400B501FC
:104418000830B600B701080084307C01A400A5016B
:104428002130A600A701A801A9010230AA00AB010A
:10443800AC01AD018430AE000230AF002230B000D4
:104448001530B100B201B3010230B400B501083033
:10445800B600B7010800F601F701721C342A352AA4
:10446800392A7408F6077508F73D0130F435F50D5B
:10447800890B3A2A0130F336F20C890B3F2A72086D
:104488007304031D482A492A312A7708F30076085D
:10449800F2000800F4007B30F30073084001940533
:1044A8000F30F300730893057408A3311323A23166
:1044B8007408F3000330F335FF3E031D5F2A73359C
:1044C800A3311323A2314001991219139A13991396
:1044D80008000F30AE31AB26A23141016408031D3C
:1044E800762A772A822A8430F600B130F700A13183
:1044F8000121A2314101E401E40A8B2A2A30F600A5
:10450800B130F700A1310121A2314101E4010800D5
:104518008030F6003F30F700A531EE25A23179084A
:104528004201D9007808D8007708D7007608D60065
:104538008830F6003F30F700A531EE25A231790822
:104548004201DD007808DC007708DB007608DA0035
:1045580008000B08F60076084001A4008B134201FE
:1045680061084001A300420160084001A200420125
:104578005F084001A10042015E084001A000240834
:104588008B002308F5002208F4002108F300200816
:10459800F20008000130F20072084001EF070B300A
:1045A8006F06031DD82AD92ADA2AEF0141016508C6
:1045B80040016F06031DE12AE22AE72A0130F200D2
:1045C80072084101E5070B3041016506031DED2A1C
:1045D800EE2AEF2AE5010800AF313D27A23141015B
:1045E800E6017C012511A514FC2A9A317322A23117
:1045F800410166080319012B022BF92A7C012515B4
:10460800A5104101541E092B0A2B122BAF31772715
:10461800A23173084101D9007208D8000800F200DD
:10462800721E172B182B1B2B400199161D2B4001AE
:104638009912F21E202B212B232B1917242B191327
:10464800721F272B282B2A2B9A172B2B9A13F21F12
:104658002E2B2F2B312B9917322B9913A031582041
:10466800A3310800512B76088600770887000A30A6
:104678000106031D402B412B452B0D30A43123246B
:10468800A33176088600770887000108A43123241F
:10469800A3310130F6070030F73D76088600770829
:1046A80087000108031D592B5A2B372B0800762B3E
:1046B800760884007708850012000A3A031D652BE6
:1046C800662B6A2B0D30A4312324A331760884008D
:1046D800770885000008A4312324A3310130F607A8
:1046E8000030F73D76088400770885001200031D26
:1046F8007E2B7F2B5C2B0800F900AE31B226A3314C
:1047080099315721A3310E30F200B130F300A731AF
:10471800AC27A331003A0319922B932B952B013028
:10472800A42B7630F200B130F300A731AC27A331C7
:10473800003A0319A02BA12BA32B0030A42B790836
:1047480008001F30F600A830F700A3315B23A3311F
:104758008D30F600B030F700A3315B23A3317330FE
:10476800F600B030F700A3315B23A3318C30F6009C
:10477800BF30F700A3315B23A3310030F600A83027
:10478800F700A3315B23A331AE31BA26A331080069
:10479800083041015306031DD22BD32BE42B803064
:1047A800F6003F30F700A531EE25A3317908400126
:1047B800A8007808A7007708A6007608A500F42BBB
:1047C8008830F6003F30F700A531EE25A33179088F
:1047D8004001A8007808A7007708A6007608A50079
:1047E80008004101D41154165414D4105411D41291
:1047F8005413D4135510D5105511D5158030F60023
:104808003F30F700A531EE25A33179084201D900E0
:104818007808D8007708D7007608D6008430F600E4
:104828003F30F700A531EE25A33179084201DD00BC
:104838007808DC007708DB007608DA000800F40066
:104848000B08F2007208F5008B1341015B08F23E79
:10485800F200F3012430F33D7208860073088700E4
:10486800740881000130F2007208DB07FA305B0639
:10487800031D3F2C402C412CDB015B087A06031DED
:10488800462C472C4B2C0130F2007208FA07FA30FC
:104898007A06031D502C512C522CFA0175088B00F6
:1048A8004E011916080040012008013E4101C700C9
:1048B80000304001213D4101C80020308600003011
:1048C80087004231403FC900413FCA00423FCB0008
:1048D800433FCC0047084804031D732C742C7C2CE0
:1048E8000130C9070030CA3D0030CB3D0030CC3D17
:1048F800C7308600003087002030840000308500F3
:104908000930F20016001A00F20B862C080000305D
:104918004001A3000030A2000030A1000030A00038
:10492800721C972C982CA12C76084001A0077708B8
:10493800A13D7808A23D7908A33D0130F635F70D71
:10494800F80DF90D890BA22C0130F536F40CF30C97
:10495800F20C890BA92C7508740473047204031DE6
:10496800B62CB72C942C40012308F5002208F4003B
:104978002108F3002008F2000800410160104001FE
:10498800A51FC72CC82CCA2C410160144001223530
:104998004101C9004001230D4101CA004001240D15
:1049A8004101CB004001250D4101CC004001A11F70
:1049B800DE2CDF2CE12C4101491440012035410156
:1049C800C7004001210D4101C800C73086000030F2
:1049D800870020308400003085000930F20016007E
:1049E8001A00F20BF32C08008030F4003F30F50079
:1049F800AF31A827A43180304001A0003F30A1008A
:104A0800420159084001A500420158084001A4008C
:104A1800420157084001A300420156084001A20084
:104A28009C31C824A43188304001A0003F30A10047
:104A38000430563E860001308700403FA200413FC7
:104A4800A300423FA400433FA5009C31C824A431E1
:104A5800AE319E26A4310800F701F80172087304EC
:104A68000319372D382D672DF901F90A442D013026
:104A7800F235F30D890B3C2D0130F6007608F90765
:104A8800F31F472D482D3B2D0130F735F80D890BC5
:104A9800492D73087502031D532D72087402031CF7
:104AA800562D572D5C2D7208F4027308F53B7714C8
:104AB8000130F336F20C890B5D2D0130F902031D2C
:104AC800662D672D482D7808F3007708F200080056
:104AD800F5008B137B080319722D732D792D7B0834
:104AE8007502031C782D792D7C2DFB018B17A92DC0
:104AF800F6017508F2007208F7009E2D7708EC3E63
:104B0800860087012530873D0108F2007608EC3ED3
:104B1800F300F4012530F43D73088600740887001B
:104B2800720881000130F2007208F7070130F200C4
:104B38007208F6077B087702031CA32DA42D822D8B
:104B48007608F2007208FB008B170800410160101C
:104B58004001201CB02DB12DB32D4101601440013E
:104B68002108F3002008F200F336F20C7208410124
:104B7800C7007308C8004001221CC32DC42DC62DD0
:104B88004101C81740012208F2002308F300240855
:104B9800F4002508F5000130F536F40CF30CF20C9E
:104BA800890BD02D75084101CC007408CB0073081F
:104BB800CA007208C900C73086000030870020305C
:104BC8008400003085000930F20016001A00F20B4C
:104BD800E92D08007708F5007608F400AF312F2793
:104BE800A53174084001A0002008A1000130F60793
:104BF8000030F73D7708F5007608F400AF312F272D
:104C0800A53174084001A0002008A2000130F60771
:104C18000030F73D7708F5007608F400AF312F270C
:104C2800A53174084001A0002008A3000130F60750
:104C38000030F73D7708F5007608F400AF312F27EC
:104C4800A53174084001A0002008A4002408F90038
:104C58002308F8002208F7002108F60008004001A0
:104C680022082B07F20023082C3DF30024082D3DD1
:104C7800F40025082E3DF50075084101CC007408A4
:104C8800CB007308CA007208C90040012908200730
:104C98004101C70040012A08213D4101C8004001E7
:104CA800210841014802031D5D2E400120084101F1
:104CB80047020318602E612E692E0130C9070030A3
:104CC800CA3D0030CB3D0030CC3DC73086000030B7
:104CD800870020308400003085000930F20016007B
:104CE8001A00F20B732E0800400125082E02031D3E
:104CF8007F2E24082D020318822E832E852E013044
:104D0800BE2E2E082502031D8B2E2D082402031803
:104D18008E2E8F2E912EFF30BE2E23082C02031DBF
:104D2800972E22082B0203189A2E9B2E9C2E832E38
:104D38002C082302031DA22E2B0822020318A52EDD
:104D4800A62EA72E8F2E21082A02031DAD2E20087D
:104D580029020318B02EB12EB22E832E2A08210262
:104D6800031DB82E290820020318BB2EBC2EBD2E09
:104D78008F2E0030080045018E018F018C01FF3015
:104D88008D00053090008F308E050B08F2007208F8
:104D9800F3008B138E17A0300032890BD02E4501FB
:104DA8008E1373088B0041300C020318DC2EDD2EA5
:104DB800EA2E053041015306031DE32EE42EEA2EA8
:104DC8000830F2007208D300EB01EB0A42304501CB
:104DD8000C02031CF02EF12EFE2E08304101530662
:104DE800031DF72EF82EFE2E0530F2007208D300B0
:104DF800EB01EB0A41016B080319032F042F072F5E
:104E0800A1319921A63108004001B51F0C2F0D2FA3
:104E18001D2F2D30A4312324A7314001B209B30935
:104E2800B409B509B20A0319B30A0319B40A031974
:104E3800B50A33084101C800400132084101C700E2
:104E480040013208B6003308B7003408B800350806
:104E5800B9001030BA00B937B80CB70CB60CBA0B99
:104E68002F2F37084101CA00400136084101C90007
:104E7800CB01CC01C7308600003087002930840080
:104E88000030850009304001B60016001A00B60B44
:104E9800492F4D309231A222A7315230F60002300C
:104EA800F700A3313623A7310800F801F51F5D2F5D
:104EB8005E2F652FF409F509F40A0319F50AF801BC
:104EC800F80AF31F682F692F6E2FF209F309F20A07
:104ED8000319F30A720873040319732F742F9D2F93
:104EE800F701F70A802F0130F235F30D890B782F7F
:104EF8000130F6007608F707F31F832F842F772FEA
:104F080073087502031D8A2F72087402031C8D2F03
:104F18008E2F922F7208F4027308F53B0130F33696
:104F2800F20C890B932F0130F702031D9C2F9D2F44
:104F3800842F78080319A12FA22FA72FF409F509A8
:104F4800F40A0319F50A7508F3007408F20008005A
:104F580041016708031DB12FB22FB42F0030FF2F76
:104F680025304001A100EC30A0007308F50072085C
:104F7800F400F20A0319F30A74088400750885001E
:104F88000008F6002108F8002008F700A00A031915
:104F9800A10A7708860078088700010876060319B1
:104FA800D62FD72FD82FB22F2008860021088700A8
:104FB8000108031DE02FE12FEC2F7208840073080D
:104FC80085001200031DE92FEA2FEC2F0130FF2F77
:104FD800200886002108870001080319F42FF52FFF
:104FE800B22F72088400730885001200031DFD2F7C
:104FF800FE2FB92FB22F08002334203443346F34E6
:105008006E3474346134633474343A342034703414
:1050180069346334753469346E346F3440346734BA
:105028006D34613469346C342E3463346F346D34C8
:105038000A340A3400340A342334203450346934AE
:105048006334753469346E346F34203446347234C2
:1050580065347134753465346E346334793420348E
:1050680043346F3475346E347434653472340A34AE
:105078000034233420344F346C34643420344334C3
:1050880061346C3469346234723461347434693430
:105098006F346E3420342834523441344D3429343A
:1050A8003D34093400340A343E344E3465347734A0
:1050B8002034433461346C3469346234723461347A
:1050C800743469346F346E342034283452344134A3
:1050D8004D3429343D3409340034233420344F34DA
:1050E8007634653472342034723461346E34673403
:1050F8006534203461347434203469346E34703447
:1051080075347434203441340A3400342334203460
:105118004F347634653472342034723461346E34EA
:1051280067346534203461347434203469346E341F
:10513800703475347434203442340A3400342334DF
:1051480020345034723469346E34743420346C34FE
:105158006F346E3467342034663472346534713495
:10516800753465346E34633479343D34093400342D
:1051780023342034433461346C34693462347234F7
:105188006134743469346F346E34203428344534CF
:10519800503452344F344D3429343D3409340034BA
:1051A800233420344134753474346F3463346134B7
:1051B8006C346934623472346134743469346F34F1
:1051C8006E343D34093400342334203455346E347D
:1051D8006B346E346F3477346E34203463346F3408
:1051E8006D346D3461346E3464343A3420340034B0
:1051F800233420344E3465347734203463346134B6
:105208006C346934623472346134743469346F34A0
:105218006E343D3409340034233420345234653438
:10522800733465347434203463346F3475346E34B5
:1052380074346534723473340A34003423342034BB
:105248005034723465347334633461346C34653487
:105258007234203441343D34093431340A34003452
:1052680023342034503472346534733463346134F5
:105278006C3465347234203442343D34093431346A
:105288000A3400342334203450347234653473348F
:10529800633461346C3465347234203441343D34C1
:1052A800093432340A34003423342034503472340C
:1052B80065347334633461346C3465347234203447
:1052C80042343D34093432340A340034233420342F
:1052D8004134633474346934763465342034493461
:1052E8006E3470347534743473343D340934003496
:105D2A00A2318C22AE3108004101E901E801E70104
:105D3A00080050019E12AF318727AE310800A33107
:105D4A00F523AE314101EB01EB0A0800F6007608B3
:105D5A00803EAE31C226AE31080041016908A53144
:105D6A006C25AE314101E90108007A0841015B0660
:105D7A00031DC02EC12EBA2E0800F50040011A11CB
:105D8A007508A2314E22AE310800F50040011A15FD
:105D9A007508A2314E22AE3108004101D101D10A63
:105DAA0080307C0190000230910008004101D2014C
:105DBA00D20A80307C019A0002309B0008001D3014
:105DCA00F600A830F700A3315B23AE31A2316D2271
:105DDA00AE3108006400800101310130FE0200305A
:105DEA00FF3B7F087E04031DF02E00344101541D41
:105DFA00FF2E002F042F1D307C019200072F013047
:105E0A007C0192000800A031EA20AF31A031932032
:105E1A00AF31AE31D226AF31AE31DB26AF31080019
:105E2A000130AE31C226AF311530F600C630890BCB
:105E3A001C2FF60B1C2F003208000F307E01A00029
:105E4A004001141011307D01CB00400194147E01F1
:105E5A00CF1408007508F3007408F200AF31CA279E
:105E6A00AF3150011E141D08F5001C08F40008008B
:105E7A007E01CE11400194119A111A30890B432FD9
:105E8A000032400194157E01CE1508000B08F2007D
:105E9A007208F3008B1355307D018F00AA308F00F2
:105EAA000F1473088B0008000B08F2007208F30045
:105EBA008B1355307D018F00AA308F000F107308A5
:105ECA008B00080046011208F039053892000630A6
:105EDA0093000C3044019E04460192174E01921021
:105EEA009C1008001A30890B782F003242011114D5
:105EFA001118802F812F7D2F41011E08F3001D08E4
:105F0A00F20008000B08F2007208F3008B135530F8
:105F1A0050019F00AA309F009E14000000007308E1
:105F2A008B000800400194157E01CE151330410103
:105F3A009F0042011608F03903389600A03000325B
:105F4A00890BA42F08007508F3007408F200AF311A
:105F5A00CA27AF3150011E161E15AF318727AF3140
:105F6A0050011E121E1108003034313432343334D9
:105F7A0034343534363437343834393441344234AD
:105F8A0043344434453446340034F31FCD2FCE2FE6
:105F9A00D12F50011E17D32F50011E13FF30F205C7
:105FAA007F30F30573089B0072089A0008004601C7
:105FBA000E08F03905388E0006308F0044011E089D
:105FCA00FC3901389E0046018E174E0112101C1032
:105FDA00080046011608F039053896000630970081
:105FEA0044011E08CF3920389E00460196174E01FB
:105FFA0012111C15080023342034503472346934C9
:10600A006E347434203470346534723469346F34C5
:10601A0064343D3409340034233420344334543452
:10602A004D34553420346D346534613473347534E9
:10603A00723465343D340934003423342034463410
:10604A0061347334743420346D3465346134733498
:10605A007534723465343D340934003423342034C1
:10606A005034723469346E34743420347034753474
:10607A006C347334653473343D3409340034233456
:10608A0020345034723465347334633461346C347C
:10609A0065347234203441343D34093400342334B5
:1060AA0020345034723469346E3474342034703489
:1060BA0068346134733465343D340934003423342C
:1060CA0020345034723469346E3474342034743465
:1060DA0069346D3465343D34093400343234303433
:1060EA00323430342D3461347034723469346C345F
:1060FA002D343234343400344F34763465347234C7
:10610A002034723461346E34673465342134003497
:10611A0023342034563465347234733469346F341A
:10612A006E343A342034003450346534723469346D
:10613A006F346434203441343D34093400345034EB
:10614A0075346C34733465347334203441343D34DB
:10615A0009340034543469346D346534203442349B
:10616A002D3441343D3409340034503465347234AA
:10617A0069346F346434203442343D340934003491
:10618A00503475346C347334653473342034423487
:10619A003D340934003453347934733474346534F7
:1061AA006D3420344F344B34003446347234653401
:1061BA0071342E34203441343D34093400344634A9
:1061CA007234653471342E34203442343D34093407
:1061DA000034543469346D346534203441343D34E8
:1061EA0009340034543469346D346534203442340B
:1061FA003D34093400346C346F346E346734663499
:10620A0072346534713400347634653472347334DC
:10621A0069346F346E3400347034653472346934DE
:10622A006F3464340034703475346C3473346534C8
:10623A00733400346F347534743470347534743490
:10624A00003448347A342034203420340034093479
:10625A005034503442340A3400347034683461346F
:10626A007334653400347734723469347434653481
:10627A0000347234653473346534743400346934E8
:10628A006E347034753474340034093442343D3415
:10629A00093400344F34463446340A3400347234F4
:1062AA006534613464340034743469346D3465346B
:1062BA0000347334613476346534003461347534AF
:1062CA0074346F3400346634613473347434003493
:1062DA00633474346D34753400347A34633464341A
:1062EA0000346F34663466340034633461346C3499
:1062FA0000344134423400346334683400342A347C
:06630A00003441340034B0
:107F000000340034003400344F344E340A3400342A
:107F100000340034003400340A3423342034503424
:107F200072346F346A3465346334743420346F349B
:107F30006E342034473469347434483475346234D0
:107F40003A342034683474347434703473343A34CA
:107F50002F342F34673469347434683475346234A0
:107F60002E3463346F346D342F3470346934633499
:107F7000753469346E346F342F346634723465343A
:107F8000713463346F3475346E34743465347234E0
:107F90000A3400342334203449346E347034753458
:107FA000743420345A34653472346F34203443349A
:107FB00072346F347334733420344434653474341D
:107FC00065346334743469346F346E343D34093449
:107FD000003423342034433461346C3469346234E3
:107FE00072346134743469346F346E34203428341C
:0E7FF000523441344D3429343D3409340034C8
:020000040001F9
:0A000E00AA1EFF379F3FEF1FFF3FC0
:00000001FF
