:020000040000FA
:0400000080310E2815
:100008007E1480319631402680319831FE2080312F
:100018007E10090080311028B9308400AF30850087
:10002800A0308600023087000030FF001130AE316A
:10003800EF268031F230840024308500FE30FE0047
:100048000230FF00AE31E3268031FA01FB01EF01F7
:10005800C7308400003085002530FE000030FF00E6
:10006800AE31E326803120308400013085005030E5
:10007800FE000030FF00AE31E3268031A03084005E
:10008800013085004830FE000030FF00AE31E32625
:10009800803120308400023085004B30FE00003073
:1000A800FF00AE31E32680317E1040019D31322DB4
:1000B800410154186028612862287F2A08304301CA
:1000C800E80068084001ED004101D41E6C286D2845
:1000D800702801304001ED024101541E7428752832
:1000E8007B2801304301E80068084001ED079B3197
:1000F8009823803184319F2480314101541F852801
:100108008628A3289630F600B030F700A331532391
:1001180080314D3086000130870032308400003055
:10012800850009304301E80016001A00E80B9828FA
:10013800A1313D2180310930A4311B248031410196
:10014800D41FA728A828CC28EB30F600B030F70039
:10015800A33153238031A930860001308700423013
:1001680084000030850009304301E80016001A00B9
:10017800E80BBA2840016D084301E900690840010D
:10018800CB009A31D42280310930A4311B2480312C
:100198004101D51CD028D128F2288B30F600B03088
:1001A800F700A33153238031D63086000130870011
:1001B800423084000030850009304301E800160011
:1001C8001A00E80BE32840016D084301E9006908BB
:1001D8004001CB009A31D42280311229D730F60061
:1001E800B030F700A331532380314430860001300A
:1001F8008700423084000030850009304301E80060
:1002080016001A00E80B042940016D084301E900B3
:1002180069084001CB009A31D42280310930A431D9
:100228001B2480314101D51D1A291B293F29003083
:10023800AE319F268031443086000130870042303D
:1002480084000030850009304301E80016001A00D8
:10025800E80B2A2940016D084301E90069084001BB
:10026800CB009A31132280312330F600B130F700E9
:10027800A031F5208031410165084301E800E9011A
:100288006808F2006908F3000930F4000030F5004E
:10029800A231232280318D304301EA002730EB0060
:1002A80072086A07860073086B3D87004D3084002A
:1002B800013085000930EC0016001A00EC0B6029AB
:1002C80040016F084301E800E9016808F200690885
:1002D800F3000930F4000030F500A2312322803108
:1002E8008D304301EA002730EB0072086A07860068
:1002F80073086B3D8700203084000030850009308A
:10030800EC0016001A00EC0B85294D3086000130F0
:10031800870029308400003085000930ED00160080
:100328001A00ED0B932998314E208031400120307E
:100338008600003087004D30840001308500093088
:100348004301EE0016001A00EE0BA62941015108E0
:100358009E3180268031410165084301E800E901AA
:100368006808F2006908F3000930F4000030F5006D
:10037800A231232280312A304301EA002730EB00E2
:1003880072086A07860073086B3D8700DF308400B7
:10039800013085000930EC0016001A00EC0BD0295A
:1003A80040016F084301E800E9016808F2006908A4
:1003B800F3000930F4000030F500A2312322803127
:1003C8002A304301EA002730EB0072086A078600EA
:1003D80073086B3D870020308400003085000930A9
:1003E800EC0016001A00EC0BF529DF30860001300E
:1003F800870029308400003085000930ED001600A0
:100408001A00ED0B032A98314E208031400120302C
:10041800860000308700DF30840001308500093015
:100428004301EE0016001A00EE0B162A84319F24B1
:1004380080314101551C212A222A472AD730F6004B
:10044800B030F700A33153238031443086000130A7
:100458008700423084000030850009304301E800FD
:1004680016001A00E80B342A40016D08013E4301CA
:10047800E90069084001CB009A31D4228031093063
:10048800A4311B2480314101D51D4B2A4C2A7F2AD7
:100498002830AE319F268031410162080319552A60
:1004A800562A5E2A7330F600B030F700A031F520E6
:1004B80080317F2A44308600013087004230840032
:1004C8000030850009304301E80016001A00E80BE7
:1004D800692A40016D08013E4301E90069084001AD
:1004E800CB009A31132280312330F600B130F70067
:1004F800A031F520803108004101D418842A852ACA
:10050800862A9E2C08304301E80068084001ED0067
:100518004101D41E902A912A942A01304001ED020B
:100528004101541E982A992A9F2A01304301E80064
:1005380068084001ED079B31FC23823184319F24F8
:1005480082314101541FA92AAA2AC72AB730F600C6
:10055800B030F700A331532382314D30860001308B
:100568008700323084000030850009304301E800FC
:1005780016001A00E80BBC2AA1313D21823109304E
:10058800A4311B2482314101D41FCB2ACC2AF02A62
:10059800F430F600B030F700A33153238231A9308C
:1005A8008600013087004230840000308500093021
:1005B8004301E80016001A00E80BDE2A40016D0826
:1005C8004301E90069084001CB009A31D422823105
:1005D8000930A4311B2482314101D51CF42AF52AA3
:1005E800162BAC30F600B030F700A331532382311C
:1005F800D630860001308700423084000030850004
:1006080009304301E80016001A00E80B072B4001E7
:100618006D084301E90069084001CB009A31D422F2
:100628008231362BE130F600B030F700A331532386
:100638008231443086000130870042308400003027
:10064800850009304301E80016001A00E80B282B42
:1006580040016D084301E90069084001CB009A3167
:10066800D42282310930A4311B248231410165082A
:100678004301E800E9016808F2006908F30009305D
:10068800F4000030F500A23123228231C730430143
:10069800EA002630EB0072086A07860073086B3D93
:1006A80087004D308400013085000930EC001600C9
:1006B8001A00EC0B5B2B40016F084301E800E901CD
:1006C8006808F2006908F3000930F4000030F5000A
:1006D800A23123228231C7304301EA002630EB00E1
:1006E80072086A07860073086B3D87002030840013
:1006F800003085000930EC0016001A00EC0B802B46
:100708004D30860001308700293084000030850094
:100718000930ED0016001A00ED0B8E2B98314E2093
:100728008231400120308600003087004D3084003F
:100738000130850009304301EE0016001A00EE0B67
:10074800A12B410152089E31802682314101650862
:100758004301E800E9016808F2006908F30009307C
:10076800F4000030F500A2312322823164304301C5
:10077800EA002630EB0072086A07860073086B3DB2
:100788008700DF308400013085000930EC00160056
:100798001A00EC0BCB2B40016F084301E800E9017C
:1007A8006808F2006908F3000930F4000030F50029
:1007B800A2312322823164304301EA002630EB0063
:1007C80072086A07860073086B3D87002030840032
:1007D800003085000930EC0016001A00EC0BF02BF5
:1007E800DF30860001308700293084000030850022
:1007F8000930ED0016001A00ED0BFE2B98314E2043
:10080800823140012030860000308700DF308400CC
:100818000130850009304301EE0016001A00EE0B86
:10082800112C84319F2482314101551C1C2C1D2C14
:10083800422CE130F600B030F700A3315323823167
:100848004430860001308700423084000030850043
:1008580009304301E80016001A00E80B2F2C40016C
:100868006D08013E4301E90069084001CB009A3157
:10087800D42282310930A4311B2482314101541C15
:10088800462C472C9E2C551D4A2C4B2C9E2CB230A6
:100898008600013087002030840000308500093050
:1008A8004301E80016001A00E80B562CC4308600F5
:1008B8000130870029308400003085000930E900C4
:1008C80016001A00E90B642C98314E208231400141
:1008D8002030860000308700DF308400013085003A
:1008E80009304301EA0016001A00EA0B772C84311C
:1008F8009F248231A130F600B030F700A331532392
:100908008231A930860001308700423084000030EF
:10091800850009304301E80016001A00E80B902C06
:1009280040016D084301E90069084001CB009A3194
:10093800D422823108004D308600013087002930EA
:1009480084000030850009304101BB0016001A0000
:10095800BB0BAA2C9C3160248431400129308600CD
:1009680000308700203084000230850009304101C2
:10097800BC0016001A00BC0BBD2C541EC42CC52C80
:10098800DF2C08305306031DCA2CCB2CD52C420172
:10099800BB01BC010930BD003D30BE00BF01C00134
:1009A800F92C00304201BB00A030BC002530BD004E
:1009B8002630BE00D22C08305306031DE42CE52C4B
:1009C800EF2C00304201BB001230BC007A30BD0071
:1009D8000030BE00D22C40304201BB004B30BC007E
:1009E8004C30BD000030BE00D22C3B3086000130B8
:1009F8008700293084000030850009304101BB00A0
:100A080016001A00BB0B042D9C3160248431400170
:100A180029308600003087003B3084000130850093
:100A280009304101BC0016001A00BC0B172DDF303D
:100A380086000130870029308400003085000930A5
:100A4800BB0016001A00BB0B252D9C316024843195
:100A580040012930860000308700A9308400013029
:100A6800850009304101BC0016001A00BC0B382D66
:100A7800A9308600013087003630840000308500B8
:100A88000930BB0016001A00BB0B462D3B30860010
:100A9800013087003F308400003085000930BC00F9
:100AA80016001A00BC0B542D8B31332384314001BE
:100AB8003630860000308700A93084000130850078
:100AC80009304101BD0016001A00BD0B672D8831A1
:100AD800002084314101B230860000308700BE30EA
:100AE8008400003085000930BB0016001A00BB0BDB
:100AF800792DA93086000130870036308400003017
:100B080085000930BB0016001A00BB0B872DBE30CC
:100B18008600003087003F308400003085000930AF
:100B2800BC0016001A00BC0B952D8B313323843181
:100B380040013630860000308700A930840001303B
:100B4800850009304101BD0016001A00BD0BA82D13
:100B58002030860002308700443084000130850050
:100B68000930BB0016001A00BB0BB62D44308600B6
:100B78000130870036308400003085000930BB0022
:100B880016001A00BB0BC42DA9308600013087005F
:100B98003F308400003085000930BC0016001A0080
:100BA800BC0BD22D8B313323843140013630860083
:100BB800003087004430840001308500093041014D
:100BC800BD0016001A00BD0BE52D42014D084E046C
:100BD800031DEF2DF02DF82D5208510450044F0439
:100BE8000319F72DF82D512E0130BB000030BC0041
:100BF800BD01BE01BF01C0013B3086000130870046
:100C0800293084000030850009304101BB001600FE
:100C18001A00BB0B0B2E9C31602484314001293013
:100C28008600003087003B308400013085000930A1
:100C38004101BC0016001A00BC0B1E2E3B3086007A
:100C48000130870036308400003085000930BB0051
:100C580016001A00BB0B2C2E44308600013087008A
:100C68003F308400003085000930BC0016001A00AF
:100C7800BC0B3A2E8B313323843140013630860049
:100C880000308700D63084000130850009304101EA
:100C9800BD0016001A00BD0B4D2E08004001C10012
:100CA8003808BC003C08C000B8013330860000306A
:100CB800870029308400003085000930BC00160008
:100CC8001A00BC0B632E41089231A22286314001E2
:100CD8003208BC003C08F20041089E31F4268631F7
:100CE80040014108BC003C08BE000E30BC003C0876
:100CF800BF003E0886000230870030300106031925
:100D0800862E872E882E972E0130BC003C08BE0701
:100D1800FF30BC003C08BF073F08803A7F3E0318FD
:100D2800962E972E7D2E3F08BC003C08C007043045
:100D3800BC003C08BF003E0886000230870001085E
:100D4800BC0041088600023087003C088100013061
:100D5800BC003C08BE070130BC003C08C10703309A
:100D6800F2000030F3004008F400F501F41BF5032D
:100D7800A7315927863172087304031DC42EC52E66
:100D8800D32E2E304001BC00410886000230870077
:100D98003C0881000130BC003C08C107F52EFF303B
:100DA8004001BC003C08C007FF30BC003C08BF073E
:100DB8003F08803A7F3E0318E22EE32E9F2EF52E41
:100DC8003E088600023087000108BC004108860002
:100DD800023087003C0881000130BC003C08BE0797
:100DE800CE2E3E088600023087000108031DFD2E26
:100DF800FE2EE42E4101600C890C0339013A031DD3
:100E0800062F072F822F20304001BC0041088600A2
:100E1800023087003C0881000130BC003C08C10753
:100E2800442F6630BC003C08C000702F7030BC00F6
:100E38003C08C000702F6E30BC003C08C000702F0A
:100E48007530BC003C08C000702F6D30BC003C08F9
:100E5800C000702F6B30BC003C08C000702F4D30B4
:100E6800BC003C08C000702F4730BC003C08C000E4
:100E7800702F5430BC003C08C000702FC001702F88
:100E88004008BC00BD01BC1BBD033D08003A031966
:100E9800512FFF3A03195F2F422F3C08033A0319D9
:100EA8002E2F053A0319332F0F3A0319382F053A15
:100EB80003193D2F422F3C08F13A0319152F053A23
:100EC80003191A2F033A03191F2F0D3A0319242F58
:100ED800073A0319292F422F40080319742F752F39
:100EE800DD2F4008BC0041088600023087003C081E
:100EF80081000130BC003C08C107DD2F45304001AE
:100F0800BC0041088600023087003C08810001309F
:100F1800BC003C08C107C01F922F932FA12FC00906
:100F2800C00A2D30BC0041088600023087003C080A
:100F380081000130BC003C08C1074008803A763E79
:100F4800031CA72FA82FD32F0A30F2000030F3007C
:100F58004008F400F501F41BF5039931B3218631FB
:100F68007208303E4001BC0041088600023087000C
:100F78003C0881000130BC003C08C1070A30F2007F
:100F88000030F3004008F400F501F41BF503A73125
:100F98005927863172084001BC003C08C00040084F
:100FA800303EBC0041088600023087003C088100C2
:100FB8007D2F4108860002308700810108004B011F
:100FC8001F081F3940389F001F127C309D009C016C
:100FD80000304201E1000030E0000030DF00003066
:100FE800DE004B011E129E171F08F03903389F00C0
:100FF8004E018C1296160800083041015306031D55
:10100800062807282A28420159084001D900420128
:1010180058084001D800420157084001D700420152
:1010280056084001D60097311F27883140015630B5
:101038008600003087006430840000308500093065
:10104800F80016001A00F80B25284A280430563EE6
:10105800860001308700403F4001D600413FD7005D
:10106800423FD800433FD90097311F2788314001BC
:1010780056308600003087006430840000308500D8
:101088000930F80016001A00F80B4628643086006C
:1010980000308700B2308400003085000930F80045
:1010A80016001A00F80B54280800AE31A62688311D
:1010B8009931572188311530F200B130F300A7314A
:1010C800AC278831003A03196A286B289028410117
:1010D800540E890C890C0139A331782388314001D9
:1010E800A400A40EA40DA40D410154084001240637
:1010F800BF3924064101D4003330F600B030F70080
:10110800A331532388314101540E890C890C0139CC
:10111800A0319C20883144295630F200B130F300C8
:10112800A731AC278831003A03199B289C28BE2890
:101138004101540D540D0139A33178238831400100
:10114800A400A40CA40C41015408400124067F39D2
:1011580024064101D4006430F600B030F700A33112
:10116800532388314101540D540D0139A0319C207D
:1011780088314429FD30F200B030F300A731AC27A4
:101188008831003A0319C928CA28E82841015508B6
:101198000139A331782388314001A4004101550861
:1011A80040012406FE3924064101D500A330F6008B
:1011B800A830F700A331532388314101550801397C
:1011C800A0319C20883144290E30F200B130F30060
:1011D800A731AC278831003A0319F328F4281329DA
:1011E8004101550C0139A331782388314001A4000D
:1011F800A40D4101550840012406FD39240641018A
:10120800D5000030F600B030F700A3315323883101
:101218004101550C0139A0319C20883144292F30D7
:10122800F200B130F300A731AC278831003A031936
:101238001E291F2941294101550C890C0139A33167
:10124800782388314001A400A40DA40D410155085C
:1012580040012406FB3924064101D5005430F6002C
:10126800B030F700A331532388314101550C890C64
:101278000139A0319C2088314429A031B22088311D
:1012880008004001C601C701C801C901CA01CB0154
:1012980037084007F6007608C400C001B7012830B7
:1012A800F6007608C500461C5A295B297B2946307A
:1012B8008600003087002030840000308500093027
:1012C800F60016001A00F60B6529A4314F2489315F
:1012D800400120308600003087004630840000300E
:1012E80085000930F70016001A00F70B77294630F9
:1012F80086000030870020308400003085000930E7
:10130800F60016001A00F60B8529A531A2258931A9
:1013180040012030860000308700463084000030CD
:1013280085000930F70016001A00F70B97293B1CB7
:101338009E299F29CD29463086000030870020301D
:101348008400003085000930F60016001A00F60BFC
:10135800A929323086000030870029308400003007
:1013680085000930F70016001A00F70BB729A631D7
:101378002B26893140012030860000308700463016
:101388008400003085000930F80016001A00F80BB8
:10139800C9293B30860000308700203084000030A7
:1013A80085000930F60016001A00F60BD729A5317A
:1013B800A2258931400120308600003087003B306B
:1013C8008400003085000930F70016001A00F70B7A
:1013D800E929FF30F6007608C5074508803A7F3EC0
:1013E8000318F729F82957291D2A463086000030A6
:1013F800870020308400003085000930F600160090
:101408001A00F60B032AA531A225893140012030A4
:10141800860000308700463084000030850009309F
:10142800F70016001A00F70B152A0130F6007608A7
:10143800C4074B08031D212A222AF9294B308600AC
:10144800003087004408810046308600003087005D
:1014580032308400003085000930F60016001A008A
:10146800F60B322A0800AE31A6268A319931572167
:101478008A315130F200B130F300A731AC278A31FC
:10148800003A0319482A492A842AE930F600BF306D
:10149800F700A33153238A31A131C6218A31750857
:1014A8004001B5007408B4007308B3007208B200B4
:1014B800A631B7268A312930F600B130F700A331BA
:1014C80053238A31BC30F600A830F700A3315323E8
:1014D8008A31A331C4238A3140012808B50027087E
:1014E800B4002608B3002508B200A631B7268A3111
:1014F8002930F600B130F700A33153238A31322B5B
:101508005B30F200B130F300A731AC278A31003AE2
:1015180003198F2A902AB12AA431F0248A31BC30C9
:10152800F600A830F700A33153238A31A331C4232E
:101538008A3140012808B5002708B4002608B300FE
:101548002508B200A631B7268A312930F600B13015
:10155800F700A33153238A31322B3530F200B130F2
:10156800F300A731AC278A31003A0319BC2ABD2AF7
:10157800FA2AAE31A6268A3190314D208A313D3083
:10158800F600A830F700A33153238A31A131C621D0
:101598008A3175084001B5007408B4007308B300B7
:1015A8007208B200A631B7268A31A13157218A3193
:1015B8005730F600A830F700A33153238A31A13100
:1015C800C6218A3175084001B5007408B400730853
:1015D800B3007208B200A631B7268A311D30F60072
:1015E800A830F700A33153238A31322B6030F20040
:1015F800B130F300A731AC278A31003A0319052B23
:10160800062B2F2B4101540C4001BB00BB0C3B0C9B
:101618000139A33178238A314001BC00BC0DBC0DCF
:10162800BC0D4101540840013C06F7393C06410114
:10163800D400D430F600A830F700A33153238A3100
:101648004101540C4001BB00BB0C3B0C0139A031DB
:101658009C208A31322BA031B2208A310800400107
:10166800CD01CE01CF01D001D101D20144083B0206
:10167800C8004808CB00C401BB01C31F442B452B3D
:10168800492BBA1B482B492B582B4D30860000306C
:10169800870036308400003085000930C800160005
:1016A8001A00C80B532B522C3630860000308700A6
:1016B80020308400003085000930C80016001A0068
:1016C800C80B622B3F308600003087002930840029
:1016D800003085000930C90016001A00C90B702BAC
:1016E800A63170268B31803A803E03187C2B7D2BE7
:1016F800A22B36308600003087002030840000306E
:10170800850009304001C80016001A00C80B882B54
:10171800A431B9248B314001203086000030870085
:1017280036308400003085000930C90016001A00E0
:10173800C90B9A2BFF30C8004808CB072830400156
:10174800C8004808CC0036308600003087002030BA
:101758008400003085000930C80016001A00C80B44
:10176800B12B3F30860000308700293084000030DC
:1017780085000930C90016001A00C90BBF2BA63115
:1017880070268B31891BC92BCA2BFA2B3630860061
:101798000030870020308400003085000930400187
:1017A800C80016001A00C80BD52B3F308600003041
:1017B800870029308400003085000930C9001600F0
:1017C8001A00C90BE32B98314E208B314001203091
:1017D80086000030870036308400003085000930EC
:1017E800CA0016001A00CA0BF52B4D144001D11F70
:1017F800FE2BFF2B002C4B2C4D3086000030870031
:1018080020308400003085000930C80016001A0016
:10181800C80B0A2CA431B9248B3140012030860032
:10182800003087004D308400003085000930C90041
:1018380016001A00C90B1C2C3630860000308700B1
:1018480020308400003085000930C80016001A00D6
:10185800C80B2A2CA431B9248B31400120308600D2
:101868000030870036308400003085000930C90018
:1018780016001A00C90B3C2CFF30C8004808CC07DA
:101888004C08803A7F3E03184A2C4B2CA72B523029
:101898008600003087004B088100492B0800AE31D4
:1018A800A6268C31993157218C317E30F200B13027
:1018B800F300A731AC278C31003A0319642C652C4E
:1018C800F42CAE31A6268C31993157218C318330D6
:1018D800F200B130F300A731AC278C31003A03197C
:1018E800762C772C812C410154187B2C7C2C7E2C57
:1018F800EB01EB0A5414D410B22C7C30F200B13056
:10190800F300A731AC278C31003A03198C2C8D2CAD
:10191800972C4101D418912C922C942CEB01EB0AB2
:101928005410D414B22C7B30F200B130F300A7313C
:10193800AC278C31003A0319A22CA32CB22C4101FC
:101948005418A72CA82CAA2CEB01EB0AD418AD2C00
:10195800AE2CB02CEB01EB0A5414D4146A30F60008
:10196800A930F700A33153238C314101541CBD2CFD
:10197800BE2CC22C4130A4311B248C314101D41C13
:10198800C62CC72CCB2C4230A4311B248C311D30E3
:10199800F600A830F700A33153238C314430F60009
:1019A800B030F700A33153238C3141015108303E48
:1019B800A4311B248C314730F600B130F700A33135
:1019C80053238C3141015208303EA4311B248C3101
:1019D8001D30F600A830F700A33153238C31842D35
:1019E8006530F200B130F300A731AC278C31003AF2
:1019F8000319FF2C002D252D4101540E890C0139A6
:101A0800A33178238C314001A400A40EA40D410118
:101A1800540840012406DF3924064101D40022304D
:101A2800F600B030F700A33153238C314101540E36
:101A3800890C0139A0319C208C314101EB01EB0A62
:101A4800842D6A30F200B130F300A731AC278C3115
:101A5800003A0319302D312D502D4101540E013912
:101A6800A33178238C314001A400A40E410154080D
:101A780040012406EF3924064101D4001130F60054
:101A8800B030F700A33153238C314101540E013992
:101A9800A0319C208C31212D6F30F200B130F30041
:101AA800A731AC278C31003A03195B2D5C2D812DB1
:101AB8004101540C890C0139A33178238C31400140
:101AC800A400A40DA40D4101540840012406FB39CB
:101AD80024064101D400CA30F600BF30F700A33114
:101AE80053238C314101540C890C0139A0319C20BD
:101AF8008C31AE31FB268C31842DA031B2208C3153
:101B0800080040013708D93EF6007608BD00B70145
:101B1800BB011E30F6007608BC003D08803A823EC4
:101B2800031C972D982D992D802EFD303D06031D01
:101B38009E2D9F2DA62DCC303602031CA42DA52D3D
:101B4800A62D802E32308600003087002030840099
:101B5800003085000930F60016001A00F60BB02D8B
:101B6800A4314F248D314001203086000030870099
:101B780032308400003085000930F70016001A0062
:101B8800F70BC22D323086000030870020308400E9
:101B9800003085000930F60016001A00F60BD02D2B
:101BA800A531A2258D314001203086000030870004
:101BB800C7308400003085000930F70016001A008D
:101BC800F70BE22DC73086000030870020308400F4
:101BD800003085000930F60016001A00F60BF02DCB
:101BE800A531A2258D3140012030860000308700C4
:101BF800C7308400003085000930F70016001A004D
:101C0800F70B022E32308600003087002030840027
:101C1800003085000930F60016001A00F60B102E69
:101C2800C7308600003087002930840000308500E6
:101C38000930F70016001A00F70B1E2EA6312B26C6
:101C48008D3140012030860000308700323084001A
:101C5800003085000930F80016001A00F80B302E05
:101C68000330F6007608BD07FF30F6007608BB079C
:101C7800371C3F2E402E752E3230860000308700EC
:101C880020308400003085000930F60016001A0064
:101C9800F60B4A2EA4314F248D31C7308600003010
:101CA800870020308400003085000930F6001600D7
:101CB8001A00F60B5B2EA531A2258D31400120308C
:101CC80086000030870032308400003085000930FB
:101CD800F70016001A00F70B6D2E0130F600760893
:101CE800BD07FF30F6007608BC073C08803A7F3E07
:101CF80003187F2E802E912DBD1B832E842E852EBA
:101D0800BB2E32308600003087002030840000303F
:101D180085000930F60016001A00F60B8F2EA43144
:101D28004F248D31C7308600003087002030840072
:101D3800003085000930F60016001A00F60BA02EB8
:101D4800A531A2258D314001203086000030870062
:101D580032308400003085000930F70016001A0080
:101D6800F70BB22E0130F6007608BD07802E37300B
:101D78008600003087003B08810008004101D41923
:101D8800C62EC72EC82EFF2F4201520851045004F8
:101D98004F040319D02ED12ED22EFF2FDF3086000C
:101DA800013087004231403F4001D300413FD40019
:101DB800423FD500433FD6004101541EE42EE52E94
:101DC800EE2E07304001D000D637D50CD40CD30CFA
:101DD800D00BE82E0A3042014D064E04031DF52EA5
:101DE800F62E422F44304001A9009A30A8001D3039
:101DF800A7002030A6005608F5005508F40054083E
:101E0800F3005308F200013093314D238E317508E9
:101E18004001AD007408AC007308AB007208AA005A
:101E28009F3175278E3103181A2F1B2F1C2FFF2F58
:101E380040015608F5005508F4005408F30053080B
:101E4800F200013093314D238E3175084001A9000D
:101E58007408A8007308A7007208A6004430AD00F3
:101E68009730AC000F30AB00E030AA009F317527E7
:101E78008E310318402F412F952FFF2F14304D0618
:101E88004E04031D482F492FFF2F45304001A9005C
:101E98001A30A8001D30A7002030A6005608F5000B
:101EA8005508F4005408F3005308F2000130933148
:101EB8004D238E3175084001AD007408AC007308DD
:101EC800AB007208AA009F3175278E3103186D2F59
:101ED8006E2F6F2FFF2F40015608F5005508F400AC
:101EE8005408F3005308F200013093314D238E312A
:101EF80075084001A9007408A8007308A7007208B3
:101F0800A6004530AD001730AC000F30AB00E03014
:101F1800AA009F3175278E310318932F942F952F80
:101F2800FF2F00304001D700CA30D8009A30D900BE
:101F38003B30DA00DB01DC015730860000308700D7
:101F480029308400003085000930D00016001A00BE
:101F5800D00BAA2F9C3160248E3140012930860095
:101F68000030870057308400003085000930D100E8
:101F780016001A00D10BBC2F4430860001308700B0
:101F880032308400003085000930D00016001A0075
:101F9800D00BCA2F57308600003087003B308400B2
:101FA800003085000930D10016001A00D10BD82F57
:101FB800893145218E31400132308600003087005A
:101FC80057308400003085000930D20016001A000E
:101FD800D20BEA2F57308600003087003B30840050
:101FE800003085000930D00016001A00D00BF82FF9
:081FF8009031DE208E3108005B
:10200600AF315927903140011A137E01A601AF3135
:102016004B2790314001A101A201A301AF313D2719
:10202600903140011A171A13AF3177279031720891
:102036004001A1077308A23D0130A0002008A307B4
:1020460004302302031C2828292811280230A1075E
:102056000030A23D0230A236A10C890B2E28AF31EA
:102066005927903104307E01A600AF314B279031BD
:1020760040012208F3002108F2000030F40080300D
:10208600F500A5312825903173084201EF0072084A
:10209600EE00080000304201E9000030E8000030A0
:1020A600E7000030E6004101680803195B285C2858
:1020B6005D28DD284001A60141016908EC3E860045
:1020C60087012530873D01084001A4002408A700A8
:1020D6000130A40024084101E9072D3040012706FC
:1020E600031D762877288C28FF30A4002408A60034
:1020F60041016908EC3E860087012530873D0108CD
:102106004001A4002408A7000130A40024084101CE
:10211600E907303040012702031C92289328C9287A
:102126003A302702031898289928C9280030F50064
:102136000030F4000030F3000A30F2004201690872
:10214600F9006808F8006708F7006608F600A43189
:102156008324903175084201E9007408E800730889
:10216600E7007208E60040012708D03EA400FF30D1
:1021760003180030A50024084201E607400125089F
:102186004201E73D0030E83DE93D7B28260A031D74
:10219600CD28CE28DA284201E609E709E809E90947
:1021A600E60A0319E70A0319E80A0319E90A0130DE
:1021B6004101E90208003B308600003087002930E3
:1021C60084000030850009304001C40016001A0062
:1021D600C40BE9289B313523903140012930860014
:1021E600003087003B308400003085000930C50090
:1021F60016001A00C50BFB283D08C4003E08C500A2
:10220600C601C7011030C435C50DC60DC70D890BF3
:1022160006293B08C8003C08C900CA01CB0148088A
:10222600C4074908C53D4A08C63D4B08C73D47088F
:10223600CF004608CE004508CD004408CC0000304B
:10224600CC073630CD3D6530CE3DC430CF3D08306D
:1022560041015306031D30293129422940014C080A
:102266004201D60240014D084201D73B40014E08CB
:102276004201D83B40014F084201D93B5229400157
:102286004C084201DA0240014D084201DB3B4001A5
:102296004E084201DC3B40014F084201DD3BFC3069
:1022A600F600A830F700A33153239031A131C6219F
:1022B600903175084001B5007408B4007308B30086
:1022C6007208B200A631B72690311D30F600A8304C
:1022D600F700A3315323903108004101541C74299F
:1022E60075299429A131E52191314101E301A231FA
:1022F600C5229131410159084201ED0041015808BA
:102306004201EC003230860001308700C430840080
:102316000130850009304001BD0016001A00BD0BD2
:1023260090294101D41C98299929B929A23104225E
:1023360091314101E301E30AA231C5229131410104
:1023460059084201EB00410158084201EA003230C7
:10235600860001308700B2308400013085000930E4
:102366004001BD0016001A00BD0BB5294101541EDF
:10237600BD29BE29D429D41CC129C229D429933107
:10238600FA2391313230860001308700B230840062
:102396000130850009304001BD0016001A00BD0B52
:1023A600D0294101541ED829D929062A541CDC29D2
:1023B600DD29062AC43086000130870032308400C9
:1023C6000130850009304001BD0016001A00BD0B22
:1023D600E82942016D084101D90042016C0841011A
:1023E600D8009331FA2391313230860001308700CC
:1023F600C43084000130850009304001BD0016005C
:102406001A00BD0B022A08004101D41E0B2A0C2A11
:10241600412A64304201E2070030E33D0030E43DEA
:102426000030E53DA23182229231720842016202F9
:102436004001BD0073084201633B4001BE007408C1
:102446004201643B4001BF0075084201653B400103
:10245600C000C01F2F2A302A792AA2318222923147
:10246600323072074201E2000030733DE300003073
:10247600743DE4000030753DE500792AE8304201FC
:10248600E2070330E33D0030E43D0030E53DA23194
:10249600822292317208420162024001BD00730835
:1024A6004201633B4001BE0074084201643B4001A7
:1024B600BF0075084201653B4001C000C01F642A89
:1024C600652A792AA23182229231B63072074201F8
:1024D600E2000330733DE3000030743DE400003059
:1024E600753DE500792A9A3173229231A231822212
:1024F60092317208420162024001BD007308420136
:10250600633B4001BE0074084201643B4001BF00CA
:1025160075084201653B4001C000C01BA12A400866
:10252600031DA02A3F08031DA02A3E08031DA02A5A
:1025360001303D020318A02AA12A762A0800F700D6
:102546007708F30073084101DF001030F3007308C9
:10255600F8005F0886000230870081010130F30031
:102566007308DF070130F802031DBA2ABB2AAC2A1A
:102576003030F3007308F5000E30F3007308F600F0
:102586000E30F3007308F707DE014001AE1FCC2AB8
:10259600CD2ACF2A41015E142930860000308700FB
:1025A60020308400003085000930F30016001A0040
:1025B600F30BD92AA431B924923140012030860088
:1025C6000030870029308400003085000930F4008F
:1025D60016001A00F40BEB2A7708F3007308410182
:1025E600DF0076080F3CF3007308F8005F088600EA
:1025F6000230870001355E07F3007308DE000A30FB
:102606005E02031C072B082B212B5E08F63EF30007
:102616005F08860002308700730881000130DF0200
:10262600DE01DE0A7803031D192B1A2B2C2B013031
:10263600F6020130F3007308F8072C2B5E08F3004E
:102646005F08860002308700730881000130DF02D0
:10265600DE010130F802031D312B322BF92A01303D
:10266600F502031D372B382BC72A0F30F3007308EA
:10267600F8003030F30077088600023087007308D0
:1026860081070130F7020130F802031D4B2B4C2B5A
:102696003C2B08004001A00020080319532B542BA3
:1026A600682BF51F572B582B682B7209A20073094C
:1026B600A3007409A4007509A500A20A0319A30AB8
:1026C6000319A40A0319A50A702B7508A500740836
:1026D600A4007308A3007208A200750874047304AA
:1026E6007204031D772B782B812B0030F500003008
:1026F600F4000030F3000030F200F92B9630F600BB
:102706007608A100912B0130F6007608A10701306A
:10271600A536A40CA30CA20C890B8B2BFE30250529
:10272600031D962B972B862BAB2B0130F6007608D4
:10273600A1070130A2070030A33D0030A43D0030C0
:10274600A53D0130A536A40CA30CA20C890BA52B24
:10275600FF302505031DB02BB12B982BBB2B013069
:10276600A1020130A235A30DA40DA50D890BB52B31
:10277600A41BBE2BBF2BC52B023021020318C42B72
:10278600C52BB22B2118C82BC92BD12BFF30A20584
:10279600FF30A3057F30A405FF30A5050310A10C6B
:1027A6002108F600F701F801F9011830F635F70DA2
:1027B600F80DF90D890BD92B7608A2047708A30426
:1027C6007808A4047908A50420080319EB2BEC2B40
:1027D600F12BF51FEF2BF02BF12BA5172508F50094
:1027E6002408F4002308F3002208F200080042013E
:1027F6006F08F3006E08F20041015908F500580809
:10280600F400A2312322933173084101D9007208E2
:10281600D8000830D936D80C890B0D2C4201370860
:102826004001B6004030860001308700360881003E
:10283600420136084001B600373086000130870075
:1028460036088100420135084001B6003630860060
:102856000130870036088100420134084001B60085
:102866003530860001308700360881004201330882
:102876004001B600343086000130870036088100FA
:102886003330860001308700420132088100B201F0
:102896003230860001308700203084000030850009
:1028A60009304001B60016001A00B60B562CA531A9
:1028B600A225933140012030860000308700323057
:1028C6008400013085000930B70016001A00B70BE6
:1028D600682C4201B713401C712CB7173D30860097
:1028E600013087000030C03FC13FC23FC33F4101B6
:1028F60059084201BC00410158084201BB00323070
:1029060086000130870020308400003085000930C1
:102916004001B60016001A00B60B8D2C3B3086001F
:102926000130870029308400003085000930B70067
:1029360016001A00B70B9B2C98314E20933140019C
:102946002030860000308700323084000130850058
:102956000930B80016001A00B80BAD2C080041016A
:10296600D419B62CB72CB82C752D44304001A900CB
:10297600C030A800A430A7006830A6004D308600FD
:10298600013087004231403FF200413FF300423FB1
:10299600F400433FF500003093314D239431750820
:1029A6004001AD007408AC007308AB007208AA00C1
:1029B6009F31752794310318E12CE22CE32C752DF9
:1029C6004D308600013087004231403FF200413FE2
:1029D600F300423FF400433FF500003093314D23AE
:1029E600943175084001A9007408A8007308A7006F
:1029F6007208A6004430AD00BC30AC00D330AB004A
:102A0600D830AA009F317527943103180B2D0C2D51
:102A16000D2D752D64304001D3000030D400D50152
:102A2600D601D701D80153308600003087002930FF
:102A36008400003085000930D00016001A00D00B43
:102A4600202D9C31602494314001293086000030CD
:102A5600870053308400003085000930D10016000D
:102A66001A00D10B322D44308600013087003230F7
:102A76008400003085000930D00016001A00D00B03
:102A8600402D53308600003087003B3084000030F4
:102A960085000930D10016001A00D10B4E2D893160
:102AA6004521943140013230860000308700533092
:102AB6008400003085000930D20016001A00D20BBF
:102AC600602D53308600003087003B308400003094
:102AD60085000930D00016001A00D00B6E2D9031FB
:102AE600DE2094310800CD30860001308700443066
:102AF60084000230850009304001A00016001A004B
:102B0600A00B812DC4308600013087003B30840045
:102B1600023085000930A00016001A00A00B8F2D88
:102B2600BB308600013087003230840002308500D9
:102B36000930A00016001A00A00B9D2DB2308600A9
:102B46000130870029308400023085000930A0005A
:102B560016001A00A00BAB2DA231A3229531CD3061
:102B660086000130870040016F08A000A1012008FF
:102B7600F2002108F3000930F4000030F500A2311C
:102B8600232295318D304001A2002730A300720820
:102B9600220784007308233D85000930A40016002F
:102BA6001A00A40BD22DC4308600013087006F08AE
:102BB600A000A1012008F2002108F3000930F4006A
:102BC6000030F500A231232295312A304001A200BF
:102BD6002730A3007208220784007308233D85006E
:102BE6000930A40016001A00A40BF52DBB30860090
:102BF600013087006F08A000A1012008F20021081B
:102C0600F3000930F4000030F500A231232295319B
:102C1600C7304001A2002630A300720822078400B4
:102C26007308233D85000930A40016001A00A40B82
:102C3600182EB2308600013087006F08A000A1016F
:102C46002008F2002108F3000930F4000030F500F6
:102C5600A2312322953164304001A2002630A30020
:102C66007208220784007308233D85000930A400FA
:102C760016001A00A40B3B2E08004E01121D442E0E
:102C8600452ED62E121141016308031D4B2E4C2EE4
:102C9600792E46010D084301CE0046010C0843017A
:102CA600CD0029308600013087004231403FCF00F9
:102CB600413FD000423FD100433FD2004E01101C9D
:102CC600652E662EA52E133043014E028830031959
:102CD6004D0203186F2E702EA52E0130CF0700303F
:102CE600D03D0030D13D0030D23DA52E4601110821
:102CF6004301BC00460110084301BB00A03086001A
:102D0600013087004231403FBD00413FBE00423F97
:102D1600BF00433FC0004E01101E922E932EA52EDB
:102D2600133043013C02883003193B0203189C2EE2
:102D36009D2EA52E0130BD070030BE3D0030BF3DA3
:102D46000030C03D460115084201B3004601140893
:102D56004201B20020308600013087004231403FF8
:102D6600B400413FB500423FB600433FB7004E01B5
:102D7600101DBE2EBF2ED12E1330420133028830D5
:102D8600031932020318C82EC92ED12E0130B407FA
:102D96000030B53D0030B63D0030B73D0130F000A3
:102DA60070084101E6004E018C1EDA2EDB2EF12E54
:102DB6008C120130F00070084101DD0753085D02F6
:102DC600031CE62EE72EF12EDD0101304201DE075F
:102DD6000030DF3D0030E03D0030E13D4E01101C8B
:102DE600F52EF62E002F101001304201AB070030F1
:102DF600AC3D0030AD3D0030AE3D4E01101D042F00
:102E0600052F0F2F101101304201A2070030A33DFC
:102E16000030A43D0030A53D4E01101E132F142F87
:102E26001E2F101201304301A2070030A33D0030CF
:102E3600A43D0030A53D0800400157084101AA0005
:102E4600400156084101A90040015608DF00570815
:102E5600E0005808E1005908E2001030E300E237CC
:102E6600E10CE00CDF0CE30B322F60084101AC00F3
:102E760040015F084101AB00AC1F422F432F482F92
:102E8600FF30AD00FF30AE004A2FAD01AE0100307D
:102E9600A000CA30A1009A30A2003B30A300A401D2
:102EA600A501A9308600003087002030840000305C
:102EB600850009304001DF0016001A00DF0B5F2F86
:102EC600A03086000030870029308400003085005D
:102ED6000930E00016001A00E00B6D2FA6312B26F4
:102EE600973140012030860000308700A9308400E9
:102EF600003085000930E10016001A00E10B7F2F33
:102F0600A03086000030870029308400003085001C
:102F16000930DF0016001A00DF0B8D2F9C3160246C
:102F2600973140012930860000308700A0308400A8
:102F3600003085000930E00016001A00E00B9F2FD4
:102F4600A9308600003087002930840000308500D3
:102F56000930DF0016001A00DF0BAD2F9C3160240C
:102F6600973140012930860000308700A93084005F
:102F7600003085000930E00016001A00E00BBF2F74
:102F8600A930860000308700363084000030850086
:102F96000930DF0016001A00DF0BCD2FA0308600A7
:102FA600003087003F308400003085000930E000A3
:102FB60016001A00E00BDB2F8B31332397314001CB
:102FC6003630860000308700A93084000030850046
:102FD6000930E10016001A00E10BED2FA93086003A
:102FE6000030870056308400003085000930DF004D
:102FF60016001A00DF0BFB2F08004101E901E8016A
:10300600E701080045018E018F018C01FF308D001C
:10301600053090008F308E050B08F2007208F30021
:103026008B138E17A0300032890B162845018E139C
:1030360073088B0041300C020318222823283028FD
:10304600053041015306031D29282A283028083057
:10305600F2007208D300EB01EB0A423045010C0284
:10306600031C362837284428083041015306031D1F
:103076003D283E2844280530F2007208D300EB01B3
:10308600EB0A41016B08031949284A284D28A1314A
:103096008D219831080040012B082202B2002C082D
:1030A600233BB3002D08243BB4002E08253BB50076
:1030B60035084101CC00400134084101CB004001F4
:1030C60033084101CA00400132084101C9004001EC
:1030D6002A082102031D71282908200203187428D2
:1030E60075288C280130B2000030B3000030B400DF
:1030F6000030B50032084101C902400133084101E0
:10310600CA3B400134084101CB3B4001350841012F
:10311600CC3B4001290820024101C70040012A0892
:10312600213B4101C800C7308600003087002030AF
:1031360084000030850009304001B20016001A00F4
:10314600B20BA1280800A03100209831A03113202D
:103156009831A03126209831903103209831913151
:10316600702198314101E5014001EF01CD30860023
:10317600013087008D308400273085000930BE007D
:1031860016001A00BE0BC328BB308600013087002C
:10319600C7308400263085000930BE0016001A00AC
:1031A600BE0BD128C4308600013087002A30840047
:1031B600273085000930BE0016001A00BE0BDF2836
:1031C600B2308600013087006430840026308500E6
:1031D6000930BE0016001A00BE0BED28A23182226D
:1031E600983175084201E5007408E4007308E300AD
:1031F6007208E20008004E018F1E022903293229B7
:103206008F1242011908F00070084101DA00773088
:103216007B02031C0F2910291B29633086002630E8
:1032260087000A3081000130F0007008EA07322971
:103236007B08EC3EF000F1012530F13D7008860078
:10324600710887005A0881000130F0007008FB07FA
:103256000A305A06031D30293129322916294E0112
:103266000F1E3629372956290F127A0841015B06A7
:1032760003193E293F2954297A08F23E8600870120
:103286002430873D010842019A000130F0007008A1
:10329600FA07FA307A06031D512952295629FA01EE
:1032A60056294E01191208004101E7016808031961
:1032B6005D295E296329B2290130A531642599313A
:1032C600EC308600253087002030010603196C2972
:1032D6006D295F294101E801E9016908EC3E860094
:1032E60087012530873D01084001A0002008F8002D
:1032F6000130A00020084101E907203078060319B3
:103306008529862998290930780603198B298C295D
:1033160098290A30780603199129922998290D309F
:103326007806031D9729982970290A307806031D07
:103336009D299E29A029E801E80A69084001A00004
:10334600A101EB30A2002530A30020082207860049
:103356002108233D870081014101E701E70A0800B2
:103366004001A101F31FB829B929C029F209F309BF
:10337600F20A0319F30AA101A10AF51FC329C429F8
:10338600CD29F409F509F40A0319F50A0130F60006
:103396007608A106A201A301720873040319D429B1
:1033A600D529042AA001A00AE1290130F235F30D3E
:1033B600890BD9290130F6007608A007F31FE42906
:1033C600E529D8290130A235A30D890BE629730812
:1033D6007502031DF02972087402031CF329F429EF
:1033E600F9297208F4027308F53B22140130F3360A
:1033F600F20C890BFA290130A002031D032A042AC4
:10340600E52921080319082A092A0E2AA209A3096F
:10341600A20A0319A30A2308F3002208F2000800EF
:1034260041016008F3390438E0004230860000307C
:103436008700323084000030850009304001CC001E
:1034460016001A00CC0B232A8D3185259A314001AE
:10345600323086000030870042308400003085001C
:103466000930CD0016001A00CD0B352A4B08CC00CA
:103476004C08B200423086000030870033308400AA
:10348600003085000930CD0016001A00CD0B472A02
:103496004D30863152269A31363044014D02031C96
:1034A600552A562A6E2A40014B08FF3ECC004C088E
:1034B600B20042308600003087003330840000308E
:1034C60085000930CD0016001A00CD0B662A4D3056
:1034D600863152269A314D30A1310C219A3108009D
:1034E60041016A08031D782A792A7A2AD32A993152
:1034F60057219A310630F200B130F300A731AC27DC
:103506009A31003A0319882A892A8D2AA3319D23E4
:103516009A31D02A7730F200B130F300A731AC27C8
:103526009A31003A0319982A992A9D2A8A31372214
:103536009A31D02A4130F200B130F300A731AC27DE
:103546009A31003A0319A82AA92AAD2A8C315324A4
:103556009A31D02A1C30F200B130F300A731AC27E3
:103566009A31003A0319B82AB92ABD2A8831592056
:103576009A31D02A3B30F200B130F300A731AC27A4
:103586009A31003A0319C82AC92ACD2AAE3198269B
:103596009A31D02AA031B2209A31A13172219A31C2
:1035A6000800F3304101E005423086000030870014
:1035B600323084000030850009304001CC0016000E
:1035C6001A00CC0BE22A8D3185259A314001323022
:1035D60086000030870042308400003085000930C4
:1035E600CD0016001A00CD0BF42A4B08CC004C086F
:1035F600B20042308600003087003330840000304D
:1036060085000930CD0016001A00CD0B062B4D3073
:10361600863152269A31363044014D02031C142B52
:10362600152B2D2B40014B08FF3ECC004C08B20059
:103636004230860000308700333084000030850039
:103646000930CD0016001A00CD0B252B4D308631E2
:1036560052269A314D30F6000230F700A3312E2360
:103666009A31080040012E08D93EF6007608F80087
:10367600AE01F81B3F2B402B6B2B612B29308600AC
:103686000030870020308400003085000930F600C5
:1036960016001A00F60B4B2BA431B9249B314001BE
:1036A60020308600003087002930840000308500F5
:1036B6000930F70016001A00F70B5D2BFF30F600F5
:1036C6007608F807780A031D692B6A2B412B972B7E
:1036D600F809F80A8E2B2930860000308700203042
:1036E6008400003085000930F60016001A00F60B3B
:1036F600782BA531A2259B31400120308600003071
:10370600870029308400003085000930F700160054
:103716001A00F70B8A2BFF30F6007608F807780AAE
:10372600031D962B972B6E2B0800CD30860001309B
:103736008700203084000030850009304001B60043
:1037460016001A00B60BA32B443086000230870001
:1037560029308400003085000930B70016001A00B1
:10376600B70BB12B98314E209B314001203086009B
:10377600003087004D308400013085000930B800E4
:1037860016001A00B80BC32B410151089E31802642
:103796009B31C43086000130870020308400003021
:1037A600850009304001B60016001A00B60BD72B6B
:1037B6003B308600023087002930840000308500C7
:1037C6000930B70016001A00B70BE52B98314E20CA
:1037D6009B3140012030860000308700DF308400B6
:1037E600013085000930B80016001A00B80BF72B17
:1037F6000800BB308600013087002030840000308E
:10380600850009304001B60016001A00B60B072CD9
:10381600323086000230870029308400003085006F
:103826000930B70016001A00B70B152C98314E2038
:103836009B31400120308600003087004D308400E7
:10384600013085000930B80016001A00B80B272C85
:10385600410152089E3180269B31B23086000130EC
:103866008700203084000030850009304001B60012
:1038760016001A00B60B3B2C293086000230870052
:1038860029308400003085000930B70016001A0080
:10389600B70B492C98314E209B31400120308600D1
:1038A60000308700DF308400013085000930B80021
:1038B60016001A00B80B5B2C08002F30F3007308B3
:1038C600F5002F30F3007308F6004001AE1F6C2C94
:1038D6006D2C6E2C9D2C2930860000308700203000
:1038E6008400003085000930F30016001A00F30B3F
:1038F600782CA431B9249C31400120308600003058
:10390600870029308400003085000930F400160055
:103916001A00F40B8A2CFF30F3007308F507FF300A
:10392600F3007308F6077608803A7F3E03189C2C4E
:103936009D2C682C2A08F3007308A9002B08F300B5
:103946002A30860000308700730881002C08F300B7
:103956002B30860000308700730881002D08F300A5
:103966002C30860000308700730881002E08F30093
:103976002D30860000308700730881002E308600C7
:103986000030870075088100080040012108F50015
:103996002008F4002308F7002208F600A0315F2073
:1039A6009C3101304001A0070030A13D2108F500FF
:1039B6002008F4002208A6002308A7002408A8006F
:1039C6002508A9000830A936A80CA70CA60C890B57
:1039D600E62C2708F7002608F600A0315F209C3168
:1039E60001304001A0070030A13D2108F500200864
:1039F600F4002208A6002308A7002408A80025082A
:103A0600A9001030A936A80CA70CA60C890B052D09
:103A16002708F7002608F600A0315F209C31013008
:103A26004001A0070030A13D2108F5002008F40060
:103A36002208A6002308A7002408A8002508A90034
:103A46001830A936A80CA70CA60C890B242D27081C
:103A5600F7002608F600A0315F209C3108000830E8
:103A66004001EE006E084101D300A13124219D31B1
:103A7600A03173209D31A031C8209D318731E327C5
:103A86009D31A73108279D31A131A9219D31AF3143
:103A960008279D31AE318E269D318B179231072234
:103AA6009D31A3319D239D31CD30F600B030F70016
:103AB600A031F5209D31983100209D31AE318A2606
:103AC6009D31A03139209D319D31A0259D319E31FA
:103AD60010269D31923107229D31983105209D3166
:103AE60041016B03031D782D792D852DEB011030D7
:103AF600F600A930F700A33153239D319831A62053
:103B06009D31672D953176259D31903103209D316C
:103B1600913170219D3180315C209D31823180222E
:103B26009D31AE31D8269D318E31C2269D319431DC
:103B3600B2249D31672D80310E2845018E018F01FB
:103B4600FF308D0090010E088F3950388E00AF314E
:103B560059279D3115307D019C00AF314B279D3192
:103B660045018C010B084001BF003F08C0008B13C4
:103B760045018E17A0300032890BBE2D45018E13EC
:103B8600400140088B00023045010C020318CC2D81
:103B9600CD2DE12D023041015106031DD32DD42D2B
:103BA600E12DAE31C6269D312230F600A930F70050
:103BB600A33153239D319831A6209D310B30450109
:103BC6000C02031CE72DE82DFB2D41015103031DBB
:103BD600ED2DEE2DFB2DA031DE209D314630F60079
:103BE600A930F700A33153239D319831A6209D318A
:103BF600303045010C02031C012E022E0D2E410110
:103C0600E201E20A7130F600A830F700A33153232F
:103C16009D310F2E4101E201080045018E018F0101
:103C2600FF308D0090010E088F3950388E00AF316D
:103C360059279E3114307D019C00AF314B279E31B0
:103C460045018C010B084001BF003F08C0008B13E3
:103C560045018E17A0300032890B2E2E45018E139A
:103C6600400140088B00023045010C0203183C2E2F
:103C76003D2E512E023041015206031D432E442E85
:103C8600512EAE31CF269E313430F600A930F700E2
:103C9600A33153239E319831A6209E310B30450126
:103CA6000C02031C572E582E6B2E41015203031D86
:103CB6005D2E5E2E6B2EA03187209E315830F60089
:103CC600A930F700A33153239E319831A6209E31A7
:103CD600303045010C02031C712E722E7D2E4101DF
:103CE600E101E10A8A30F600A830F700A331532338
:103CF6009E317F2E4101E1010800F5000230750278
:103D0600031C862E872EA72E4D3086000130870095
:103D160020308400003085000930F30016001A00B8
:103D2600F30B912EA431B9249E3140012030860038
:103D3600003087004D308400013085000930F400E2
:103D460016001A00F40BA32E04307502031CAC2EC9
:103D5600AD2ECD2E4D3086000130870020308400F8
:103D6600003085000930F30016001A00F30BB72E59
:103D7600A431B9249E3140012030860000308700EE
:103D86004D308400013085000930F40016001A0019
:103D9600F40BC92E08307506031DD22ED32EF32E32
:103DA6004D308600013087002030840000308500C9
:103DB6000930F30016001A00F30BDD2EA431B924E6
:103DC6009E31400120308600003087004D3084004F
:103DD600013085000930F40016001A00F40BEF2EAE
:103DE6000800F4007408F3007308F600FE2E013094
:103DF600F3007308F6077608860002308700303035
:103E060001060319072F082FFA2E7208F30073080C
:103E1600F5007508803A7F3E0318122F132F142FD2
:103E26002D2F76088600023087000108031D1C2FFF
:103E36001D2F1E2F2D2F0130F3007308F607FF30BC
:103E4600F3007308F5077508803A7F3E03182C2F98
:103E56002D2F142F76088600023087003530010298
:103E66000318362F372F3D2F76088600023087003D
:103E76008101742F7608860002308700810172085E
:103E8600F3007308F50076087406031D4B2F4C2FBC
:103E96004D2F742F0130F602FF30F3007308F5073B
:103EA60076088600023087003930010203185C2F3D
:103EB6005D2F6B2F76088600023087000108013ED1
:103EC600F300760886000230870073088100742F9D
:103ED6003030F300760886000230870073088100D0
:103EE600462F0800003040012605AE0000302705A9
:103EF600AF0080302805B0007F302905B1003108B9
:103F060030042F042E04031D892F8A2F922F003090
:103F1600A9000030A8000030A7000030A60000303D
:103F26002A05AE0000302B05AF0080302C05B0000E
:103F36007F302D05B100310830042F042E04031DF7
:103F4600A52FA62FAE2F0030AD000030AC000030FC
:103F5600AB000030AA00A91FB12FB22FCA2F003024
:103F6600AE000030AF000030B0008030B10026084F
:103F7600AE022708AF3B2808B03B2908B13B310801
:103F8600A9003008A8002F08A7002E08A600AD1F1C
:103F9600CD2FCE2FE62F0030AE000030AF00003020
:103FA600B0008030B1002A08AE022B08AF3B2C08C7
:103FB600B03B2D08B13B3108AD003008AC002F08EE
:103FC600AB002E08AA008030A9068030AD062D0869
:103FD6002902031DF82F2C082802031DF82F2B0891
:103FE6002702031DF82F2A0826020318FB2FFC2F91
:103FF600FE2F0310FF2F031408000D30440191001B
:104006008E148D018C014201A901AA01AB01AC01FC
:10401600AD01AE0144010E144E0110101A14080031
:104026000130440197009414930192014201A001CA
:10403600A101A201A301A401A501440114144E018A
:1040460010111A1508000E3044019D009A149901AA
:1040560098014301A001A101A201A301A401A501A8
:1040660044011A144E0110121A160800AF31DC274B
:10407600A031AF31EE27A031AF316727A031A33190
:10408600ED23A031AF310827A0319831A620A03109
:10409600080040011A11003200320032003240019D
:1040A6001A15003200320032003240011A11E03097
:1040B6000032890B5B28080050011E151E139E1640
:1040C6007508F3007408F200AF31CA27A0317708EB
:1040D60050019D0076089C00AF318727A03108006B
:1040E600AF315927A031AF312227A03115307D01DC
:1040F600BC001430BD0004307E01A600400114133C
:10410600AF314B27A03108000230F200720841019E
:10411600D20086307C019A000A309B0002309C0057
:104126009D019E019F010230A000A101A201A301F1
:104136000800F9007908031DA128A228AA284C30F6
:10414600F600B130F700A3315323A031B1288430F3
:10415600F600BF30F700A3315323A0310800E83042
:10416600F600A830F700A3315323A031EC30F60057
:104176002530F700A3312E23A0311D30F600A830DC
:10418600F700A3315323A0310800A1318D21A031BE
:10419600903042019D0026309E004101DC01FB016A
:1041A600EA01FA01DB0142019E144E010F161912B3
:1041B6008F12991608000230F20072084101D100F0
:1041C60086307C0190000A309100AE31FB26A0318A
:1041D6007C019301940195010230960097019801A4
:1041E60099010800022976088400770885000008EE
:1041F600AE31BE26A0310130F6070030F73D760815
:104206008400770885001200031D0A290B29F62869
:104216000800F7001A29770886000230870001088F
:10422600AE31BE26A1310130F6007608F7077708D1
:104236008600023087000108031D222923290E2942
:1042460008008B0150010C107E01B801C301CE019C
:104256004001980199019A01FF309200FF309300C6
:10426600FF3094007E01B901C401CF01B9150B17C7
:104276008B13080032308600003087002930840016
:10428600003085000930F90016001A00F90B47299D
:104296004D309231A222A1314D30F6000230F700A6
:1042A600A3312E23A1310800083041015306031D16
:1042B6005D295E29682942016908D9006808D80085
:1042C6006708D7006608D600712942016908DD0033
:1042D6006808DC006708DB006608DA0008004101B0
:1042E6006808031D7729782985296908E90AEC3EBB
:1042F600860087012530873D0A300106031D842983
:1043060085297829AE31A626A1314101E80101307F
:10431600EA020800083041015306031D9329942937
:104326009A29003042019C0045309B00A5290530A2
:104336005306031D9F29A029A529003042019C0090
:104346002B309B0042011E159F150800AF319727A1
:10435600A13142011108F3390438910011121F30BE
:1043660098000F3096051608F0390338960052016A
:104376008C178C1203308C040C1FC229C329BF2949
:10438600420191170800083041015306031DCC294C
:10439600CD29D72942015908F5005808F4005708D5
:1043A600F3005608F200E4290430563E8600013038
:1043B6008700403FF200413FF300423FF400433F95
:1043C600F500080084307C01A400A5012030A60079
:1043D600A701A801A9010230AA00AB01AC01AD01F9
:1043E6008430AE000230AF002230B0001430B1008D
:1043F600B201B3010230B400B5010830B600B7010E
:10440600080084307C01A400A5012130A600A70184
:10441600A801A9010230AA00AB01AC01AD018430AC
:10442600AE000230AF002230B0001530B100B2014C
:10443600B3010230B400B5010830B600B701080078
:10444600F601F701721C282A292A2D2A7408F60774
:104456007508F73D0130F435F50D890B2E2A01302C
:10446600F336F20C890B332A72087304031D3C2AB7
:104476003D2A252A7708F3007608F20008000F3057
:10448600AE319F26A23141016408031D4B2A4C2AF6
:10449600572A8130F600B130F700A031F520A2315D
:1044A6004101E401E40A602A2730F600B130F70042
:1044B600A031F520A2314101E40108008030F60068
:1044C6003F30F700A531E625A23179084201D9002F
:1044D6007808D8007708D7007608D6008830F60026
:1044E6003F30F700A531E625A23179084201DD000B
:1044F6007808DC007708DB007608DA0008000B088D
:10450600F60076084001A4008B13420161084001C1
:10451600A300420160084001A20042015F08400179
:10452600A10042015E084001A00024088B00230878
:10453600F5002208F4002108F3002008F200080024
:104546000130F20072084001EF070B306F06031DC1
:10455600AD2AAE2AAF2AEF014101650840016F0678
:10456600031DB62AB72ABC2A0130F200720841019F
:10457600E5070B3041016506031DC22AC32AC42A7A
:10458600E5010800AF313D27A2314101E6017C017A
:104596002511A514D12A9A317322A2314101660848
:1045A6000319D62AD72ACE2A7C012515A510410142
:1045B600541EDE2ADF2AE72AAF317727A231730895
:1045C6004101D9007208D8000800F200721EEC2AD8
:1045D600ED2AF02A40019A14F22A40019A10F21E9E
:1045E600F52AF62AF82A1A14F92A1A10721FFC2A32
:1045F600FD2AFF2A9814002B9810F21F032B042B78
:10460600062B1814072B1810A0314C20A2310800D5
:10461600F400F830F300730840019405EF30F3001E
:1046260073089305FC30F300730892057408A231F1
:10463600E822A3317408F3000330F335FF3E031D6F
:10464600202B7335A231E822A33140019A101A10AB
:10465600981018100800492B7608860077088700FE
:104666000A300106031D382B392B3D2B0D30A431A2
:104676001B24A33176088600770887000108A43139
:104686001B24A3310130F6070030F73D760886007B
:10469600770887000108031D512B522B2F2B08008A
:1046A6006E2B760884007708850012000A3A031DEF
:1046B6005D2B5E2B622B0D30A4311B24A3317608B3
:1046C6008400770885000008A4311B24A33101303B
:1046D600F6070030F73D760884007708850012005B
:1046E600031D762B772B542B0800F900AE31A62636
:1046F600A33199315721A3310B30F200B130F300C9
:10470600A731AC27A331003A03198A2B8B2B8D2BAB
:1047160001309C2B7330F200B130F300A731AC2787
:10472600A331003A0319982B992B9B2B00309C2B15
:10473600790808001F30F600A830F700A33153238C
:10474600A3317F30F600B030F700A3315323A331F5
:10475600C230F600B030F700A3315323A3318C30BA
:10476600F600BF30F700A3315323A3310030F60023
:10477600A830F700A3315323A331AE31AE26A331BF
:104786000800083041015306031DCA2BCB2BDC2B36
:104796008030F6003F30F700A531E625A3317908D1
:1047A6004001A8007808A7007708A6007608A500AB
:1047B600EC2B8830F6003F30F700A531E625A33113
:1047C60079084001A8007808A7007708A6007608AF
:1047D600A50008004101D41154165414D4105411E4
:1047E600D4125413D4135510D5105511D515803045
:1047F600F6003F30F700A531E625A33179084201DE
:10480600D9007808D8007708D7007608D600843013
:10481600F6003F30F700A531E625A33179084201BD
:10482600DD007808DC007708DB007608DA0008008F
:10483600F4000B08F2007208F5008B1341015B08C7
:10484600F23EF200F3012430F33D7208860073084D
:104856008700740881000130F2007208DB07FA3025
:104866005B06031D372C382C392CDB015B087A06D6
:10487600031D3E2C3F2C432C0130F2007208FA0730
:10488600FA307A06031D482C492C4A2CFA01750881
:104896008B004E011916080040012008013E410117
:1048A600C70000304001213D4101C800203086008C
:1048B600003087004231403FC900413FCA00423FB5
:1048C600CB00433FCC0047084804031D6B2C6C2CDF
:1048D600742C0130C9070030CA3D0030CB3D003092
:1048E600CC3DC73086000030870020308400003081
:1048F60085000930F20016001A00F20B7E2C080023
:1049060000304001A3000030A2000030A1000030BA
:10491600A000721C8F2C902C992C76084001A007C1
:104926007708A13D7808A23D7908A33D0130F63508
:10493600F70DF80DF90D890B9A2C0130F536F40CAC
:10494600F30CF20C890BA12C750874047304720421
:10495600031DAE2CAF2C8C2C40012308F500220839
:10496600F4002108F3002008F2000800410160105D
:104976004001A51FBF2CC02CC22C41016014400170
:1049860022354101C9004001230D4101CA00400101
:10499600240D4101CB004001250D4101CC00400111
:1049A600A11FD62CD72CD92C410149144001203502
:1049B6004101C7004001210D4101C800C7308600F2
:1049C6000030870020308400003085000930F20076
:1049D60016001A00F20BEB2C08008030F4003F3072
:1049E600F500AF31A827A43180304001A0003F3048
:1049F600A100420159084001A500420158084001A2
:104A0600A400420157084001A30042015608400194
:104A1600A2009C31C824A43188304001A0003F3058
:104A2600A1000430563E860001308700403FA200B8
:104A3600413FA300423FA400433FA5009C31C82448
:104A4600A431AE319226A4310800F701F8017208AC
:104A5600730403192F2D302D5F2DF901F90A3C2D12
:104A66000130F235F30D890B342D0130F60076084E
:104A7600F907F31F3F2D402D332D0130F735F80D83
:104A8600890B412D73087502031D4B2D72087402A4
:104A9600031C4E2D4F2D542D7208F4027308F53B5E
:104AA60077140130F336F20C890B552D0130F902DB
:104AB600031D5E2D5F2D402D7808F3007708F20068
:104AC6000800F5008B137B0803196A2D6B2D712DD9
:104AD6007B087502031C702D712D742DFB018B173D
:104AE600A12DF6017508F2007208F700962D7708D9
:104AF600EC3E860087012530873D0108F2007608E6
:104B0600EC3EF300F4012530F43D7308860074088A
:104B16008700720881000130F2007208F707013041
:104B2600F2007208F6077B087702031C9B2D9C2D6A
:104B36007A2D7608F2007208FB008B1708004101F7
:104B460060104001201CA82DA92DAB2D4101601439
:104B560040012108F3002008F200F336F20C720837
:104B66004101C7007308C8004001221CBB2DBC2DA3
:104B7600BE2D4101C81740012208F2002308F300A8
:104B86002408F4002508F5000130F536F40CF30C82
:104B9600F20C890BC82D75084101CC007408CB00B6
:104BA6007308CA007208C900C73086000030870043
:104BB60020308400003085000930F20016001A000B
:104BC600F20BE12D08007708F5007608F400AF3106
:104BD6002F27A53174084001A0002008A10001304C
:104BE600F6070030F73D7708F5007608F400AF3198
:104BF6002F27A53174084001A0002008A20001302B
:104C0600F6070030F73D7708F5007608F400AF3177
:104C16002F27A53174084001A0002008A300013009
:104C2600F6070030F73D7708F5007608F400AF3157
:104C36002F27A53174084001A0002008A4002408ED
:104C4600F9002308F8002208F7002108F6000800FA
:104C5600400122082B07F20023082C3DF30024080C
:104C66002D3DF40025082E3DF50075084101CC00C8
:104C76007408CB007308CA007208C90040012908ED
:104C860020074101C70040012A08213D4101C80013
:104C96004001210841014802031D552E400120080C
:104CA600410147020318582E592E612E0130C907BB
:104CB6000030CA3D0030CB3D0030CC3DC7308600C9
:104CC6000030870020308400003085000930F20073
:104CD60016001A00F20B6B2E0800400125082E0262
:104CE600031D772E24082D0203187A2E7B2E7D2E87
:104CF6000130B62E2E082502031D832E2D08240210
:104D06000318862E872E892EFF30B62E23082C02F6
:104D1600031D8F2E22082B020318922E932E942EFB
:104D26007B2E2C082302031D9A2E2B082202031821
:104D36009D2E9E2E9F2E872E21082A02031DA52E0C
:104D4600200829020318A82EA92EAA2E7B2E2A088F
:104D56002102031DB02E290820020318B32EB42EFB
:104D6600B52E872E003008004001B51FBB2EBC2E85
:104D7600CC2E2D30A4311B24A6314001B209B30933
:104D8600B409B509B20A0319B30A0319B40A031917
:104D9600B50A33084101C800400132084101C70085
:104DA60040013208B6003308B7003408B8003508A9
:104DB600B9001030BA00B937B80CB70CB60CBA0B3C
:104DC600DE2E37084101CA00400136084101C900FC
:104DD600CB01CC01C7308600003087002930840023
:104DE6000030850009304001B60016001A00B60BE7
:104DF600F82E4D309231A222A6315230F600023002
:104E0600F700A3312E23A6310800400119121A110A
:104E16009A101A1098101810F830F70077089405B1
:104E2600EF30F70077089305FC30F7007708920516
:104E36000330F8000830F7007730890B202FF70B86
:104E4600202FF80B202F00003030A231E822A731A6
:104E56002F30F700C030890B2E2FF70B2E2F303056
:104E6600A231E822A7312F30F700C030890B392F45
:104E7600F70B392F3030A231E822A731F03000325B
:104E8600890B422F2030A231E822A7312830AE31DB
:104E9600B626A7310C30AE31B626A731AF3115276D
:104EA600A7310630AE31B626A7310800F801F51F46
:104EB6005D2F5E2F652FF409F509F40A0319F50A2B
:104EC600F801F80AF31F682F692F6E2FF209F3090C
:104ED600F20A0319F30A720873040319732F742F65
:104EE6009D2FF701F70A802F0130F235F30D890B5C
:104EF600782F0130F6007608F707F31F832F842FEB
:104F0600772F73087502031D8A2F72087402031C1B
:104F16008D2F8E2F922F7208F4027308F53B013005
:104F2600F336F20C890B932F0130F702031D9C2FE9
:104F36009D2F842F78080319A12FA22FA72FF409DC
:104F4600F509F40A0319F50A7508F3007408F20066
:104F5600080041016708031DB12FB22FB42F00309E
:104F6600FF2F25304001A100EC30A0007308F500AA
:104F76007208F400F20A0319F30A7408840075082B
:104F860085000008F6002108F8002008F700A00AAE
:104F96000319A10A770886007808870001087606B3
:104FA6000319D62FD72FD82FB22F20088600210815
:104FB60087000108031DE02FE12FEC2F7208840003
:104FC600730885001200031DE92FEA2FEC2F01302C
:104FD600FF2F200886002108870001080319F42FF7
:104FE600F52FB22F72088400730885001200031D86
:104FF600FD2FFE2FB92FB22F08002334203443345F
:105006006F346E3474346134633474343A34203417
:10501600703469346334753469346E346F344034B3
:1050260067346D34613469346C342E3463346F34D0
:105036006D340A340A3400340A34233420345034AC
:1050460069346334753469346E346F3420344634CD
:10505600723465347134753465346E34633479343E
:10506600203443346F3475346E347434653472349A
:105076000A340034233420344F346C3464342034FE
:10508600433461346C346934623472346134743458
:1050960069346F346E3420342834523441344D34FC
:1050A60029343D34093400340A343E344E346534F0
:1050B60077342034433461346C3469346234723466
:1050C6006134743469346F346E3420342834523485
:1050D60041344D3429343D340934003423342034EA
:1050E6004F347634653472342034723461346E341D
:1050F60067346534203461347434203469346E3452
:10510600703475347434203441340A340034233412
:1051160020344F347634653472342034723461343A
:105126006E34673465342034613474342034693421
:105136006E34703475347434203442340A34003496
:10514600233420345034723469346E347434203449
:105156006C346F346E34673420346634723465349C
:105166007134753465346E34633479343D340934BE
:10517600003423342034433461346C34693462346B
:1051860072346134743469346F346E3420342834A4
:105196004534503452344F344D3429343D34093477
:1051A6000034233420344134753474346F3463341A
:1051B60061346C3469346234723461347434693401
:1051C6006F346E343D34093400342334203455347E
:1051D6006E346B346E346F3477346E34203463340B
:1051E6006F346D346D3461346E3464343A34203443
:1051F6000034233420344E34653477342034633419
:1052060061346C34693462347234613474346934B0
:105216006F346E343D340934003423342034523430
:105226006534733465347434203463346F347534C0
:105236006E3474346534723473340A34003423346F
:1052460020345034723465347334633461346C34CE
:1052560065347234203441343D34093431340A34EF
:105266000034233420345034723465347334633458
:1052760061346C3465347234203442343D3409343C
:1052860031340A34003423342034503472346534D3
:105296007334633461346C3465347234203441348D
:1052A6003D34093432340A34003423342034503443
:1052B600723465347334633461346C3465347234F7
:1052C600203442343D34093432340A340034233431
:1052D600203441346334743469347634653420348C
:1052E60049346E3470347534743473343D3409344F
:0252F600003482
:105D1400A2316122AE31080052011F129F17080000
:105D240050019E12AF318727AE310800A331ED2315
:105D3400AE314101EB01EB0A0800F6007608803E23
:105D4400AE31B626AE31080041016908A53164259B
:105D5400AE314101E90108007A0841015B06031DE7
:105D6400B42EB52EAE2E0800F500400119127508A8
:105D7400A3310B23AE310800F50040011916750854
:105D8400A3310B23AE3108004101D101D10A803087
:105D94007C0190000230910008004101D201D20A36
:105DA40080307C019A0002309B0008001D30F60010
:105DB400A830F700A3315323AE31A2314222AE31D1
:105DC40008006400800101310130FE020030FF3B15
:105DD4007F087E04031DE42E0034FE0012001E0022
:105DE4000130FE020030FF3B7F087E04031DF02ECD
:105DF40000344101541DFF2E002F042F1D307C015F
:105E04009200072F01307C0192000800A031DE20AF
:105E1400AF31A0318720AF31AE31C626AF31AE31BC
:105E2400CF26AF3108000130AE31B626AF31153080
:105E3400F600C630890B1C2FF60B1C2F003208000D
:105E44000F307E019D00400193120E307D01CB0086
:105E5400400113177E01441708007508F300740805
:105E6400F200AF31CA27AF3150011E141D08F500EE
:105E74001C08F40008007E01CE11400194119A110F
:105E84001A30890B432F0032400194157E01CE1540
:105E940008000B08F2007208F3008B1355307D01E3
:105EA4008F00AA308F000F1473088B0008000B08B2
:105EB400F2007208F3008B1355307D018F00AA3075
:105EC4008F000F1073088B00080046011208F03988
:105ED40005389200063093000C3044019E044601BC
:105EE40092174E0192109C1008001A30890B782FDB
:105EF4000032420111141118802F812F7D2F41018E
:105F04001E08F3001D08F20008000B08F2007208D6
:105F1400F3008B13553050019F00AA309F009E144C
:105F24000000000073088B000800400194157E01F6
:105F3400CE15133041019F0042011608F039033891
:105F44009600A0300032890BA42F08007508F300D6
:105F54007408F200AF31CA27AF3150011E161E1566
:105F6400AF318727AF3150011E121E1108003034A3
:105F740031343234333434343534363437343834D9
:105F8400393441344234433444344534463400349F
:105F9400F31FCD2FCE2FD12F50011E17D32F500119
:105FA4001E13FF30F2057F30F30573089B0072085F
:105FB4009A00080046010E08F03905388E000630B4
:105FC4008F0044011E08FC3901389E0046018E17DB
:105FD4004E0112101C10080046011608F03905384D
:105FE40096000630970044011E08CF3920389E00E1
:105FF400460196174E0112111C1508002334203453
:106004005034723469346E347434203470346534EA
:10601400723469346F3464343D34093400342334C5
:106024002034433454344D34553420346D34653481
:10603400613473347534723465343D340934003456
:1060440023342034463461347334743420346D344E
:106054006534613473347534723465343D340934D1
:106064000034233420345034723469346E3474343C
:106074002034703475346C347334653473343D3483
:106084000934003423342034503472346534733486
:10609400633461346C3465347234203441343D34B7
:1060A40009340034233420345034723469346E3467
:1060B40074342034703468346134733465343D345A
:1060C40009340034233420345034723469346E3447
:1060D40074342034743469346D3465343D34093493
:1060E40000344F347634653472342034723461347D
:1060F4006E34673465342134003423342034563408
:1061040065347234733469346F346E343A34203401
:10611400003450346534723469346F346434203458
:1061240041343D3409340034503475346C347334A0
:1061340065347334203441343D34093400345434E8
:1061440069346D346534203442342D3441343D3463
:106154000934003450346534723469346F3464342F
:10616400203442343D3409340034503475346C34B2
:10617400733465347334203442343D340934003488
:1061840032343034323430342D34303435342D34E8
:1061940030343234003453347934733474346534E1
:1061A4006D3420344F344B34003446347234653407
:1061B40071342E34203441343D34093400344634AF
:1061C4007234653471342E34203442343D3409340D
:1061D4000034543469346D346534203441343D34EE
:1061E40009340034543469346D3465342034423411
:1061F4003D34093400346C346F346E34673466349F
:1062040072346534713400347634653472347334E2
:1062140069346F346E3400347034653472346934E4
:106224006F3464340034703475346C3473346534CE
:10623400733400346F347534743470347534743496
:10624400003448347A34203420342034003409347F
:106254005034503442340A34003470346834613475
:106264007334653400347734723469347434653487
:1062740000347234653473346534743400346934EE
:106284006E347034753474340034093442343D341B
:10629400093400344F34463446340A3400347234FA
:1062A4006534613464340034743469346D34653471
:1062B40000347334613476346534003461347534B5
:1062C40074346F3400346634613473347434003499
:1062D400633474346D34753400347A346334643420
:1062E40000346F34663466340034633461346C349F
:1062F40000344134423400346334683400342A3482
:06630400003441340034B6
:107F000000340034003400344F344E340A3400342A
:107F100000340034003400340A3423342034503424
:107F200072346F346A3465346334743420346F349B
:107F30006E342034473469347434483475346234D0
:107F40003A342034683474347434703473343A34CA
:107F50002F342F34673469347434683475346234A0
:107F60002E3463346F346D342F3470346934633499
:107F7000753469346E346F342F346634723465343A
:107F8000713463346F3475346E34743465347234E0
:107F90000A3400342334203449346E347034753458
:107FA000743420345A34653472346F34203443349A
:107FB00072346F347334733420344434653474341D
:107FC00065346334743469346F346E343D34093449
:107FD000003423342034433461346C3469346234E3
:107FE00072346134743469346F346E34203428341C
:0E7FF000523441344D3429343D3409340034C8
:020000040001F9
:0A000E00AA1EFF379F3FEF1FFF3FC0
:00000001FF
